:100000000C94C3030C94151A0C940A040C940A045F
:100010000C940A040C940A040C940A040C940A0428
:100020000C940A040C940A040C941F300C94F130C4
:100030000C9474280C940A040C940A040C940A047A
:100040000C940A040C940A040C940A040C940A04F8
:100050000C940A040C94C1280C940A040C940A040D
:100060000C940A040C940A040C940A040C940A04D8
:100070000C940A040C940A040C940A040C940A04C8
:100080000C940A040C940A040C940A040C940A04B8
:100090000C940A040C940A040C940A040C940A04A8
:1000A0000C940A040C940A040C940A04FD12001324
:1000B00005130C13111316131B13201325132A13E6
:1000C0002F133413361339133C133F1342134513C4
:1000D00047134C13F71DF71D291E291E761E941E6B
:1000E000B51FB51F9F1E341F451F451FA51FB51FF8
:1000F000B51FAE1F63206320752075206C2075200E
:100100007520752063206320712075207520712073
:100110005E3185317D3285317D32D131F4317D32B0
:100120004B325A32C2AF5C5F28E38384295F2FC20F
:10013000AF00C2AF5C5F282D2E2D295F2FC2AF000C
:100140000A5DB200165C1E001F0020002100220084
:1001500023003A003B002B0014001A000800150091
:10016000170000003D003E00025104001600070089
:1001700009000A00000040004100E10000001D00ED
:100180001B0006001900050044004500E000E300E4
:10019000E200015100002C00000024002500260090
:1001A00027002D002E002A002A00A8001C0018009D
:1001B0000C00120013002F003000310048000B002B
:1001C0000D000E000F003300340000002800460030
:1001D000110010003600370038000000E100520026
:1001E000490065002C00E6000151E40000005000C9
:1001F00051004F00C05CBF5C35003A003B003C0042
:100200003D003E003F00BB5CBE5C01000100010000
:100210000100010001000000BC5CBD5C3900010070
:1002200001000100010001000000BD00BE0001004E
:100230000000010001000100010001004C00055513
:1002400001000F5C010001000000010000004000FF
:10025000410042004300440045004C004C000B5D4F
:100260000100010001000100010001000100010086
:100270000100010001000100010001000100000077
:100280000100010001000100010001000100000067
:1002900001004B000100010001000100010001000C
:1002A00000004A004E004D00C35CC25C0100030028
:1002B00001000100010001000100CB5CC95C0100EC
:1002C000010005000000010001000000CC5CCA5CD8
:1002D0000251010001000100010001000000C75CA3
:1002E000C55C0100000001000100010001000100E7
:1002F000C85CC65C0100065C010001000000010052
:1003000000000100010001000100010001000100E6
:1003100001000100010001000100010001000100D5
:1003200001000100010001000100010001000100C5
:1003300001000000010001000100010002000100B5
:1003400004000000010001000100010001000100A3
:10035000010001000000010001000100B0000000E8
:100360003D2000002E2E0000A1000000BF00000074
:1003700000000000000000002A2B28000000000000
:100380000000000000000000000000290000000044
:100390002C1E3420212224342627252E362D3738B2
:1003A000271E1F202122232425263333362E3738BB
:1003B0001F0405060708090A0B0C0D0E0F10111279
:1003C000131415161718191A1B1C1D2F3130232D45
:1003D000350405060708090A0B0C0D0E0F10111243
:1003E000131415161718191A1B1C1D2F3130354CF4
:1003F00000000000000000000000000000000000FD
:10040000000000007E0F00D4FFFFFFC7000000784F
:1004100032190A00047F3F1F643214643214783C9E
:100420001E1E140A052223252628292A2C2D2F30AA
:1004300032333536383A3B3D3E4042434547494AE0
:100440004C4E5051535557595A5C5E606264666811
:10045000696B6D6F71737577797B7D7F818385871C
:10046000898A8C8E90929496989A9C9E9FA1A3A51F
:10047000A7A8AAACAEAFB1B3B4B6B8B9BBBCBEBF47
:10048000C1C2C3C5C6C7C9CACBCCCDCED0D1D2D2CA
:10049000D3D4D5D6D7D7D8D9D9DADADBDBDBDCDCD5
:1004A000DCDCDCDDDDDDDDDCDCDCDCDCDBDBDBDA8D
:1004B000DAD9D9D8D7D7D6D5D4D3D2D2D1D0CECDF8
:1004C000CCCBCAC9C7C6C5C3C2C1BFBEBCBBB9B805
:1004D000B6B4B3B1AFAEACAAA8A7A5A3A19F9E9C8A
:1004E0009A98969492908E8C8A89878583817F7D55
:1004F0007B79777573716F6D6B6968666462605E36
:100500005C5A5957555351504E4C4A4947454342FE
:10051000403E3D3B3A3836353332302F2D2C2A2998
:100520002826252322FFAA7F55400102030C0D0E29
:100530000F00070605040B0A09080001010101016B
:10054000010101010202020202020202020303038C
:10055000030303030304040404040404050505055C
:10056000050606060606070707070708080808091C
:100570000909090A0A0A0B0B0B0C0C0C0D0D0D0EC8
:100580000E0E0F0F0F10101111111212131314145D
:10059000151516161717181819191A1A1B1B1C1DD2
:1005A0001D1E1E1F2020212222232424252626272B
:1005B0002829292A2B2C2D2D2E2F3031323233345D
:1005C00035363738393A3B3C3D3E3F404142434463
:1005D00045464748494A4C4D4E4F50515354555645
:1005E00058595A5B5D5E5F616264656668696B6CF1
:1005F0006D6F7072737577787A7B7D7E808283856C
:1006000087888A8C8E8F91939596989A9C9EA0A2AB
:10061000A3A5A7A9ABADAFB1B3B5B7BABCBEC0C2B5
:10062000C4C6C9CBCDCFD1D4D6D8DBDDDFE2E4E779
:10063000E9EBEEF0F3F5F8FAFDFF040330000000FB
:1006400022035100750065006600720065006E00AF
:100650006300790020005200650076002E00200023
:10066000320000000E034B00650065006200690067
:100670006F0000000403090409023B00020100A00E
:10068000FA09040000010301010009211101000120
:100690002240000705810308000A09040100010344
:1006A00000000009211101000122810007058203D9
:1006B00020000A120110010000000810CB57220090
:1006C000020102030105010902A10185020901A13C
:1006D00000050919012905150025019505750181F8
:1006E0000295017503810105010930093115812544
:1006F0007F95027508810609381581257F9501755A
:10070000088106050C0A38021581257F95017508B8
:100710008106C0C005010980A101850319012AB71E
:1007200000150126B700950175108100C0050C0960
:1007300001A101850419012AA002150126A0029534
:100740000175108100C005010906A101050719E026
:1007500029E71500250195087501810295017508A5
:1007600081010507190029FF150026FF0095067570
:100770000881000508190129059505750191029563
:100780000175039101C011241FBECFEFDAE0DEBF77
:10079000CDBF04B603FE27C08091B8039091B90382
:1007A000A091BA03B091BB038730904BA740B04BE8
:1007B000D1F41092B8031092B9031092BA031092B8
:1007C000BB0314BE84B7877F84BF0FB6F894A89587
:1007D00080916000886180936000109260000FBE7D
:1007E000E0E0F8E3099511E0A0E0B1E0E2E2F8E62C
:1007F00002C005900D92A83FB107D9F723E0A8EFFA
:10080000B1E001C01D92A83BB207E1F70E944E2D56
:100810000C940F340C940000269A0C949908CF93F2
:1008200090911701992351F0C82F0E940E0688233A
:1008300029F0C1FD02C02E9A01C02E9881E0CF910F
:1008400008950E94C61383E00E9434140E9446114A
:100850004FEF6FEF80E00E941A0E8BE00E94431171
:1008600060E070E0CB010E945B270C9467278A3020
:100870002DE5920721F08B309D4541F00FC0FB0123
:100880008281882359F082E391E006C0FB018281D6
:10089000882321F084E291E00E94EC0581E0089534
:1008A000CF93C62F811118C060911003709111036E
:1008B00080911203909113030E94D126813031F46C
:1008C000CC2311F08CEF19C08BEF17C0CC2311F0A3
:1008D0008AEF13C089EF11C0813091F46091100349
:1008E0007091110380911203909113030E94D126FD
:1008F000CC2311F089EA01C08AEACF910C94A01DA3
:10090000CF9108959C013A9521153F4138F5DC01BE
:10091000AA27B270AC01442754709C01222738707A
:1009200094FF0FC090FF02C080E101C080E0AB2BBC
:1009300009F08062452B09F08064232B69F0806800
:100940000BC0892F8170AB2B09F08260452B09F019
:100950008460232B09F08860FB0109940895CF93EC
:10096000DF93EC01805E9109089710F0209719F44D
:1009700063EB7DE102C069E270E2CE010E94820475
:100980008C2FDF91CF910C948E1CCF93DF93EC01D1
:100990000E94381DCE01805E9109089710F02097C3
:1009A00019F46AEB7DE102C060E370E2CE01DF91F1
:1009B000CF910C948204CF93DF93EC010E94AF049B
:1009C000CE01DF91CF910C94C50481E008950C9481
:1009D000370408950C94E9041F93CF93DF9300D05C
:1009E00000D01F92CDB7DEB749835A836B83309115
:1009F0009B0289819A81311114C0662359F0222308
:100A000049F00E949C25182F682F89819A810E94A5
:100A1000452503C00E947025182F69817A81812F96
:100A200004C00E949C2569817A810F900F900F90DD
:100A30000F900F90DF91CF911F910C947C06FC01D9
:100A4000262F408151816281738184810C94EC0452
:100A5000CF93DF93EC0160E00E941F05BE01DF91A0
:100A6000CF910C94EA04FF920F931F93CF93DF93DF
:100A7000E82FF0E0E059FC4FF490C82FC695C695DA
:100A8000C695D0E0FE01E050FC4F0491877010E065
:100A9000082E02C0159507950A94E2F701701127F8
:100AA000FE01E051FC4FC491D0E002C0D595C7953E
:100AB0008A95E2F7C170DD270115110519F081EE65
:100AC0000E948E1C209719F086EE0E948E1C8F2D9E
:100AD0000E94A01DCD2B19F086EE0E94381D012B1F
:100AE00041F081EEDF91CF911F910F91FF900C9417
:100AF000381DDF91CF911F910F91FF900895EF92D4
:100B0000FF920F931F93CF93DF938C01F62E8AE011
:100B1000E82EF8018491882309F457C0813009F048
:100B200042C0E8012196FE018491813031F4219682
:100B3000FE0184910E94A01D39C0823039F4E80181
:100B40002296FE0184910E948E1C30C0833039F4BD
:100B5000E8012296FE0184910E94381D27C084304E
:100B600029F5E8012296FE01249180E090E030E032
:100B7000205331092A30310560F4E89EA001E99E36
:100B8000500D1124C901840F951F2196FE01249157
:100B9000EECF009759F0EFE9FFE03197F1F700C091
:100BA00000000197F6CF0E943305E8018E010F5F28
:100BB0001F4F8F2D882309F4ACCFEFE9FFE0319769
:100BC000F1F700C000008150F5CFDF91CF911F9168
:100BD0000F91FF90EF90089560E00C947F050E94C4
:100BE0002127811102C00E94C3270E94D1140E94B4
:100BF0004D160C940C040C949708282F2F7041F07C
:100C0000822F90E02A3010F44D96089506970895AB
:100C100087E290E0089508950C940B0681E0089512
:100C2000CF93C82F0E940C068C2F0E940F04CF91E7
:100C3000089508950E9451200E9419062FEF84E321
:100C40009CE0215080409040E1F700C000000C94EF
:100C5000E7280F931F93CF93DF93EC0161E00E948D
:100C60001F058C01BE010E94E7048823D9F1BE0153
:100C7000C8010E943A148823A9F1BE01C8010E944C
:100C80003617882379F1BE01C8010E94C81788234E
:100C900049F1BE01C8010E940918882319F1BE015B
:100CA000C8010E9434198823E9F0BE01C8010E94DE
:100CB000E7128823B9F08A81882369F001158CE551
:100CC000180731F00E3D1C4531F40E94C3270AC0BD
:100CD0000E941A0607C0CE01DF91CF911F910F919C
:100CE0000C94E50480E0DF91CF911F910F9108955E
:100CF00080E090E0089508952AE5829FC0011124C4
:100D0000FC0129E0729FE00DF11D1124E60FF11D99
:100D1000EE0FFF1FE05CFE4F859194910895880FC0
:100D2000991FFC01E05FFB4F859194910895CF934B
:100D3000DF930E947C060E94AF07EC01811590456D
:100D400008F041C0C11580E4D80708F0D1C0C83E02
:100D5000D10510F5C03ED10508F0FDC0C83AD10557
:100D600078F4C53AD10508F0A2C0C130D10509F424
:100D7000F2C008F4EEC0C430D10508F0ECC0E9C000
:100D8000CF3BD10508F49BC0C03CD10508F4E1C0BD
:100D9000CE01805C91099EC0C11590E2D90758F43C
:100DA000C11521E0D20708F0D6C0C03FD10508F434
:100DB000D0C0D065D0C0C11580E3D80708F08EC080
:100DC000CE019F7087C0C11595E5D90708F043C0D3
:100DD000C11524E5D20708F0A2C0C11582E5D807E5
:100DE00008F5C11591E5D90708F085C0CE0174E07A
:100DF000969587957A95E1F783709C2F937021E003
:100E000030E002C0220F331F9A95E2F73C68382B7E
:100E1000CF70C695C69580E2C89FE0011124C22B11
:100E2000D32B99C09E01237033278C2F86958695EE
:100E3000C115D34508F064C0C1E0D0E002C0CC0FBA
:100E4000DD1F2A95E2F720E2829FC0011124C82B02
:100E5000D92BDC6880C0C11529E5D207A0F4C115E3
:100E600088E5D80708F060C0C11596E5D90708F0F5
:100E700070C08C2F0E9443088F71C82FD0E0DC2FE8
:100E8000CC27D06268C0C1152AE5D20708F451C04A
:100E9000CE0190568115904208F05BC08D2F8F7166
:100EA0000E944308DD27D0628F71D82B54C0C55AE9
:100EB000D0E0C857DE4FC881D0E0D0644CC0C85ADB
:100EC000D0E0CC0FDD1FC65ADE4F0990D881C02D6F
:100ED000D46441C00E948F06EC013DC0CE01992729
:100EE000D3FF03C0EC01D86C36C0EC01D06C33C02A
:100EF000DF70D06A30C0DC2FCC27C16FD06A2BC026
:100F0000C1E0D0E002C0CC0FDD1F2A95E2F720E25D
:100F1000829FC0011124C82BD92BDA681CC0DC2F9A
:100F2000CC27C46FD06A17C0DC2FCC27C06FD06A23
:100F300012C08C2F8F700E94430894E0D695C795FD
:100F40009A95E1F7CF70D0E0DC2FCC27D069C82B81
:100F500002C0C0E0D0E0CE01DF91CF910895823889
:100F6000910569F1B0F48133910509F46DC048F43D
:100F70008932910509F463C08A32910509F469C088
:100F800008958533910509F455C089339105B9F069
:100F90000895833E910569F138F4803E9105B1F0E2
:100FA000823E910509F10895863E9105A9F1873E9B
:100FB0009105B9F1843E910509F064C023C02091E8
:100FC000A90320FD4FC021FD4DC008958091A903C4
:100FD00080FD44C08091AA0380FF44C08091A90392
:100FE00084FD42C083EE4DC08091A90382FF38C0CA
:100FF000F5CF8091A90382FD33C08091AA0380FDC3
:1010000031C0ECCF8091AA0381FF32C08091A90347
:1010100084FD2AC087EE35C08091A90383FF26C0D6
:10102000F5CF8091A90383FD21C08091AA0381FDA2
:101030001FC0ECCF8091A90385FD1CC01DC080910D
:10104000A90385FD19C016C08091A90386FD16C0AD
:1010500017C08091A90386FD13C010C089E311C099
:1010600082EE0FC080EE0DC080E00BC086EE09C09E
:1010700084EE07C089E205C085E303C08AE201C0AF
:1010800081E390E008959091A90392FF0DC0282F6D
:101090002871283019F4877F846006C0282F2471B6
:1010A000243011F48B7F886093FF0DC0282F2871A6
:1010B000283119F4877E846106C0282F24712431D9
:1010C00011F48B7E88612091AA0320FF0DC0382F78
:1010D0003871383019F4877F816006C0382F31713C
:1010E000313011F48E7F886021FF0DC0282F2871C8
:1010F000283119F4877E816106C0282F21712131A2
:1011000011F48E7E886194FD877E0895E82FF0E0CB
:10111000EE0FFF1FEC5AFC4F8081918108950895D6
:1011200080EA8A95F1F7089508950C9494080C9438
:1011300095080C94940808950F931F93CF93DF9311
:10114000CDB7DEB763970FB6F894DEBF0FBECDBF45
:101150000E94860A8091170181112DC0FE013196EF
:101160008AE0DF011D928A95E9F783E3898382E3B0
:101170008A8386E38B8384E38C8387E98D83ADE068
:10118000B1E0CE010B9621912D938E179F07D9F7D1
:1011900029E0E1E5F1E0DE011B9601900D922A9530
:1011A000E1F7FC01A4E0B1E0CE01449621912D933A
:1011B0008E179F07D9F780911701811102C095E022
:1011C00001C090E09093690385E0891B80936803D8
:1011D000ADE0B1E042E151E061E070E08D91E82FD7
:1011E000E295EF70F0E021A18F708B0102C0000F3B
:1011F000111F8A95E2F7C801902F9095922391A331
:1012000092A1892B82A34A175B0741F7A4E0B1E0C2
:101210004DE051E061E070E08D91E82FE295EF70D4
:10122000F0E021A18F708B0102C0000F111F8A9581
:10123000E2F7C801902F9095922391A392A1892B58
:1012400082A34A175B0741F7E0E4F3E0A4E5B3E0CB
:1012500084E593E0119211921D921D928E179F07C3
:10126000C9F785E00E94270A0E94EF0563960FB632
:10127000F894DEBF0FBECDBFDF91CF911F910F91CC
:101280000C949A0A0E94690A882351F1809168039C
:1012900090E0880F991F8C5A9C4F0E94CA0A8111B6
:1012A0001BC08091F8018F5F8093F8018630B0F009
:1012B0008091680390E0880F991F20E030E0F901E9
:1012C000E80FF91FEC5AFC4F118210822E5F3F4F3E
:1012D0002A303105A1F702C01092F8010C94FB05E9
:1012E0008091690390E0880F991F8C5A9C4F0E944F
:1012F000FB0A0C949B08AF92BF92CF92DF92FF92B1
:101300000F931F93CF93DF93CDE0D1E090E4C92EEC
:1013100093E0D92E22E1A22E21E0B22EF12C01E0A1
:1013200010E08881E82FE295EF70F0E021A18F7046
:10133000A80102C0440F551F8A95E2F7CA01822B0B
:1013400081A38881E82FE295EF70F0E092A18F7081
:10135000980101C0220F8A95EAF7822F8095892390
:1013600082A30E949008E4E0F1E040E050E020E039
:1013700030E06191A62FA295AF70B0E090968C916D
:1013800090E06F7002C0959587956A95E2F780FDB1
:1013900008C0C801042E02C0880F991F0A94E2F702
:1013A00002C080E090E0282B392B4F5F5F4F49301F
:1013B0005105F9F68881E82FE295EF70F0E091A1F0
:1013C0008F70A80101C0440F8A95EAF7842F809599
:1013D000892381A38991E82FE295EF70F0E042A183
:1013E0008F70B80102C0660F771F8A95E2F7CB01B4
:1013F000842B82A3F601808191812817390721F07F
:101400003183208381E001C080E0F82AF2E0CF0E32
:10141000D11CAC16BD0609F084CF6091690370E061
:10142000660F771F6C5A7C4F2F2D45E080E493E0C8
:101430000E94280A0E9442098F2DDF91CF911F91AF
:101440000F91FF90DF90CF90BF90AF9008950895D7
:10145000FF920F931F93CF93DF93F82E092F162F30
:10146000D72FC42F222349F081E08093FB010E94F3
:10147000A6289093FA018093F9018091FB018823BB
:10148000D9F08091F9019091FA010E94B228069753
:1014900098F0EF2DF02FA12FBD2F80E090E04C2F82
:1014A00050E08417950734F4219131912D933D93A9
:1014B0000196F7CF1092FB01DF91CF911F910F9111
:1014C000FF90089587988F988FB1881F8827881F6D
:1014D00008958091FC01811112C08091D800806133
:1014E0008093D8008AE18A95F1F700C08091D900F5
:1014F00080FD02C082E001C081E08093FC0181E0B8
:101500009091FC01913009F080E008950E94620AF8
:10151000809317018091170168E0882311F080E023
:1015200001C088E00E94A90B0E94690A81110C94F5
:10153000A10A08950E94690A811102C00C94A70AA9
:10154000089562E070E088E191E00C94C31962E0D4
:1015500070E088E191E00C94CC190E94AE108823D1
:1015600061F08BE092E00E94B41081E090E00E9474
:10157000A51A892B11F40C94B110089580910A02D8
:10158000883039F460E08BE092E00E948C11109278
:101590000A020895CF93DF93D82FC92F0E94AD0A76
:1015A00080E090E00E94A51A892B09F5ED2FFC2F11
:1015B00080E090E0DC01AA0FBB1FA150BE4F2D912F
:1015C0003C912193319301968530910599F70E94C2
:1015D0005613882319F00E945A1301C080E08093AB
:1015E000FE0189E092E00E94E01581E001C080E008
:1015F000DF91CF910895CF93DF93D82FC92F0E9409
:10160000BE0AED2FFC2F80E090E021913191DC01AA
:10161000AA0FBB1FA150BE4F11963C932E9301966B
:101620008530910591F78091FE010E946F1489E049
:1016300092E0DF91CF910C94D715EF92FF920F9328
:101640001F93CF93DF93F62E472FE82FF0E0711111
:1016500006C0E65CFA4F6491762F862F72C0272F62
:1016600030E0E65CFA4FE4910E2F10E056E0659F03
:10167000C0011124CFEFD0E0BE010E94CD325BEA61
:101680005603C001579F900D11248F0D911D8F0D92
:10169000911D982F990F890F7E01E21AF30AE09E9F
:1016A000D001E19EB00DF09EB00D1124489FA00125
:1016B0001124452F55277E01E41AF50AE09EA0016A
:1016C000E19E500DF09E500D11247E01E81AF108A4
:1016D000E29EC001E39E900DF29E900D1124892F91
:1016E0009927C81BD90BC09FC001C19F900DD09FE7
:1016F000900D11246230710591F048F46115710567
:10170000E1F061307105A9F48B2F752F19C0643099
:10171000710561F038F06630710579F00AC0892FE3
:101720007B2F0EC08E2F7B2FE52F0AC08E2F792F97
:1017300002C0852F7E2FEB2F03C08B2F7E2FE92F2A
:101740006E2FDF91CF911F910F91FF90EF90089531
:101750000895EAE2F1E0808361830895CF93DF93F7
:10176000762FE901682F842F0E941D0B79836883EF
:101770008A83DF91CF91089580916A03282F26955F
:1017800030E02115310519F48170826005C02B32DB
:10179000310524F08170846580936A03089588E0A0
:1017A00090E00C94A833CF92DF92EF92FF926B01FE
:1017B0007C010E94BC0BB701A60188E090E0FF907D
:1017C000EF90DF90CF900C94C633EAE6F3E083E02D
:1017D000808311828FEF828383831482A0E7B2E03B
:1017E00012968C911297836012968C93608171810E
:1017F000828193810C94D30B80916A0380FF02C095
:101800008695089580E0089580916E03833018F4E2
:101810008F5F80936E0360916A0370916B03809178
:101820006C0390916D030C94D30B80916E0388230D
:1018300019F0815080936E0360916A0370916B037D
:1018400080916C0390916D030C94D30B70E00C9419
:10185000E114CF92DF92EF920F931F93CF93DF9318
:10186000CDB7DEB7E0970FB6F894DEBF0FBECDBFA1
:1018700060912B0180916A0380FF0AC0EAE2F5E0E3
:10188000AE014F5F5F4F8E010F5C1F4FCA0114C046
:1018900080912C0190912D01891780F7E82FF0E0BD
:1018A0009F01220F331FE20FF31FE159FC4F1182FA
:1018B000108212828F5FF0CF249130E0D901AA0FFD
:1018C000BB1F2A0F3B1FD901A159BC4FCD90DD9002
:1018D000EC90DA01CD92DD92ED92AD013196A01738
:1018E000B10751F720912A01B3E02B9F800D911D84
:1018F00011240E94260CE0960FB6F894DEBF0FBEAE
:10190000CDBFDF91CF911F910F91EF90DF90CF90DE
:10191000089590916A0390FF16C090912C01209138
:101920002D01921770F4E92FF0E0DF01AA0FBB1F21
:10193000EA0FFB1FE159FC4F8183608342839F5F65
:10194000F0CF0C94290C0895CF93DF9300D01F9211
:10195000CDB7DEB790916A0390FF0AC09E012F5F5A
:101960003F4F0E94AE0B4B8169818A810E94890C96
:101970000F900F900F90DF91CF910895CF93DF9349
:10198000EC01EC81F0E0EB5DFB4F4491EAE6F3E023
:10199000628181810E94A40C8C818F5F8C83DF9196
:1019A000CF910895CF93DF93EC01EAE6F3E0438112
:1019B00062818C810E94A40C8C818F5F8C83DF916B
:1019C000CF9108950F931F93CF93DF9300D01F9271
:1019D000CDB7DEB78C018091130281110AC09E0140
:1019E0002F5F3F4F4FEF6FEF0E94AE0B8A818093C6
:1019F0001302F8018481813051F028F0823061F4C3
:101A0000409113020AC08091130240E007C0609128
:101A1000130240E080E003C040E080E060E00E940C
:101A2000890CF801848190E0019663E070E00E94E7
:101A3000E13284830F900F900F90DF91CF911F912F
:101A40000F910895AF92BF92CF92DF92EF92FF92E3
:101A50000F931F93CF93DF9300D01F92CDB7DEB7C4
:101A6000182FF62E042FE22E90916A0390FF7EC06D
:101A7000E92FE695AE2FB0E0A557BE4F8C9180932D
:101A800070029E7F923061F49E012F5F3F4F812F45
:101A90000E94AE0B4B8169818A810E94890C43C0F0
:101AA000823019F400916D033EC0863019F4109114
:101AB0006B0339C08930D9F38931A9F5E9518E2FEB
:101AC0008170D82EE695F0E0EB5DFA4FA590B490CA
:101AD000C12CBB2460912E01C61618F52C2D30E0C8
:101AE000A29EC001A39E900DB29E900D112470E0A5
:101AF0000E94CD32812FD11002C0860F01C0861BFB
:101B000090912C01290F311DA901440F551F240F5D
:101B1000351F21593C4F402F6F2D0E94AE0BC394AF
:101B2000D9CF0E94290C80916B03181308C08091B3
:101B30006C03F81204C080916D03081729F080919E
:101B4000720282608093720210936B03F0926C03B6
:101B500000936D03EE2051F060916A0370916B0366
:101B600080916C0390916D030E94D30B0F900F90A6
:101B70000F90DF91CF911F910F91FF90EF90DF9029
:101B8000CF90BF90AF900895EAE6F3E09181282FBF
:101B90004381628188E0890F0C94220D81E00C94CE
:101BA000C40DEAE6F3E09181282F4381628188EF3A
:101BB000890F0C94220D81E00C94D10DEAE6F3E03C
:101BC000628121E1620F08F46FEF282F4381818148
:101BD0000C94220D81E00C94DE0DEAE6F3E06281C4
:101BE00021E1621B08F460E0282F438181810C947D
:101BF000220D81E00C94ED0DEAE6F3E0438121E152
:101C0000420F08F44FEF282F628181810C94220D3E
:101C100081E00C94FC0DEAE6F3E0438121E1421BF4
:101C200008F440E0282F628181810C94220D81E02C
:101C30000C940B0E21E00C94220D20E00C94220D4C
:101C4000FF920F931F93CF93DF93EC01F12C0FEFD3
:101C500010E060912E01F616F0F480912C012F2DEA
:101C600030E0280F311DC901880F991F280F391F37
:101C700021593C4F70E0C8010E94E132962F8C81BF
:101C800040916D0360916C03F99E800D11240E94B8
:101C9000AE0BF394DECF0E94290C9A818C8190FFC9
:101CA00002C08F5F01C081508C83DF91CF911F9163
:101CB0000F91FF9008959F92AF92BF92CF92DF92C3
:101CC000EF92FF920F931F93CF93DF93EC018A81E2
:101CD00080FF03C0BB24BA9402C0BB24B3948C81A0
:101CE00081110DC081E0B81206C080912E01815093
:101CF0008093150202C01092150281E08C83A12C02
:101D000080912E01A81608F041C080912C01CA2CA8
:101D1000D12C8601080F111DC801880F991F080FCB
:101D2000191F01591C4FF80111821082128234E0F0
:101D3000E32EF12C912C80911502890D813114F044
:101D40008F7005C087FF03C090912E01890F082E68
:101D5000000C990BC816D90691F480916D038E9DE5
:101D6000A0018F9D500D1124559547955595479588
:101D7000980160916C0380916B030E94AE0B9B0CE9
:101D8000F1E0EF1AF108B9F6A394BACF0E94290C3A
:101D90008091150291E0B9120EC0811107C08091A7
:101DA0002E018150809315021C820FC081508093B8
:101DB0001502BC820AC090E0019660912E0170E08D
:101DC0000E94E132809315028C83DF91CF911F91A5
:101DD0000F91FF90EF90DF90CF90BF90AF909F90CA
:101DE00008951F93CF93DF93EC018C81811109C07B
:101DF00081E08C831092140292E0909329018093E9
:101E0000280180912C0190912D01891770F4E82F01
:101E1000F0E09F01220F331FE20FF31FE159FC4F47
:101E20001182108212828F5FF0CF10E060912E013C
:101E30001617C0F5E12FF0E070E0CF010E94E1320B
:101E400020912C01820F20911402022E000C330BE2
:101E500090E0E217F307CCF020912901022E000C4C
:101E6000330B2E173F078CF09C01220F331F820F7C
:101E7000931F9C0121593C4F40916D0360916C036D
:101E800080916B030E94AE0B0BC0FC01EE0FFF1F95
:101E90008E0F9F1FFC01E159FC4F118210821282AC
:101EA0001F5FC4CF0E94290C809128012091140249
:101EB000280F2093140290912901980F90932901E3
:101EC00019165CF4022E000C330B40912E0150E0E9
:101ED000415051092417350734F08195809328012A
:101EE000813009F41C82DF91CF911F9108950F93E7
:101EF0001F93CF93DF938C01FC0184819581019620
:101F00008170992795838483C0E0D5E580912E0167
:101F1000C81700F580912C012C2F30E0280F311DBF
:101F2000C901880F991F280F391F21593C4F4C2F89
:101F30004695F80184819581840F911D81704091AF
:101F40006D0360916C038D9F802D11240E94AE0B58
:101F5000CF5FDCCFDF91CF911F910F910C94290CB3
:101F60000F931F93CF93DF93EC0100E010E080917B
:101F70002E01282F30E00217130724F590912C0131
:101F80009801290F311DA901440F551F240F351F3A
:101F900021593C4F869590E04C81081719071CF495
:101FA000442331F002C0411103C040916D0301C0D0
:101FB00040E060916C0380916B030E94AE0B0F5F59
:101FC0001F4FD5CF0E94290C8C8190E00196817023
:101FD00099278C83DF91CF911F910F9108958F9254
:101FE0009F92AF92BF92CF92DF92EF92FF920F93A8
:101FF0001F93CF93DF93FC01B280948081E08483B0
:1020000000E015E05BE4A52E88248394EE24EA9496
:10201000F12C7BE4C72ED12C80912E01081708F0FB
:102020008FC0C02FD0E01C9FF0011D9FF00D112428
:10203000E75EFD4F911003C01382128267C02381B7
:10204000222389F1215023833481332319F09A2DDF
:10205000921B01C0922F80916D031C9FF0011D9F68
:10206000F00D1124E75EFD4F899FC0011124B601D8
:102070000E94CD326283211104C0332311F01482F7
:10208000A38222E02B1508F441C01C9FF0011D9F84
:10209000F00D1124E75EFD4F80916B0380838091EA
:1020A0006C03818333C00E9483338230914074F586
:1020B00082E08B1530F40E948333B7010E94E13235
:1020C00002C080916B031C9FF0011D9FF00D112435
:1020D000E75EFD4F808322E02B1558F40E94833386
:1020E00020916C032695622F70E00E94E132820FEE
:1020F00002C080916C031C9FF0011D9FF00D112404
:10210000E75EFD4F81831282A382848280912C013D
:102110009E01280F311DC901880F991F280F391FF3
:1021200021593C4F1C9FF0011D9FF00D1124E75ECB
:10213000FD4F4281618180810E94AE0B0F5F6CCFA9
:10214000DF91CF911F910F91FF90EF90DF90CF9093
:10215000BF90AF909F908F900C94290C8091720249
:10216000089510927202089525E0EAE6F3E0DC019A
:1021700001900D922A95E1F7209170023091710241
:1021800040917202FC012583368347830895609154
:102190006A03669570E04BE050E08FE291E00E94A8
:1021A0009333892B19F481E0809371020E94A62851
:1021B00090936A0280936902809172028460809396
:1021C00072020895E0E7F2E01182828184608283E6
:1021D000089590916A0390FF3AC09170811102C0F6
:1021E000926006C08B3210F0946502C0880F982B65
:1021F00090936A03809172028160809372026623D9
:1022000051F060916A0370916B0380916C0390911F
:102210006D030E94D30B60916A03669570E04BE0FA
:1022200050E08FE291E00E949333892B19F00E94D5
:10223000E21002C00E94C71081E080936C024091BE
:102240006D0360916C0380916B030C941D0E0895D7
:10225000682F90916A03969581E0890F8B3208F080
:1022600081E00C94E91081E00C942811682F909182
:102270006A0396958FEF890F09F48AE20C94E910AE
:1022800081E00C94361161E00C94E910EAE6F3E089
:1022900080818160808386950C94431160E00C946A
:1022A000E910EAE6F3E080818E7F808360817181AE
:1022B000828193810E94D30B0E94E210E0E7F2E05A
:1022C0008281816082832FEF80E792E021508040FD
:1022D0009040E1F700C000000C94290C80916A0343
:1022E00080FD0C9451110C944611EAE6F3E08081D4
:1022F0008E7F80830E94E210E0E7F2E082818160BD
:1023000082832FEF80E792E0215080409040E1F7F8
:1023100000C000000C94290C1F93CF93DF93EC01B5
:10232000162F8F8180FF0FC0888180FF0AC08091A7
:102330006A03816080936A03888186950E94E91010
:1023400002C00E9475118F8181FF06C0212F4B8131
:102350006A8189810E94220D8F8182FF08C08E814F
:10236000882319F00E94C71002C00E94E2108F81DA
:1023700083FF03C081E080936C02DF91CF911F91B6
:10238000089580916F02811133C00E94212781112D
:1023900004C00E94C3270E94E50B0E94CF0B6093EC
:1023A0006A0370936B0380936C0390936D03809129
:1023B00072028360809372026E7F61F40E94E50B6B
:1023C0000E94CF0B60936A0370936B0380936C033E
:1023D00090936D030E94BC0B0E94E21080916A03EF
:1023E00080FF03C086950E944E1181E080936F02AA
:1023F0000895EF92FF920F931F93CF93DF938091F5
:102400007102882309F4C1C080917002E0916A03CF
:10241000E695E81BE0936B02823049F4F0E0EF5D53
:10242000FB4FE491CE2FD0E00EEB1CE059C086307C
:1024300049F4F0E0E25EFB4FE491CE2FD0E002EDF4
:102440001CE04EC0893051F4E695F0E0E55EFB4FAC
:10245000E491CE2FD0E000E21EE042C08F3051F474
:10246000E695F0E0E85EFB4FE491CE2FD0E00BE57F
:102470001EE036C0853149F4F0E0EB5EFB4FE4919D
:10248000CE2FD0E001EF1EE02BC08831D9F083328F
:1024900039F4E3E1F4E0C591D49102EE1CE020C0F0
:1024A0008432A9F08532C1F48E2F63E00E94C132DC
:1024B000E92FF0E0E05FFB4FE491CE2FD0E00FEE8C
:1024C0001FE00EC0C8EED3E007E71FE009C0C4EF6D
:1024D000D1E000EB1FE004C0C0EDD7E008EA1BE04C
:1024E00080916C02882389F010926C020E94A628C9
:1024F0009E0120953095820F931F90936A028093DE
:10250000690210926E0210926D02809169029091A0
:102510006A020E94B2288C179D07B8F180911802B8
:102520008823B1F010921802809116029091170240
:102530000E94B2288033954758F00E94A6289093B5
:102540001702809316028091720288608093720253
:10255000E0906D02F0906E02E0916902F0916A02E3
:10256000CE0FDF1FD0936A02C093690289E692E022
:10257000F801099580916D0290916E02892B29F4E2
:10258000EF2819F081E080931802DF91CF911F911D
:102590000F91FF90EF900895882311F0FA0101C088
:1025A000FB010994CF93DF93C82FD62F0E94FC0B19
:1025B0008C1740F00E94FC0B8D1720F4DF91CF9117
:1025C0000C9433118C2FDF91CF910C9443111F93F6
:1025D000CF93DF93FB011281111163C0EC010E94C4
:1025E0001D268272FE01E25CFC45E431F10508F033
:1025F00057C0EA5AFF4F0C9417330E946E1151C016
:1026000040E451E163E371E104C043E351E160E47C
:1026100071E10E94CC1245C04BED5DE06EEC7DE0B7
:10262000F8CF4EEC5DE06BED7DE0F3CF49EF5DE080
:102630006AEE7DE0EECF4AEE5DE069EF7DE0E9CF46
:1026400047E15EE068E07EE0E4CF48E05EE067E11D
:102650007EE0DFCF45E15CE064E07CE0DACF44E09F
:102660005CE065E17CE0D5CF81E017C065E082E009
:1026700010C068E086E00DC06EE089E00AC064E149
:102680008FE007C067E185E104C088E106C062E22F
:1026900089E10E94D21205C083E20E94431101C069
:1026A00011E0812FDF91CF911F91089580919F03B9
:1026B0008170089580919F038695869586950895EB
:1026C0000E942127811102C00E94C3270E94522725
:1026D00080939F03282F26952695269530E0243059
:1026E000310524F08770886180939F0380919F0358
:1026F00080FF04C086958695869501C080E00C9485
:102700006F1420919F03822F869586958695482F7A
:1027100050E04330510554F48F5F982F990F990F73
:10272000990F822F8770892B80939F0380919F033D
:10273000816080939F030E94562780919F03869516
:10274000869586950C946F1480919F03982F96958B
:1027500096959695A1F0915E990F990F990F8770B4
:10276000892B80939F03887F91E009F490E080910A
:102770009F0390FB80F980939F030E9456278091CE
:102780009F038695869586950C946F1480919F0380
:1027900080FD13C0816080939F03813019F489E02C
:1027A00080939F0380919F030E94562780919F03EF
:1027B0008695869586950C946F14089580919F0355
:1027C00080FF08C08E7F80939F030E94562780E081
:1027D0000C946F14089580919F0380FD0C94DE1378
:1027E0000C94C61390919F03892F869586958695A4
:1027F0008F5F8F719770843038F4880F880F880F3F
:10280000892B80939F0302C090939F0380919F0325
:10281000887F91E009F490E080919F0390FB80F91C
:1028200080939F030E94562780919F0386958695EB
:1028300086950C946F14843008F083E090919F0388
:102840009770282F220F220F220F922B90939F0315
:10285000987F21E009F420E090919F0320FB90F9FC
:1028600090939F030C946F140E941B1480919F03FC
:102870000C9456279C01FB018281882349F12D3B52
:10288000FCE53F07C9F040F42B3BECE53E0769F05F
:102890002C3B3C4561F008952F3B9CE5390791F0B6
:1028A00070F0203C3C4589F0089583E001C080E051
:1028B0000E94341480E008950E94A413FBCF0E946C
:1028C0008113F8CF0E94EB13F5CF0E94F213F2CFE1
:1028D00081E00895259A2D9808952D980895CF9216
:1028E000DF92EF92FF92CF93C82F843050F4811182
:1028F00009C0809180008F77809380000E946D14C2
:1029000006C0C3E0809180008068809380002C2FF7
:1029100030E0AFEFBFEF0E941D3323E030E040E036
:1029200050E00E94F532C9012C3764E1360728F4E3
:1029300069E070E00E94CD3229C0DA01C9018A50F5
:10294000974DAF4FBF4F6627782F892F9A2F25EFCE
:1029500038E241E050E00E94F53269017A01CA0193
:10296000B9010E94B1329B01AC01C701B6010E94BE
:10297000B132BB27A92F982F872F009721E0A207FC
:10298000B10511F0BC0102C06FEF7FEF70938900B9
:1029900060938800CF91FF90EF90DF90CF900895E3
:1029A00008950E946A1482E88093800089E18093F0
:1029B00081008FEF9FEF90938700809386000C94A7
:1029C00060136E9A2EB12F7B3EB130644FB7F894EE
:1029D000FC01CB01880F991F680F791F6E0F7F1FB5
:1029E000E617F70789F0819198E03EB9000000C032
:1029F00087FF2EB9880F000000C000C000C02EB9AC
:102A000000C09A9591F7ECCF4FBF8FE594E0019706
:102A1000F1F700C0000008950C9450048091170154
:102A2000882309F447C020913B01A22FA295AF70E3
:102A3000B0E091963C9191972F7081E090E0AC01CD
:102A4000022E01C0440F0A94EAF7542F5095352303
:102A500091963C93919792963C919297432B9296A4
:102A60004C93929740913A01E42FE295EF70F0E099
:102A700031A14F70042E01C0880F0A94EAF7982FF5
:102A80009095932391A392A1892B82A390968C91E8
:102A900090E002C0959587952A95E2F7817020A174
:102AA00030E002C0359527954A95E2F720FD09C030
:102AB00090E008C086E980933B0184E980933A0165
:102AC000B2CF92E0892B809378029091170181E038
:102AD000982790937402891B809373020895CF9373
:102AE000E09178025E2F550F550F20913B01E22FA8
:102AF000E295EF70F0E080A190E02F7002C0959514
:102B000087952A95E2F78170992740913A01E42F41
:102B1000E295EF70F0E020A130E04F7002C03595F3
:102B200027954A95E2F7F901E170FF2720FF02C0DF
:102B3000E2E0F0E0E82BF92BE52BE0937802C0917E
:102B40007402EF70F0E0EA54FE4F908180917702BA
:102B5000890F8093770284306CF0EC2F0C2E000CE0
:102B6000FF0BEB58FD4F80818F5F808360E08C2FDF
:102B70000E940C15809177028D3F6CF4EC2F0C2E87
:102B8000000CFF0BEB58FD4F80818150808361E08A
:102B90008C2F0E940C1580917702837887FF03C0E9
:102BA00081508C6F8F5F80937702CF910895E09171
:102BB0007402F0E0EB58FD4F2081FC012083089562
:102BC000FF920F931F93CF93DF93D09173020D2F3A
:102BD00010E00B581D4FFC01C081F8018081C81B1B
:102BE000FC2E1F1454F4FA94F80180818F5F8083C7
:102BF00060E08D2F0E940C15F4CF8C2FC7FD80E074
:102C0000C81BCC2351F0CF5FF801808181508083B5
:102C100061E08D2F0E940C15F4CFDF91CF911F91B1
:102C20000F91FF9008951F93CF93DF93811520ECB0
:102C30009207B8F0EC01D05C8091A403827211E09D
:102C400009F410E00E942D1B86958170181729F059
:102C5000CC0FCD2FCC1FDD0BD195CE018F779927CF
:102C600001C09058DF91CF911F91089597FF13C035
:102C7000FB012281222379F00E941316880F991FED
:102C8000880F991FFC01E45AFC4F6591759185915D
:102C900094910E94E31681E008958CE090E00E94F8
:102CA000A03390E0A0E0B0E08093A0039093A10354
:102CB000A093A203B093A30308956091A0038CE0B6
:102CC00090E00C94B4330E941D268093A4030E94CC
:102CD00030268091A003813071F048F0823081F07D
:102CE0008430A1F486EE0E94A01D88E10DC082EE22
:102CF0000E948E1C0BC088E193E00E94DB0406C09A
:102D000082EE0E948E1C87E50E94A01D8FE39CE945
:102D10000197F1F700C0000008958091A003813071
:102D200039F040F0823031F0843051F488E206C04E
:102D30008CE204C082EE0E94381D02C00E94A01DD9
:102D40008091A4030C942D26BF92CF92DF92EF9234
:102D5000FF920F931F93CF93DF936B017C01C7E02A
:102D6000D0E00CE110E0BB24B394D701C601002EE3
:102D700004C0B695A795979587950A94D2F78F705A
:102D800039F4B1100AC00E94FD050E94A01D05C0C3
:102D90000E94FD050E94A01DB12C2197045011092D
:102DA000CF3F8FEFD80729F0C430D105F4F6B12C0E
:102DB000DCCFDF91CF911F910F91FF90EF90DF90CB
:102DC000CF90BF900895CF92DF92EF92FF9261155E
:102DD000710521E18207910508F043C06115710575
:102DE00021E08207910520F02091A0032230C9F153
:102DF0006B017C010E946316C114D10481E0E806D6
:102E0000F10428F18091A003811121C021E0E21A90
:102E1000F108D701C60188279C7FAF70BB272AE045
:102E2000B695A795979587952A95D1F7BC01CD01C1
:102E300078528F4F9F4F0E94A41683E0D822EE2431
:102E4000FF24C701B60174528F4F9F4F02C0C701C4
:102E5000B6010E94A416FF90EF90DF90CF900C94E3
:102E60008D16FF90EF90DF90CF9008950F931F93F2
:102E7000CF93DF93EC018B01FB018281882361F00A
:102E80000E941D26CE01815E9C458530910520F46F
:102E90008093A0030E945D16B801CE01DF91CF910F
:102EA0001F910F910C9436160F931F93CF93DF93BE
:102EB000C62FD42F122FFC0182818823C9F0609382
:102EC0007B020E94A62890937A028093790280E286
:102ED0008C0F883008F057C0C77081E001C0880FA0
:102EE000CA95EAF7DF91CF911F910F910C94B31D12
:102EF00080917B02681330C08091790290917A02B0
:102F00000E94B228883C910538F500E20D0FCD17DC
:102F1000B9F080E28C0F883040F4C77081E001C0C6
:102F2000880FCA95EAF70E94BA1D083028F581E09B
:102F30009D2F977001C0880F9A95EAF70E94B31DE4
:102F4000812F0E94A01D0830F0F4D77081E001C0ED
:102F5000880FDA95EAF70AC080E28C0F883098F47F
:102F6000C77081E001C0880FCA95EAF7DF91CF9161
:102F70001F910F910C94BA1D812FDF91CF911F915A
:102F80000F910C94A01DDF91CF911F910F91089587
:102F90009C01CB01233F4CE53407F9F078F4283D40
:102FA000FCE53F07B9F0293D4CE5340711F1273D19
:102FB0003C4531F526E241EE61EE1EC0253FFCE5C1
:102FC0003F0799F070F0263F3C45D1F427E245EEEB
:102FD00066EE12C027E245EE0EC026E241EE60EE3C
:102FE0000BC027E245EE64EE07C026E241EE62EE3A
:102FF00003C028E241E065EE0E94541780E0089586
:10300000FC018281882319F010927B02089581E0EF
:103010000895CF93DF93EC01FB018281882309F4AB
:103020001FC1C230FCE5DF0708F41BC1C6319CE5B7
:10303000D90738F09E012A5F3C452930310508F058
:1030400010C10E9434279093AA038093A903C03132
:10305000ECE5DE0709F4C3C008F041C0C8308CE5D8
:10306000D80709F49AC0F0F4C430ECE5DE0709F49F
:1030700087C068F4C2308CE5D80709F477C0C33044
:10308000DC4509F0E3C08091A903826076C0C630B8
:10309000ECE5DE0709F46EC008F07BC08091A9035F
:1030A00088606BC0CC308CE5D80709F485C068F423
:1030B000CA30ECE5DE0709F474C008F079C00E945C
:1030C00051208091A903806858C0CE308CE5D80784
:1030D00009F476C008F07FC08091A9038BC0CB3F74
:1030E000ECE5DE0709F44FC018F5C3318CE5D807CD
:1030F00009F47DC078F4C131ECE5DE0709F473C052
:10310000C231DC4509F0A2C00E9451208091A90380
:103110008F7733C0C5318CE5D80709F472C008F445
:1031200086C0CA3FDC4509F091C08091AA033EC029
:10313000CF3FFCE5DF0709F45FC058F4CD3F9CE5C5
:10314000D90709F444C008F43FC08091AA03826003
:103150002DC0C130FDE5DF0709F475C008F45DC07E
:10316000C230DD4509F072C080E06EC08091A903D5
:10317000816003C08091A90380618093A90366C028
:103180008091A90311C08091AA0382608093AA0351
:103190005DC08091A9038062F0CF8091A903806413
:1031A000ECCF8091A90388608460E7CF8160EECF87
:1031B0008091A9038E7FE1CF8091A9038D7FDDCF20
:1031C0008091A903877FD9CF8091AA0318C08091ED
:1031D000AA038D7FDBCF8091A9038F7ECECF809114
:1031E000A9038F7DCACF8091A9038F7BC6CF809121
:1031F000A903877F8B7FC1CF8091AA038D7F8E7FAC
:10320000C5CF8091A90382FB222720F991E0922764
:1032100090FB82F990FB83F9B0CF8091AA03982F9D
:10322000909591708E7F892B90FB81F9AFCF0E9492
:1032300051208091A90387FB222720F991E0922752
:1032400090FB87F99ACF81E00E94C5278091A9035E
:103250009091AA030E9445270E94512080E001C05E
:1032600081E0DF91CF910895CF93DF9386319C4524
:1032700041F5EB010E941D26982F8A8120913C0187
:1032800030913D01882379F09A7A81E009F480E059
:1032900080937C02911102C069E201C065E3C9011B
:1032A0000E940C280AC080917C02811102C069E250
:1032B00001C065E3C9010E940E280E946E2680E0CD
:1032C00001C081E0DF91CF9108958EE1489B02C05B
:1032D0008150E1F7489BFECF0895589880E28A9587
:1032E000F1F7589A0895FC012AE02A95F1F790E049
:1032F00020E080E031E0261779F040E14A95F1F7CF
:10330000880F489B02C08160932700C0000040E105
:103310004A95F1F72F5FEFCF20E12A95F1F729B118
:1033200000C0000030E13A95F1F72170922720812A
:10333000920F90830895EF92FF920F931F93CF9374
:10334000DF931F92CDB7DEB719828C017C01E60EA8
:10335000F11C0E151F0559F00E94651968E0CE0199
:1033600001960E947319F80181938F01F2CF81E0D9
:103370009981911180E00F90DF91CF911F910F9172
:10338000FF90EF90089590937F0280937E02609368
:103390007D02509A589A089590937F0280937E02FE
:1033A00060937D025098589AE89AE9E6F0E08081AF
:1033B0008C7F80830895615091E001C0990F6A95D8
:1033C000EAF720E031E0992361F0492F482319F012
:1033D000589A232701C0589840E24A95F1F79695EC
:1033E000F2CF222311F0589A01C0589880E28A95B2
:1033F000F1F758980895FF920F931F93CF93DF939F
:10340000EC018C01060F111DC017D10741F0F99096
:103410000E946D1968E08F2D0E94DB19F5CFDF91B6
:10342000CF911F910F91FF9008951F920F920FB6A9
:103430000F9211240F931F932F933F934F935F93FA
:103440006F937F938F939F93AF93BF93EF93FF936C
:10345000CF93DF931F92CDB7DEB719820E94651913
:1034600067E0CE0101960E947319382F3695369584
:103470003695932F96959570232F2570920F292FAF
:103480002370969596958770920F891348C089810D
:10349000811145C080917D02831708F440C080E10E
:1034A0008A95F1F7589A509AA2E0AA95F1F700C0D0
:1034B00000917E0210917F02B8E03B9F000D111D2C
:1034C00011245898F8016581662321F0868197813F
:1034D0000E94FB190E946D19F0E1FA95F1F75898D6
:1034E0005098589A80E18A95F1F7D80112966C911C
:1034F0001297662369F013968D919C9114970E9400
:103500009B19D801ED91FC91811105C082E004C0A6
:10351000D801ED91FC9188E080830E9465190F909D
:10352000DF91CF91FF91EF91BF91AF919F918F91DB
:103530007F916F915F914F913F912F911F910F91CB
:103540000F900FBE0F901F9018950F931F93CF935E
:10355000DF9320917D0230E0281739070CF471C009
:103560009C0193E0220F331F9A95E1F7C0917E02F0
:10357000D0917F02C20FD31FF894509A589845E01B
:103580004A95F1F70000982F969595708570890FF0
:10359000982F937086958695890F8901082B0E9434
:1035A0006D1984E08A95F1F700C067E0802F0E94D2
:1035B000DB1940E14A95F1F75098589A489902C0B2
:1035C00000C0FCCF87E090E0489B0EC0019751F40B
:1035D000509A589AE881F98181E08083789481E05B
:1035E00090E031C000C0F0CF6D81662381F08E8104
:1035F0009F810E949B1981110AC0509A589AE881B4
:10360000F98182E08083789482E090E01CC00E947F
:10361000651980E28A95F1F75898509A40E14A95E9
:10362000F1F76A81662321F08B819C810E94FB194E
:103630000E946D19E881F9811082789480E090E011
:1036400002C084E090E0DF91CF911F910F91089527
:1036500090938502809384020895E0918402F09112
:103660008502309721F00190F081E02D099480E0EF
:103670000895E0918402F0918502309721F0028054
:10368000F381E02D09940895E0918402F091850280
:10369000309739F022E0DC012C930480F581E02D95
:1036A00009940895209182023091830228173907E6
:1036B00071F09093830280938202E0918402F091F2
:1036C0008502309721F00680F781E02D0994089556
:1036D00020918002309181022817390771F0909370
:1036E000810280938002E0918402F09185023097FC
:1036F00021F00084F185E02D0994089585B7806854
:1037000085BF85B7806885BF089508950C94851B93
:103710000C94861B0C94851B0C94851B0E947E1BAD
:103720000E948A1B0C94881B0C94690A0E949D2895
:103730000E949C080E940B290E9460130E94C111E4
:103740000E940E150C948C1B7F928F929F92AF92C9
:10375000BF92CF92DF92EF92FF920F931F93CF937E
:10376000DF93CDB7DEB72A970FB6F894DEBF0FBE52
:10377000CDBF0E947B090E94941B811111C08FEF65
:1037800089838A831B820E94A6288160782F9D836B
:103790008C8349815A816B818D810E945A1C4FC054
:1037A00047E8A42E42E0B42E00E010E0702E802FF7
:1037B0000E9486086C01F501819091905F01882636
:1037C00099268114910431F40F5F1F4F0A301105BF
:1037D00069F7D5CF8091250381FD0E948F0880E095
:1037E000EE24E394F12C94012E213F21232B09F1A7
:1037F0008E837F82CE20DF2081E0CD2809F480E017
:1038000088870E94A6288160782F9A8789874E81B1
:103810005F8168858A850E945A1C000F111FF8017C
:10382000E957FD4F80819181E826F926F182E082F7
:1038300006C08F5FEE0CFF1C8930A9F6C5CF0E9431
:10384000F9110E94D0140E946F150E949D2A0E94B7
:103850002D1B909186028917C9F00E942D1B809321
:1038600086022A960FB6F894DEBF0FBECDBFDF9159
:10387000CF911F910F91FF90EF90DF90CF90BF906D
:10388000AF909F908F907F900C9410062A960FB661
:10389000F894DEBF0FBECDBFDF91CF911F910F9186
:1038A000FF90EF90DF90CF90BF90AF909F908F9060
:1038B0007F900895CF93DF93CDB7DEB72B970FB6E8
:1038C000F894DEBF0FBECDBF4F83588769877A87D4
:1038D0008B87DE01119686E0FD0111928A95E9F74A
:1038E00085E0FE01379601900D928A95E1F74981B6
:1038F0005A816B817C818D819E810E940A232B9647
:103900000FB6F894DEBF0FBECDBFDF91CF91089503
:10391000FC01808191810E94DE250895CF93882348
:1039200009F4A4C0C82F8238C1F40E942D1B81FD68
:103930009DC069E380913C0190913D010E940C285B
:103940000E946E262FEF81EE94E02150804090403F
:10395000E1F700C0000069E319C0833801F50E9457
:103960002D1B80FD83C063E580913C0190913D015A
:103970000E940C280E946E262FEF81EE94E02150C9
:1039800080409040E1F700C0000063E580913C0179
:1039900090913D010E940E28CF910C946E268438A0
:1039A000C1F40E942D1B82FD61C067E480913C013F
:1039B00090913D010E940C280E946E262FEF81EE0F
:1039C00094E0215080409040E1F700C0000067E49F
:1039D000DDCF8CEF8C0F813AD0F46C2F80913C01BD
:1039E00090913D010E94D627882349F06C2F809149
:1039F0003C0190913D010E940E280E946E266C2F82
:103A000080913C0190913D010E940C28C5CF80E23D
:103A10008C0F883048F4C77081E001C0880FCA95C8
:103A2000EAF70E942026B8CFEBE5EC0FE33040F434
:103A3000F0E0EC50FE4F808190E0CF910C94521B4F
:103A4000E8E5EC0FE73150F4F0E0EE0FFF1FEA532A
:103A5000FE4F80819181CF910C94681BC03F30F064
:103A60008C2F0E94A529CF910C94922ACF91089572
:103A7000882309F464C0823879F40E942D1B81FFE9
:103A80005EC069E380913C0190913D010E940C2849
:103A90000E946E2669E310C08338B1F40E942D1B8A
:103AA00080FF4DC063E580913C0190913D010E94F3
:103AB0000C280E946E2663E580913C0190913D01A7
:103AC0000E940E280C946E26843879F40E942D1BD7
:103AD00082FF35C067E480913C0190913D010E94D6
:103AE0000C280E946E2667E4E7CF9CEF980F913A6E
:103AF00010F4682FE1CF90E2980F983050F487705F
:103B000091E001C0990F8A95EAF7892F0E94262635
:103B1000D9CF9BE5980F933020F480E090E00C948F
:103B2000521B98E5980F973120F480E090E00C94B8
:103B3000681B803F20F00E940D2A0C94922A089561
:103B4000CF93C82F0E948E1CC93349F42FEF87EE04
:103B500093E0215080409040E1F700C000008C2F9E
:103B6000CF910C94381D882321F00E9420260C94BC
:103B70006E260895882321F00E9426260C946E2636
:103B80000895CF92DF92EF92FF920F931F93CF93FE
:103B9000DF937C01062FC72FFC01158112951F7042
:103BA000D281D1110E9440260E941626882399F0C6
:103BB000DD2389F08C2F807F803421F080E2800F1C
:103BC000883048F082E00E94B8260E94162691E0D4
:103BD000D82ED92601C0D12CCC2EC2948FE0C82279
:103BE0008C2D90E0FC01E659FF4F0C9417338C2F7D
:103BF000807FCF70882311F0C295C07FDD2399F0BC
:103C0000CC2309F48DC180E2800F883010F00111BF
:103C100004C08C2F0E94202603C08C2F0E943326C4
:103C20000E946E267DC1802F0E94381DCC2309F48E
:103C30009CC180E2800F883010F0011104C08C2FED
:103C40000E94262603C08C2F0E9439260E946E26D1
:103C50008CC18C2F807FCF70803211F0C295C07FD5
:103C6000002319F00130C9F022C0DD2371F01123C7
:103C700041F0113031F40E9453268C2B0E945B26B8
:103C800074C10E9453268C2B1DC0112319F01130D2
:103C900009F46BC10E94642625C0DD2321F0163093
:103CA00008F063C10EC0153008F05FC11BC0DD23F2
:103CB00061F0112331F0F701858180FF31C18F70F0
:103CC00085838C2F0E94B31D50C1112359F00933F5
:103CD00009F037C1FFEF27EE83E0F150204080402C
:103CE000E1F72DC18C2F0E94BA1D3FC18C2F869504
:103CF0008695837019F0813061F037C1DD2321F0A2
:103D0000802F9C2F937002C080E090E00E94521B95
:103D100034C1DD2321F0802F9C2F937002C080E0FE
:103D200090E00E94681B29C1802FDD2319F00E94BA
:103D3000A52902C00E940D2A0E94922A1EC18C2F22
:103D4000837009F045C0D11114C1402F42954695AA
:103D50004770440F440F602F6F70862F90E0A0E0F3
:103D6000B0E0042E04C0880F991FAA1FBB1F0A943D
:103D7000D2F704FF10C00FE010E020E030E004C0F4
:103D8000000F111F221F331F4A95D2F7009510957F
:103D90002095309503C000E010E09801C695C695C7
:103DA000C370BC01CD01602B712B822B932BC230D1
:103DB00049F058F4C13019F00E945B24DAC00E9427
:103DC0004924D7C00E946D24D4C00E944724D1C08A
:103DD000DD2319F08C2F817001C08695882309F4AA
:103DE000C8C0402F429546954770440F440F602F3E
:103DF0006F70862F90E0A0E0B0E0042E04C0880F22
:103E0000991FAA1FBB1F0A94D2F704FF10C00FE02E
:103E100010E020E030E004C0000F111F221F331F0C
:103E20004A95D2F7009510952095309503C000E093
:103E300010E09801C695C695C370BC01CD01602BFA
:103E4000712B822B932BC23049F058F4C13019F0FA
:103E50000E9420258EC00E940E258BC00E94322514
:103E600088C00E94812485C0CF70DD2339F08C2F5B
:103E70000E94A724802F0E94B31D7BC0802F0E9428
:103E8000BA1D8C2F0E94C82474C0023F01F128F48F
:103E9000003F41F0013FA1F03FC0033FF9F0043F74
:103EA00039F13AC0DD2341F0153008F05EC08C2FA7
:103EB0008F710E94ED2459C0163008F056C0F7CF1C
:103EC000DD2339F08C2F8F710E94A7244EC0DD2393
:103ED000C9F38C2F8F710E94C82447C0DD2329F0BD
:103EE0008C2F8F710E94922440C00E948D243DC06F
:103EF000DD2349F0CF718C2F0E94A72463E08C2F23
:103F00000E94A32632C081E00E94B826123068F1D8
:103F100082E00E94B82629C0DD2331F0112391F2FE
:103F2000802F0E948E1C21C0112399F2093349F47D
:103F30009FEFE7EEF3E09150E040F040E1F700C082
:103F40000000802F0E94381D10C04C2F4F70602F32
:103F5000C7010E9478060E94B8230FC04C2F4F70F3
:103F6000602FC7010E947B0608C088EF8C0D84304B
:103F700020F40E942D1B0E941006DD20C9F00E9433
:103F8000122680FD15C0F70112820E940C260E94A5
:103F9000A724C7010E94F91F0E940C26DF91CF9130
:103FA0001F910F91FF90EF90DF90CF900C94C82459
:103FB000DF91CF911F910F91FF90EF90DF90CF9005
:103FC00008950F931F93CF93DF93EC01688179815C
:103FD0008A810E94E9258C010E9444250E94352493
:103FE000B801CE010E94C11DDF91CF911F910F91A9
:103FF0000895CF93DF93EC01988189812B813C81D7
:10400000232B31F08F3F31F481E09F3F19F403C03F
:1040100081E001C080E080FD19C0CE010E94290628
:1040200081110CC00E941626882381F08A81882382
:1040300069F082E0DF91CF910C94B826CE010E9406
:10404000E11FCE01DF91CF910C942805DF91CF9134
:104050000895882321F00E9433260C946E2608953B
:10406000882321F00E9439260C946E2608950E9420
:1040700040260E9450260E946E260E94BC2B0E9461
:10408000922A80E090E00E94521B80E090E00C9425
:10409000681B80913C0190913D010E9410280C9476
:1040A00037200E9430260C944920E92FE295EF70CA
:1040B0004E2F50E0FA013297EE30F105B0F4E65899
:1040C000FF4F0C941733803F91F018F4883E68F44A
:1040D0000EC0843F51F40BC0883E48F0813F29F464
:1040E00006C093FB882780F9089580E0089581E059
:1040F00008950E94DE250E9455200895CF93DF93F6
:1041000000D000D01F92CDB7DEB70F900F900F9068
:104110000F900F90DF91CF910895CF93DF9300D050
:1041200000D000D0CDB7DEB726960FB6F894DEBF2C
:104130000FBECDBFDF91CF9108951F93CF93DF9333
:10414000C0919C0216E080919D02C81799F0D0E0C2
:104150001C9FF0011D9FF00D1124E256FD4F408180
:10416000518162817381848195810E948D20219685
:10417000C770E9CFDF91CF911F9108954091CE0292
:104180005091CF026091D0027091D1028091D20201
:104190009091D3020C948D200F931F93CF93DF93B4
:1041A0008091D30282958F7009F05DC08091D0021A
:1041B000882309F458C080919C0210919D0260915F
:1041C000CE027091CF02C091D102D091D20291E083
:1041D0006F3F09F090E0292F06E0811709F443C0F2
:1041E000209721F07F3F21F030E003C031E001C093
:1041F000322F90E030FD34C0089FF001099FF00D90
:104200001124DF01A256BD4F11963C91119737132F
:1042100027C03C91361324C012963C91129731115D
:104220001FC013964D915C9114974C1B5D0B483C3D
:104230005105B0F48091D3028F7080618093D302D6
:10424000ED55FD4F80818F70806180838EEC92E010
:104250000E94F91FDF91CF911F910F910C949D2027
:1042600001968770BACFDF91CF911F910F9108957A
:104270009F92AF92BF92CF92DF92EF92FF920F93F5
:104280001F93CF93DF93CDB7DEB761970FB6F89446
:10429000DEBF0FBECDBF8C0185E0F801DE011D96AB
:1042A00001900D928A95E1F7F80140815181E280F9
:1042B0009091CE026091CF022091D1023091D20232
:1042C0002115310531F06F3F31F481E09F3F19F442
:1042D00003C081E001C080E0F82FF1709F2E80FDC7
:1042E00046C1F801A380B4808EECC82E82E0D82E9F
:1042F000F090D002F501E21BF30BFF2009F4DFC0C0
:104300008091D302E83CF10508F09BC0282F207F64
:1043100009F052C0561313C0491311C0FE2CE1100E
:104320000EC08F7080618093D3020E94BE20C601B0
:104330000E94F91F8091D302F801858358C1AB28F0
:1043400031F05F3F31F481E04F3F19F403C081E069
:1043500001C080E080FD03C081E08E2502C080E0C6
:1043600090E0F82FF170FF2E80FF1CC080919C021E
:1043700020919D0236E0821709F417C190E0389F22
:10438000F001399FF00D1124E256FD4F6181561363
:1043900006C06081461303C06281E61203C0019625
:1043A0008770E9CFFE2CEE2009F421C18091D30261
:1043B00081608093D3025AC0561306C0491304C0CB
:1043C000E11002C0F8019FC04D875E878D859E85F4
:1043D0000E947920882379F1EE2069F12091D3029F
:1043E000822F82958F7090E0029774F08091CE02B8
:1043F0009091CF0298878F831986BB86AA862C87D7
:10440000CE0107960E94F91F86E0F801AEECB2E0FB
:1044100001900D928A95E1F70E94CC200E94BE2067
:104420000DC0561729F14D875E878D859E850E94A8
:10443000792081112CC0C8010E94F91FFF24F39438
:10444000D6C0282F207F69F77A2DB98AA88A6E2DC9
:1044500089890E947E208EEC92E00E94F91F86E0FE
:10446000F60111928A95E9F70E94BE20F12CBFC097
:104470004913D9CFE110D7CFF8018583C8010E9435
:10448000F91F86E0F60111928A95E9F7B0C0EE2097
:1044900091F22091D302822F82958F7090E0029743
:1044A0000CF4B2CF8091CE029091CF029A8389838F
:1044B0001B82BD82AC822E83CE010196A3CFE83C45
:1044C000F10508F047C0FE2CEE2009F4B4CF5613D6
:1044D00030C049132EC02091D30220FD21C0822F6D
:1044E00082958F70482F50E041155105C9F0F801B1
:1044F00025834F30510541F08F5F982F9295907F23
:10450000822F8F70892B8583C8010E94F91F86E056
:10451000F801AEECB2E001900D928A95E1F742C04D
:1045200086E0F801AEECB2E001900D928A95E1F7D9
:104530005EC04D875E878D859E850E9479208111A2
:1045400063CF8091D30281608093D302C8010E941F
:10455000F91F4DC07A2DB98AA88A6E2D89890E94CB
:104560007E2086E0F60111928A95E9F71BC0EE20C5
:1045700009F461CF4D875E878D859E850E947920E5
:10458000F82E882309F457CF86E0F801AEECB2E0AC
:1045900001900D928A95E1F78EEC92E00E94881CC2
:1045A0000E94CC200E94BE2022C04D875E878D8550
:1045B0009E850E94DE25292F22952F70223028F417
:1045C0009F7039F0811105C00BC0243028F49F7012
:1045D00049F4805E883020F0C8010E94F91F9F2CAA
:1045E000F92C05C0F8019581907F99F7F9CF8F2DAF
:1045F00061960FB6F894DEBF0FBECDBFDF91CF91AD
:104600001F910F91FF90EF90DF90CF90BF90AF90F0
:104610009F9008951F93CF93DF93CDB7DEB72C976C
:104620000FB6F894DEBF0FBECDBF4F8358876987A2
:104630007A878B879C87CE0107960E943821882332
:10464000D1F09F8188852A853B85232B31F08F3FD0
:1046500031F481E09F3F19F403C081E001C080E0A4
:1046600080FD47C04F81588569857A858B859C85FB
:104670000E948D203EC086E0FE013796DE01119635
:1046800001900D928A95E1F7FF81E8856A857B8527
:104690006115710531F0EF3F31F481E0FF3F19F40E
:1046A00003C081E001C080E080FD23C020919D0215
:1046B00030E0C90101968770992740919C0250E033
:1046C00084179507F1F1F983EA837D836C8396E083
:1046D000929FD001939FB00D1124A256BD4FFE01B1
:1046E000319601900D929A95E1F780939D020E9478
:1046F0009D2016E080919C0290919D02891771F196
:10470000189FC001112482569D4F0E943821882392
:1047100029F1E0919C021E9FF0011124E256FD4F09
:104720004081518162817381848195810E948D20B5
:1047300080919C0290E001968770992780939C025B
:10474000D9CF0E94512010929D0210929C02EEEC53
:10475000F2E086E0DF011D928A95E9F72C960FB60C
:10476000F894DEBF0FBECDBFDF91CF911F910895AA
:10477000EF92FF920F931F93CF93DF938C01892BBE
:1047800009F46CC0F12CEE24E394E8012196F801C1
:104790008491843740F4843008F051C0813081F036
:1047A000823019F15BC0853709F444C0A8F19CE759
:1047B000980F903708F052C08F770E94381D41C083
:1047C0000E5F1F4FFE01849190E2980F983050F4D5
:1047D0008770FE2D01C0FF0F8A95EAF78F2F0E9488
:1047E000432614C00E948E1C2DC00E5F1F4FFE0179
:1047F000849190E2980F983060F48770FE2D01C08C
:10480000FF0F8A95EAF78F2F0E9449260E946E2695
:1048100019C00E94381D16C00E5F1F4FFE01C491C3
:10482000CC2381F08FE99FE00197F1F700C00000F1
:10483000C150F6CF0E5F1F4FFE01F49003C00E94DF
:104840008E1C8E018F2D882309F49FCFEFE9FFE0A6
:104850003197F1F700C000008150F5CFDF91CF9183
:104860001F910F91FF90EF900895089508950C9473
:1048700036240C9437240E943924609314037093D7
:10488000150380931603909317030C9437200C9410
:104890003B240F931F930091140310911503209153
:1048A000160330911703602B712B822B932B1F91D2
:1048B0000F910C943B240F931F93009114031091BC
:1048C000150320911603309117036023712382236F
:1048D00093231F910F910C943B240F931F930091EE
:1048E00014031091150320911603309117036027CC
:1048F0007127822793271F910F910C943B240C94CE
:1049000036240E947F2460931003709311038093D8
:104910001203909313030C94372060E070E0CB01F6
:104920000C9481240F931F9341E050E060E070E00D
:104930008A019B0104C0000F111F221F331F8A959B
:10494000D2F7C901B8011F910F910C9481240F93E4
:104950001F9341E050E060E070E004C0440F551F39
:10496000661F771F8A95D2F78091100390911103EB
:10497000A0911203B09113038A019B01082B192BFC
:104980002A2B3B2BC901B8011F910F910C94812454
:104990000F931F9341E050E060E070E004C0440FCB
:1049A000551F661F771F8A95D2F7409550956095E1
:1049B00070958091100390911103A0911203B09112
:1049C00013038A019B01082319232A233B23C901CE
:1049D000B8011F910F910C9481240F931F9341E014
:1049E00050E060E070E004C0440F551F661F771F61
:1049F0008A95D2F78091100390911103A091120330
:104A0000B09113038A019B01082719272A273B2706
:104A1000C901B8011F910F910C9481240F931F932A
:104A20000091100310911103209112033091130390
:104A3000602B712B822B932B1F910F910C9481244F
:104A40000F931F93009110031091110320911203F3
:104A50003091130360237123822393231F910F91BD
:104A60000C9481240F931F93009110031091110354
:104A70002091120330911303602771278227932717
:104A80001F910F910C948124089529E0929F800D2D
:104A90001124E82FE695E695E695877051E001C070
:104AA000550F8A95EAF785E0E89FF0011124EC5252
:104AB000FD4F20E030E070E04081CB01022E02C0CB
:104AC000969587950A94E2F78170819584278523CE
:104AD000842781932F5F3F4F2530310569F7089573
:104AE00029E0929F800D1124682F66956695669542
:104AF000982F977085E0689FB001112440E050E046
:104B000080E0FB01E40FF51FEC52FD4F208130E007
:104B1000092E02C0369527950A94E2F721703327B3
:104B2000042E01C0220F0A94EAF7822B4F5F5F4FD9
:104B30004530510531F70895BF92CF92DF92EF9241
:104B4000FF920F931F93CF93DF938C01C0901003BC
:104B5000D0901103E0901203F0901303809114039E
:104B600090911503A0911603B0911703C82AD92A72
:104B7000EA2AFB2ACFE1D0E0D701C6010C2E04C0FF
:104B8000B695A795979587950A94D2F780FD04C0AE
:104B9000219790F7B12C07C0BC2EB8018C2F0E9432
:104BA00097060197A9F38B2DDF91CF911F910F915C
:104BB000FF90EF90DF90CF90BF900895CF93DF9359
:104BC000EC010E949C25BE010E949706DF91CF91C7
:104BD00008951F93CF93DF93EB0190919B0299234C
:104BE00021F0CB010E94DE2513C0882349F0CB01C0
:104BF0000E949C25182F682FCE010E94452504C0D5
:104C0000CB010E947025182FBE01812F0E949706AC
:104C1000DF91CF911F910895809118038595859517
:104C200085950895809118038770089590911803D1
:104C3000977081E009F480E008958091240308953D
:104C400090912403892B809324030895809590915B
:104C500024038923809324030895809324030895D3
:104C600010922403089590912303892B80932303AA
:104C700008958095909123038923809323030895B9
:104C800010922303089590912203892B809322038D
:104C9000089580959091220389238093220308959B
:104CA00010922203089580911903089508950C9499
:104CB00056260C94572690911903981721F080934B
:104CC00019030C945926089580911903882329F01B
:104CD0001092190380E00C9459260895E0913C014C
:104CE000F0913D01809124038083E0913C01F0919B
:104CF0003D01908180912303892B8083E0913C01C9
:104D0000F0913D01908180912203892B80838091D5
:104D10001903882381F0E0913C01F0913D019081DD
:104D2000892B808380913C0190913D010E94CA278C
:104D300081110E94642680913C0190913D010C9468
:104D4000391B0C94562698E0899F90011124262B3C
:104D5000209318030E94A7248091180385958595B8
:104D600085950C94A1261092180380E00C94A1263E
:104D7000209118038095822380931803982F9770B1
:104D800079F430E0482F082E000C550B2417350716
:104D900039F08595859585950E94C8240C94B32695
:104DA0000895CF92DF92EF92FF926C01EE24FF24E0
:104DB000C114D104E104F10421F0C701B60120E1DE
:104DC00001C020E0C72ED82EE92EFF24C114D10443
:104DD000E104F10419F0285FC701B6016B017C0101
:104DE00054E0F694E794D794C7945A95D1F7C11438
:104DF000D104E104F10419F02C5FC701B6016B0185
:104E00007C0142E0F694E794D794C7944A95D1F791
:104E1000C114D104E104F10419F02E5FC701B601F9
:104E2000DC01CB01B695A79597958795892B8A2BA1
:104E30008B2B09F02F5F822FFF90EF90DF90CF90A8
:104E4000089580E090E00E94AE3321E08C3E9E4FBA
:104E500009F020E0822F089582E090E00C94A033C6
:104E600083E090E00C94A033CF9384E090E00E9424
:104E7000A033C82F81E290E00E94A0332C2F30E0B5
:104E8000A901582BCA01CF910895CF93C92F682F3C
:104E900084E090E00E94B4336C2F81E290E0CF91E7
:104EA0000C94B43386E090E00C94A033682F86E035
:104EB00090E00C94B433AB01BC018FE090E00C9413
:104EC000C633AB01BC0183E190E00C94C63360E0D3
:104ED00070E0CB010C9461276CEE7EEF80E090E0F7
:104EE0000E94D23360E082E090E00E94B43360E040
:104EF00083E090E00E94B4331092140310921503E3
:104F0000109216031092170360E084E090E00E9474
:104F1000B43360E081E290E00E94B43360E085E069
:104F200090E00E94B43360E086E090E00E94B433E9
:104F30006FEF87E090E00E94B43340E050E0BA01A8
:104F400088E090E00E94C63360E08DE090E00E942F
:104F5000B43340E050E0BA0188E190E00E94C633EB
:104F600060E087E190E00E94B43340E050E0BA0195
:104F70008CE190E00E94C63360E080E290E00E9405
:104F8000B4330C9421040C946C27682F8EE090E0CD
:104F90000C94B433FC01329697E080E0915029F0F4
:104FA00021912223D9F38F5FF9CF0895662349F029
:104FB000FC01329608962191621729F0E817F9074B
:104FC000D1F780E0089581E008959C01FC013296BC
:104FD0009FEF80E04191461789F09F3F19F44111FE
:104FE00001C0982F8F5F8630A9F79F3F39F0F901F4
:104FF000E90FF11D97FDFA956283089508959C01CC
:105000002A5F3F4FFC014281461301C01282019684
:1050100082179307B9F708950C94E5270C94FF279E
:10502000029626E0FC0111922A95E9F70895089569
:105030000C9417280C941728CF930E941A280E94CA
:105040007B090E941828C0E08C2F0E948608892BBB
:1050500029F4CF5FCA30C1F780E001C081E0CF9171
:1050600008950C9417280C9431280E9433288091BD
:10507000AF03843061F11092260320E488E190E0D0
:105080000FB6F894A895809360000FBE209360003F
:1050900080E00E946F1480E00E9410060E94332876
:1050A00083B7817F846083BF83B7816083BF789437
:1050B000889583B78E7F83BF0FB6F894A8958091AB
:1050C0006000886180936000109260000FBE0895B8
:1050D0000C9417280E9451200E9460130E942D1BDF
:1050E0000E9410060C9468281F920F920FB60F9220
:1050F00011248F939F93AF93BF93809126038111C7
:1051000013C08091A5039091A603A091A703B0912D
:10511000A8034196A11DB11D8093A5039093A603FA
:10512000A093A703B093A803BF91AF919F918F91D4
:105130000F900FBE0F901F90189582E084BD93E0F2
:1051400095BD9AEF97BD80936E0008952FB7F894A0
:105150008091A5039091A603A091A703B091A80305
:105160002FBF08959C014FB7F8948091A5039091AB
:10517000A603A091A703B091A8034FBF821B930B76
:10518000089578941F920F920FB60F9211248F9367
:105190009F93AF93BF938091A5039091A603A09195
:1051A000A703B091A8030196A11DB11D8093A5038B
:1051B0009093A603A093A703B093A803BF91AF91C8
:1051C0009F918F910F900FBE0F901F90189581E0C7
:1051D0008093E00080E28093D8001092C9008FE1B4
:1051E0009EE40197F1F700C0000087E090EBDC013E
:1051F0008093B8039093B903A093BA03B093BB0311
:105200009CE088E10FB6F894A895809360000FBEEB
:1052100090936000FFCF0E942127811102C00E945D
:10522000C3270E942C27809325030E943427909344
:10523000AA038093A9030E943027682F70E080E0C2
:1052400090E00C94472480912E0380FF0BC0609166
:10525000430185E0689FB0011124759567957595A8
:1052600067952BC081FF09C06091430185E0689F6D
:10527000B00111247595679520C082FF07C0609129
:10528000430185E0689FB001112417C090912D0360
:105290009923D1F060914201961788F7209143013C
:1052A00085E0289F90011124929FA001939F500DAB
:1052B000112470E0CA010E94E1326038710540F4A7
:1052C0006115710519F406C065E070E0862F089538
:1052D0008FE7089581E0089580912E0380FF08C034
:1052E00060913F0170E0759567957595679521C050
:1052F00081FF06C060913F0170E07595679519C008
:1053000082FF04C060913F0170E010C090912D03B6
:10531000992399F060913E019617A0F780913F0183
:10532000899FC001112470E00E94E132603871054C
:1053300040F46115710519F406C061E070E0862F34
:1053400008958FE7089581E00895803F21F40E9439
:105350002329819504C0813F29F40E942329809349
:1053600032030895823F21F40E942329819504C0CD
:10537000833F29F40E942329809331030895893FB4
:1053800019F40E946C2905C08A3F31F40E946C29EF
:1053900081958093330308958B3F21F40E946C29FB
:1053A000819504C08C3F29F40E946C2980933403BA
:1053B0000895843F21F480913003816017C0853FB8
:1053C00021F480913003826011C0863F21F48091E6
:1053D000300384600BC0873F21F4809130038860E4
:1053E00005C0883F31F480913003806180933003A1
:1053F00008958D3F21F480912E0381600BC08E3F74
:1054000021F480912E03826005C08F3F29F48091A2
:105410002E03846080932E030895803F39F4809199
:10542000320387FF6CC01092320369C0813F29F4B8
:10543000809132031816BCF362C090913103823F11
:1054400029F497FF5CC01092310359C0833F19F4CF
:105450001916CCF354C0893F41F4809133031816D8
:105460000CF04DC0109233034AC08A3F29F480915A
:10547000330387FF44C0F6CF8B3F39F48091340368
:1054800087FF3DC0109234033AC08C3F29F48091CD
:1054900034031816BCF333C0843F21F480913003E9
:1054A0008E7F17C0853F21F4809130038D7F11C01E
:1054B000863F21F4809130038B7F0BC0873F21F41E
:1054C00080913003877F05C0883F31F4809130039D
:1054D0008F7E8093300313C08D3F21F480912E0383
:1054E0008E7F0BC08E3F21F480912E038D7F05C0EF
:1054F0008F3F29F480912E038B7F80932E03809120
:10550000310381110EC08091320381110AC0809154
:105510003303811106C080913403811102C01092BF
:105520002D0308958FE293E00E94441B0E94A62859
:1055300090932C0380932B030895CF93DF9300D097
:1055400000D000D0CDB7DEB786E0EFE2F3E0DE01B9
:10555000119601900D928A95E1F7809131038111A6
:1055600005C080913203882309F47AC08091290311
:1055700090912A030E94B228AC0190912D039923A7
:1055800039F02091440130E02417350758F068C005
:10559000209145018AE0289F9001112424173507A6
:1055A00018F05EC09F3F19F09F5F90932D031092FB
:1055B00033031092340380913103181624F40E94AF
:1055C0002329809331038091310387FF05C00E9416
:1055D000232981958093310380913203181624F496
:1055E0000E942329809332038091320387FF05C0F4
:1055F0000E94232981958093320330913103332314
:10560000E1F0209132032223C1F045EB3403C001C5
:105610001124992319F09093310303C081E0809302
:10562000310335EB2303C0011124992319F0909322
:10563000320303C081E0809332030E94922A80915A
:105640002B0390912C0390932A038093290386E0E7
:10565000FE013196AFE2B3E001900D928A95E1F739
:1056600080913303811105C080913403882309F4AC
:105670007AC080912703909128030E94B228AC0140
:1056800090912D03992339F02091400130E02417A7
:10569000350758F068C0209141018AE0289F9001A9
:1056A00011242417350718F05EC09F3F19F09F5F43
:1056B00090932D03109231031092320380913303A3
:1056C000181624F40E946C298093330380913303CD
:1056D00087FF05C00E946C298195809333038091D8
:1056E0003403181624F40E946C29809334038091AB
:1056F000340387FF05C00E946C2981958093340391
:10570000309133033323E1F0209134032223C1F09D
:1057100045EB3403C0011124992319F0909333030E
:1057200003C081E08093330335EB2303C0011124D0
:10573000992319F09093340303C081E080933403DC
:105740000E94922A80912B0390912C03909328031E
:105750008093270386E0FE013196AFE2B3E001902B
:105760000D928A95E1F726960FB6F894DEBF0FBE2C
:10577000CDBFDF91CF910895EFE2F3E086E0DF0146
:105780001D928A95E9F710922D0310922E03089529
:1057900080913D030895CF93DF9300D01F92CDB742
:1057A000DEB79091AF03943019F589837B836A83C8
:1057B00082E08093E9008FEF9091E800815095FDA1
:1057C00006C095ED9A95F1F700008111F5CF809113
:1057D000E80085FF0DC040E050E063E070E0CE01DE
:1057E00001960E94132E8091E8008E778093E80046
:1057F0000F900F900F90DF91CF910895CF93DF938B
:10580000EC010E94F62D823011F0843031F4BE019B
:1058100084E0DF91CF910C94CB2BDF91CF91089551
:10582000BC0183E00C94CB2BCF93DF93EC010E945F
:10583000F62D823011F08430F9F482E08093E90093
:105840008FEF9091E800815095FD06C095ED9A95F7
:10585000F1F700008111F5CF8091E80085FF0CC0C1
:1058600040E050E066E070E0CE010E94132E80918F
:10587000E8008E778093E800DF91CF910895CF9371
:10588000DF93EC010E94F62D823011F0843039F55F
:1058900081E08093E9008FEF9091E800815095FDC1
:1058A00006C095ED9A95F1F700008111F5CF809132
:1058B000E80085FF14C040E050E068E070E0CE01F1
:1058C0000E94132E8091E8008E778093E80088E094
:1058D000FE01A5E3B3E001900D928A95E1F7DF9117
:1058E000CF9108958091AE03811109C00E94A42F29
:1058F0000E9401308091E20084608093E20008956C
:105900001092AE030895089508950C946A2842E019
:1059100061EC81E00E941D2F42E261EC82E00C9478
:105920001D2F8091B103833009F460C030F48130C1
:1059300071F0823009F499C008958A3009F485C065
:105940008B3009F46BC0893009F0A7C020C080916A
:10595000B003813A09F0A1C08091E800877F80936D
:10596000E8008091B4039091B503892B21F468E09D
:1059700085E393E003C060E080E090E070E00E9487
:105980005E2E8091E8008B778093E80008958091E7
:10599000B003813209F081C08091B4039091B503C6
:1059A000029708F07AC08091E800877F8093E80032
:1059B0008091E80082FD05C08091AF038111F8CF8E
:1059C0006CC02091F3008091F20090E0922B02973E
:1059D00029F48091F1008B7F813021F48091F100D6
:1059E00080933D038091E8008B7753C08091B00392
:1059F000813A09F052C08091B4039091B503892B8C
:105A000009F04BC08091E800877F8093E800809187
:105A1000E80080FFFCCF8091500136C08091B00338
:105A20008132D9F58091B4039091B503892BA9F502
:105A30008091E800877F8093E8000E94522F809138
:105A4000B203809350010C9451208091B0038132B5
:105A500021F58091E800877F8093E8000E94522F13
:105A60008091B30380933E0308958091B003813AFF
:105A7000A1F48091E800877F8093E8008091E8009E
:105A800080FFFCCF80913E038093F1008091E8007D
:105A90008E778093E8000C94522F089584B7877F07
:105AA00084BF0FB6F894A8958091600088618093B8
:105AB0006000109260000FBE90E080E80FB6F8948E
:105AC00080936100909361000FBE0E948E1B0E9424
:105AD000A42F0E9401308091E20084608093E20054
