:100000000C94C4050C94691C0C940B060C940B0600
:100010000C940B060C940B060C940B060C940B061C
:100020000C940B060C940B060C941A310C94EC31C6
:100030000C94662B0C940B060C940B060C940B067C
:100040000C940B060C940B060C940B060C940B06EC
:100050000C940B060C94B32B0C940B060C940B060F
:100060000C940B060C940B060C940B060C940B06CC
:100070000C940B060C940B060C940B060C940B06BC
:100080000C940B060C940B060C940B060C940B06AC
:100090000C940B060C940B060C940B060C940B069C
:1000A0000C940B060C940B060C940B0625162816C4
:1000B0002D16341639163E16431648164D1652168E
:1000C00057165C165E166116641667166A166D166C
:1000D0006F1674169C209C20CE20CE201B214F2210
:1000E0004F224F223921CE21DF21DF213F224F2213
:1000F0004F224822EB22EB22FD22FD22F422FD2298
:10010000FD22FD22EB22EB22F922FD22FD22F92223
:1001100059328032783380327833CC32EF327833D0
:10012000463355330000B200165C1E001F0020004D
:100130002100220023003A003B002B0014001A008B
:1001400008001500170000003D003E0002510400A9
:100150001600070009000A00000040004100E1000D
:1001600000001D001B0006001900050044004500AA
:10017000E000E300E200015100002C000000240038
:100180002500260027002D002E002A002A00A800A6
:100190001C0018000C00120013002F00300031006A
:1001A00048000B000D000D000E000F003300000092
:1001B000280046001100100036003700380000000B
:1001C000E1005200490001512C00E6006500E40006
:1001D0000000500051004F00C05CBF5C35003A0089
:1001E0003B003C003D003E003F00BB5CBE5C0100AC
:1001F000010001000100010001000000BC5CBD5CC9
:100200003900010001000100010001000000BD00F3
:10021000BE0001000000010001000100010001001A
:100220004C00055501000F5C0100010000000100B9
:1002300000004000410042004300440045004C00E3
:100240004C0001000100010001000100010001005B
:100250000100010001000100010001000100010096
:100260000100000001000100010001000100010087
:100270000100000001004E0001000100010001002A
:100280000100010000004A004E004D00C35CC25C4A
:100290000100010001000100010001000100CB5C30
:1002A000C95C010001000100010001000100000023
:1002B000CC5CCA5C02510100010001000100010098
:1002C0000000C75CC55C01000000010001000100E6
:1002D00001000100C85CC65C0100065C0100010071
:1002E0000000010000000100010001000100010008
:1002F00001000100010001000100010001000100F6
:1003000001000100010001000100010001000100E5
:1003100001000100010000000100010001000100D6
:1003200001000100010000000100010001000100C6
:1003300001000100010001000000010001000100B6
:1003400044454255473A2064697361626C65642E86
:100350000A0044454255473A20656E61626C656407
:100360002E0A000A002530313662003A200025307E
:100370003258000A722F6320303132333435363729
:1003800038394142434445460A007267626C6967E6
:10039000687420616E696D6174696F6E2074696341
:1003A0006B207265706F727420746F20736C61764D
:1003B000650A007267626C696768742074696D65AC
:1003C000722064697361626C652E0A007267626CE8
:1003D000696768742074696D657220656E61626C0E
:1003E00065642E0A007267626C69676874207365C1
:1003F0007420687376205B4E4F454550524F4D5DDB
:100400003A2025752C25752C25750A007267626CBB
:10041000696768742073657420687376205B45454E
:1004200050524F4D5D3A2025752C25752C25750AA7
:10043000007267626C69676874207261696E626FCE
:100440007720736574206873763A2025642C2564C0
:100450002C25642C25750A007267626C69676874C4
:100460002064697361626C65205B4E4F4545505254
:100470004F4D5D3A207267626C696768745F636FA5
:100480006E6669672E656E61626C65203D2025751C
:100490000A007267626C69676874206469736162DC
:1004A0006C65205B454550524F4D5D3A2072676246
:1004B0006C696768745F636F6E6669672E656E61ED
:1004C000626C65203D2025750A007267626C696761
:1004D000687420656E61626C65205B454550524FC3
:1004E0004D5D3A207267626C696768745F636F6E16
:1004F0006669672E656E61626C65203D2025750A10
:10050000007267626C6967687420746F67676C65F6
:10051000205B454550524F4D5D3A207267626C69D1
:100520006768745F636F6E6669672E656E61626C83
:1005300065203D2025750A007267626C69676874E2
:10054000206D6F6465205B4E4F454550524F4D5DA9
:100550003A2025750A007267626C69676874206DBD
:100560006F6465205B454550524F4D5D3A202575BF
:100570000A007267626C696768745F696E697420EB
:100580007267626C696768745F636F6E6669672E15
:100590006D6F6465203D20302E2057726974652090
:1005A00064656661756C742076616C756573207422
:1005B0006F20454550524F4D2E0A007267626C699C
:1005C0006768745F696E6974206565636F6E6669DC
:1005D00067206973206E6F7420656E61626C65645C
:1005E0002E0A007267626C696768745F696E69746D
:1005F000207374617274210A007267626C696768A3
:10060000745F696E69742063616C6C65642E0A00A6
:100610007267626C696768745F636F6E6669672E84
:100620007370656564203D2025640A007267626C02
:10063000696768745F636F6E6669672E76616C20A8
:100640003D2025640A007267626C696768745F63A5
:100650006F6E6669672E736174203D2025640A0001
:100660007267626C696768745F636F6E6669672E34
:10067000687565203D2025640A007267686C6967AB
:1006800068745F636F6E6669672E6D6F6465203D89
:100690002025640A007267626C696768745F636F23
:1006A0006E6669672E656E61626C65203D2025640B
:1006B0000A007267626C696768745F636F6E66696F
:1006C0006720454550524F4D3A0A0032190A00043E
:1006D0007F3F1F643214643214783C1E1E140A05D6
:1006E0002223252628292A2C2D2F3032333536383F
:1006F0003A3B3D3E4042434547494A4C4E50515398
:100700005557595A5C5E6062646668696B6D6F71BB
:10071000737577797B7D7F81838587898A8C8E90BD
:10072000929496989A9C9E9FA1A3A5A7A8AAACAEC6
:10073000AFB1B3B4B6B8B9BBBCBEBFC1C2C3C5C606
:10074000C7C9CACBCCCDCED0D1D2D2D3D4D5D6D7AF
:10075000D7D8D9D9DADADBDBDBDCDCDCDCDCDDDDED
:10076000DDDDDCDCDCDCDCDBDBDBDADAD9D9D8D7DD
:10077000D7D6D5D4D3D2D2D1D0CECDCCCBCAC9C77F
:10078000C6C5C3C2C1BFBEBCBBB9B8B6B4B3B1AFB6
:10079000AEACAAA8A7A5A3A19F9E9C9A9896949256
:1007A000908E8C8A89878583817F7D7B797775732D
:1007B000716F6D6B6968666462605E5C5A5957550B
:1007C0005351504E4C4A4947454342403E3D3B3AC7
:1007D0003836353332302F2D2C2A2928262523224E
:1007E000FFAA7F55400102030C0D0E0F00070605FE
:1007F000040B0A09086261636B6C69676874207393
:100800007465703A2025750A006261636B6C6967D4
:1008100068742064697361626C650A006261636B6D
:100820006C6967687420656E61626C650A0062615C
:10083000636B6C6967687420746F67676C653A20D6
:1008400025750A006261636B6C6967687420646572
:100850006372656173653A2025750A006261636B96
:100860006C6967687420696E6372656173653A20AC
:1008700025750A00000101010101010101010202C7
:10088000020202020202020303030303030303043E
:100890000404040404040505050505060606060609
:1008A000070707070708080808090909090A0A0AC3
:1008B0000B0B0B0C0C0C0D0D0D0E0E0E0F0F0F1065
:1008C00010111111121213131414151516161717EF
:1008D000181819191A1A1B1B1C1D1D1E1E1F20205B
:1008E000212222232424252626272829292A2B2CA5
:1008F0002D2D2E2F30313232333435363738393AC8
:100900003B3C3D3E3F404142434445464748494ABF
:100910004C4D4E4F50515354555658595A5B5D5E8D
:100920005F616264656668696B6C6D6F7072737528
:1009300077787A7B7D7E8082838587888A8C8E8F8C
:1009400091939596989A9C9EA0A2A3A5A7A9ABADBA
:10095000AFB1B3B5B7BABCBEC0C2C4C6C9CBCDCFA8
:10096000D1D4D6D8DBDDDFE2E4E7E9EBEEF0F3F556
:10097000F8FAFDFF0A002530325820006B657962D5
:100980006F6172645F7265706F72743A20000A0062
:1009900025303258006B6579626F6172645F7365F0
:1009A000745F6C65643A200064656C5F6B65795FA9
:1009B0006269743A2063616E27742064656C3A2022
:1009C000253032580A006164645F6B65795F626943
:1009D000743A2063616E2774206164643A20253084
:1009E00032580A005B735D004B6579626F61726417
:1009F0002073746172742E0A005B575D005B535D57
:100A0000005B525D005B445D005B435D00040330AE
:100A10000000002203510075006500660072006549
:100A2000006E006300790020005200650076002E01
:100A3000002000320000000E034B006500650062DC
:100A40000069006F0000000403090409025B000351
:100A50000100A0FA090400000103010100092111AD
:100A60000100012240000705810308000A09040172
:100A7000000103000000092111010001226D00079F
:100A800005820320000A0904020002030000000995
:100A90002111010001222200070583032000010724
:100AA000050303200001120110010000000810CB13
:100AB00057220002010203010631FF0974A1010956
:100AC00075150026FF00952075088102097615002E
:100AD00026FF00952075089102C005010980A1013B
:100AE000850319012AB700150126B7009501751075
:100AF0008100C0050C0901A101850419012AA00289
:100B0000150126A002950175108100C00501090696
:100B1000A1018505050719E029E7150025019508BC
:100B2000750181020507190029EF1500250195F0CF
:100B300075018102050819012905950575019102C4
:100B4000950175039101C005010906A10105071969
:100B5000E029E715002501950875018102950175C9
:100B60000881010507190029FF150026FF009506D9
:100B7000750881000508190129059505750191027F
:100B8000950175039101C00011241FBECFEFDAE07B
:100B9000DEBFCDBF04B603FE27C08091E003909175
:100BA000E103A091E203B091E3038730904BA740AB
:100BB000B04BD1F41092E0031092E1031092E203E3
:100BC0001092E30314BE84B7877F84BF0FB6F894F6
:100BD000A895809160008861809360001092600009
:100BE0000FBEE0E0F8E3099511E0A0E0B1E0E6E136
:100BF000FAE602C005900D92AE3FB107D9F723E0A7
:100C0000AEEFB1E001C01D92A03EB207E1F70E9435
:100C1000402E0C9409350C940000FF93EF93E09163
:100C2000FE01F091FF01309709F00995EF91FF91D6
:100C30000895FC018591803011F0EFDFFBCF08951E
:100C4000FF27E0E230E247FF0CC0419597FF09C063
:100C5000EDE26095709580959095611D711D811DE7
:100C6000911D27FF02C0219530E350E2AA27660FAD
:100C7000771F881F991FAA1FA41710F0A41B639544
:100C80005A95A9F7AA3008F0A95FA05DAF93F39534
:100C9000611571058105910541F7ED3211F4EF936E
:100CA000F395F21718F43F93F395FBCF8F91B5DFCF
:100CB000FA95E1F70895E991F9918591803021F055
:100CC000853219F0AADFF9CF089520E0E894559114
:100CD0005532C1F3503311F4689455915A3348F4A6
:100CE000505390F3220F022E220F220F200D250FBA
:100CF000F4CF0EF4219589919991533619F3533716
:100D000029F1533559F1BC0188279927E8945C36BD
:100D100021F48991999168945591543639F446EFAC
:100D20007EF077FF0DC08FEF9FEF0AC055374AE086
:100D300039F0583540E121F0523642E009F008958B
:100D4000FF93EF937DDFEF91FF91B7CFFF93EF9389
:100D5000FC0181918030B9F360DFFBCFFF93EF930B
:100D600068DFF1CFDF93CF93CDB7DEB72596A3DF52
:100D7000CF91DF910895269A0C94270ACF939091F2
:100D80001701992351F0C82F0E944507882329F0A5
:100D9000C1FD02C02E9A01C02E9881E0CF91089526
:100DA0000E94181783E00E94C8170E94E1134FEFBA
:100DB0006FEF80E00E9476108BE00E94DE1360E00F
:100DC00070E0CB010E94BA290C94C62981E00895F5
:100DD00081E008950C94E80608950C94EC061F93A6
:100DE000CF93DF9300D000D01F92CDB7DEB74983F9
:100DF0005A836B833091A30289819A81311114C087
:100E0000662359F0222349F00E942428182F682FC6
:100E100089819A810E94CD2703C00E94F827182F4C
:100E200069817A81812F04C00E94242869817A8196
:100E30000F900F900F900F900F90DF91CF911F9117
:100E40000C94CA07FC01262F408151816281738175
:100E500084810C94EF06CF93DF93EC0160E00E9455
:100E60002207BE01DF91CF910C94ED060E948029EC
:100E7000811102C00E94222A0E9465180C94BB06B0
:100E80000C94250A08950C94420781E00895CF93AD
:100E9000C82F0E9443078C2F0E94BE06CF91089551
:100EA00008950E94D9220E9450072FEF84E39CE00E
:100EB000215080409040E1F700C000000C94D92BF5
:100EC0000F931F93CF93DF93EC0161E00E94220701
:100ED0008C01BE010E94EA06882309F450C0BE01BD
:100EE000C8010E94CE17882309F449C0BE01C80179
:100EF0000E941C1A882309F442C0BE01C8010E9446
:100F00005D1A8823E1F1BE01C8010E94881B882375
:100F1000B1F1BE01C8010E940F16882381F18A81B8
:100F2000882331F101308CE5180751F00E3D8CE536
:100F30001807D9F001151C45D9F40E9451071FC0AC
:100F400080914503C82FC095C170C0FB80F9809384
:100F50004503CC2329F082E593E00E9419060FC0D7
:100F600080E493E00E9419060BC00E94222A07C069
:100F7000CE01DF91CF911F910F910C94E606C0E056
:100F80008C2FDF91CF911F910F91089580E090E019
:100F9000089508952AE5829FC0011124FC0129E0EB
:100FA000729FE00DF11D1124E60FF11DEE0FFF1FE2
:100FB000EC5DFE4F859194910895880F991FFC0177
:100FC000ED59FC4F859194910895CF93DF930E9442
:100FD000CA070E94F708EC018115904508F043C04C
:100FE000C11580E4D80708F0CBC0C03ED10528F574
:100FF000C03CD10508F0B3C0C83AD10578F4C53A71
:10100000D10508F0A4C0C130D10509F4ECC008F442
:10101000E8C0C430D10508F0E6C0E3C0CF3BD1053D
:1010200008F0DFC0C85AD0E0CC0FDD1FCE5ADE4F2B
:101030000990D881C02DD464D6C0C11590E2D907DB
:1010400050F4C11521E0D20708F0CDC0C83ED1054B
:1010500008F4C9C0C6C0C11580E3D80708F086C02F
:10106000CE019F707FC0C11595E5D90708F043C038
:10107000C11524E5D20708F09AC0C11582E5D8074A
:1010800008F5C11591E5D90708F07DC0CE0174E0DF
:10109000969587957A95E1F783709C2F937021E060
:1010A00030E002C0220F331F9A95E2F73C68382BDC
:1010B000CF70C695C69580E2C89FE0011124C22B6F
:1010C000D32B91C09E01237033278C2F8695869554
:1010D000C115D34508F05CC0C1E0D0E002C0CC0F20
:1010E000DD1F2A95E2F720E2829FC0011124C82B60
:1010F000D92BDC6878C0C11529E5D207A0F4C11549
:1011000088E5D80708F058C0C11596E5D90708F05A
:1011100068C08C2F0E948B098F71C82FD0E0DC2F04
:10112000CC27D06260C0C1152AE5D20708F449C0B7
:10113000CE0190568115904208F053C08D2F8F71CB
:101140000E948B09DD27D0628F71D82B4CC0C55A05
:10115000D0E0C058DE4FC881D0E0D06444C0CE019A
:10116000805C91090E94DD07EC013DC0CE0199270A
:10117000D3FF03C0EC01D86C36C0EC01D06C33C097
:10118000DF70D06A30C0DC2FCC27C16FD06A2BC093
:10119000C1E0D0E002C0CC0FDD1F2A95E2F720E2CB
:1011A000829FC0011124C82BD92BDA681CC0DC2F08
:1011B000CC27C46FD06A17C0DC2FCC27C06FD06A91
:1011C00012C08C2F8F700E948B0994E0D695C79522
:1011D0009A95E1F7CF70D0E0DC2FCC27D069C82BEF
:1011E00002C0C0E0D0E0CE01DF91CF9108958238F7
:1011F000910569F1B0F48133910509F46DC048F4AB
:101200008932910509F463C08A32910509F469C0F5
:1012100008958533910509F455C089339105B9F0D6
:101220000895833E910569F138F4803E9105B1F04F
:10123000823E910509F10895863E9105A9F1873E08
:101240009105B9F1843E910509F064C023C0209155
:10125000D10320FD4FC021FD4DC008958091D103E1
:1012600080FD44C08091D20380FF44C08091D103AF
:1012700084FD42C083EE4DC08091D10382FF38C00F
:10128000F5CF8091D10382FD33C08091D20380FDE0
:1012900031C0ECCF8091D20381FF32C08091D10365
:1012A00084FD2AC087EE35C08091D10383FF26C01C
:1012B000F5CF8091D10383FD21C08091D20381FDC0
:1012C0001FC0ECCF8091D10385FD1CC01DC0809153
:1012D000D10385FD19C016C08091D10386FD16C0CB
:1012E00017C08091D10386FD13C010C089E311C0DF
:1012F00082EE0FC080EE0DC080E00BC086EE09C00C
:1013000084EE07C089E205C085E303C08AE201C01C
:1013100081E390E008959091D10392FF0DC0282FB2
:101320002871283019F4877F846006C0282F247123
:10133000243011F48B7F886093FF0DC0282F287113
:10134000283119F4877E846106C0282F2471243146
:1013500011F48B7E88612091D20320FF0DC0382FBD
:101360003871383019F4877F816006C0382F3171A9
:10137000313011F48E7F886021FF0DC0282F287135
:10138000283119F4877E816106C0282F217121310F
:1013900011F48E7E886194FD877E0895E82FF0E039
:1013A000EE0FFF1FEF57FC4F808191810895CF9280
:1013B000DF92EF92FF920F931F93CF93DF9383E718
:1013C00093E00E94190681E8E82E83E0F82EC0E041
:1013D000D0E09EE6C92E93E0D92E05E613E0DF9318
:1013E000CF93DF92CF920E94B2068BE693E00E94E9
:1013F0001906F701819191917F010E946D299F93B8
:101400008F931F930F930E94B20683E693E00E948E
:10141000190621968DB79EB708960FB6F8949EBF11
:101420000FBE8DBFCA30D105D1F6DF91CF911F918C
:101430000F91FF90EF90DF90CF90089580EA8A950A
:10144000F1F7089508950C94220A0C94230A0C9441
:10145000220A08950F931F93CF93DF93CDB7DEB782
:1014600063970FB6F894DEBF0FBECDBF0E94140C79
:101470008091170181112DC0FE0131968AE0DF01B4
:101480001D928A95E9F783E3898382E38A8386E361
:101490008B8384E38C8387E98D83ADE0B1E0CE015B
:1014A0000B9621912D938E179F07D9F729E0E9E438
:1014B000F1E0DE011B9601900D922A95E1F7FC0107
:1014C000A4E0B1E0CE01449621912D938E179F07A1
:1014D000D9F780911701811102C095E001C090E019
:1014E0009093960385E0891B80939503ADE0B1E06E
:1014F00042E151E061E070E08D91E82FE295EF70FC
:10150000F0E021A18F708B0102C0000F111F8A959E
:10151000E2F7C801902F9095922391A392A1892B75
:1015200082A34A175B0741F7A4E0B1E04DE051E028
:1015300061E070E08D91E82FE295EF70F0E021A17D
:101540008F708B0102C0000F111F8A95E2F7C8014E
:10155000902F9095922391A392A1892B82A34A1751
:101560005B0741F7EDE6F3E0A1E8B3E081E893E043
:10157000119211921D921D928E179F07C9F785E057
:101580000E94B50B0E94360763960FB6F894DEBF33
:101590000FBECDBFDF91CF911F910F910C94280CFE
:1015A0000E94F70B882351F18091950390E0880FFA
:1015B000991F8F579C4F0E94580C81111BC080911E
:1015C00000028F5F809300028630B0F08091950317
:1015D00090E0880F991F20E030E0F901E80FF91F33
:1015E000EF57FC4F118210822E5F3F4F2A3031059A
:1015F000A1F702C0109200020C944007809196035C
:1016000090E0880F991F8F579C4F0E94890C0C9473
:10161000290AAF92BF92CF92DF92FF920F931F934E
:10162000CF93DF93CDE0D1E09DE6C92E93E0D92E94
:1016300022E1A22E21E0B22EF12C01E010E08881FF
:10164000E82FE295EF70F0E021A18F70A80102C0B1
:10165000440F551F8A95E2F7CA01822B81A3888126
:10166000E82FE295EF70F0E092A18F70980101C031
:10167000220F8A95EAF7822F8095892382A30E9400
:101680001E0AE4E0F1E040E050E020E030E061914B
:10169000A62FA295AF70B0E090968C9190E06F70FD
:1016A00002C0959587956A95E2F780FD08C0C8014C
:1016B000042E02C0880F991F0A94E2F702C080E04E
:1016C00090E0282B392B4F5F5F4F49305105F9F6D9
:1016D0008881E82FE295EF70F0E091A18F70A8016A
:1016E00001C0440F8A95EAF7842F8095892381A34E
:1016F0008991E82FE295EF70F0E042A18F70B80178
:1017000002C0660F771F8A95E2F7CB01842B82A374
:10171000F601808191812817390721F031832083D8
:1017200081E001C080E0F82AF2E0CF0ED11CAC16B7
:10173000BD0609F084CF6091960370E0660F771FB5
:101740006F577C4F2F2D45E08DE693E00E94B60B3E
:101750000E94D00A8F2DDF91CF911F910F91FF90A2
:10176000DF90CF90BF90AF9008950895FF920F93B0
:101770001F93CF93DF93F82E092F162FD72FC42F47
:10178000222349F081E0809303020E94982B9093DA
:10179000020280930102809103028823D9F0809194
:1017A0000102909102020E94A42B069798F0EF2D5F
:1017B000F02FA12FBD2F80E090E04C2F50E0841738
:1017C000950734F4219131912D933D930196F7CFF4
:1017D00010920302DF91CF911F910F91FF90089516
:1017E00087988F988FB1881F8827881F08958091C8
:1017F0000402811112C08091D80080618093D800CA
:101800008AE18A95F1F700C08091D90080FD02C07D
:1018100082E001C081E08093040281E090910402A3
:10182000913009F080E008950E94F00B8093170139
:101830008091170168E0882311F080E001C088E002
:101840000E94370D0E94F70B81110C942F0C089504
:101850000E94F70B811102C00C94350C089562E0D0
:1018600070E088E191E00C94171C62E070E088E180
:1018700091E00C94201C0E940A13882361F083E1FC
:1018800092E00E94101381E090E00E94F91C892BE5
:1018900011F40C940D13089580911202883039F4DC
:1018A00060E083E192E00E94DF141092120208953A
:1018B000CF93DF93D82FC92F0E943B0C80E090E09C
:1018C0000E94F91C892B09F5ED2FFC2F80E090E098
:1018D000DC01AA0FBB1FA95FBD4F2D913C91219345
:1018E000319301968530910599F70E947E168823E1
:1018F00019F00E94821601C080E08093060281E107
:1019000092E00E94751981E001C080E0DF91CF91E3
:101910000895CF93DF93D82FC92F0E944C0CED2F41
:10192000FC2F80E090E021913191DC01AA0FBB1FD8
:10193000A95FBD4F11963C932E930196853091057A
:1019400091F7809106020E94031881E192E0DF91F5
:10195000CF910C946C19EF92FF920F931F93CF933A
:10196000DF93F62E472FE82FF0E0711106C0EC58F8
:10197000F74F6491762F862F72C0272F30E0EC58F6
:10198000F74FE4910E2F10E056E0659FC00111243F
:10199000CFEFD0E0BE010E94C7335BEA5603C0011F
:1019A000579F900D11248F0D911D8F0D911D982F14
:1019B000990F890F7E01E21AF30AE09ED001E19EA1
:1019C000B00DF09EB00D1124489FA0011124452FA9
:1019D00055277E01E41AF50AE09EA001E19E500D14
:1019E000F09E500D11247E01E81AF108E29EC0011C
:1019F000E39E900DF29E900D1124892F9927C81B0C
:101A0000D90BC09FC001C19F900DD09F900D112494
:101A10006230710591F048F461157105E1F06130B3
:101A20007105A9F48B2F752F19C06430710561F011
:101A300038F06630710579F00AC0892F7B2F0EC00F
:101A40008E2F7B2FE52F0AC08E2F792F02C0852F76
:101A50007E2FEB2F03C08B2F7E2FE92F6E2FDF9170
:101A6000CF911F910F91FF90EF9008950895EAE2B2
:101A7000F1E0808361830895CF93DF93762FE901AE
:101A8000682F842F0E94AB0C798368838A83DF914F
:101A9000CF91089580919703282F269530E0211546
:101AA000310519F48170826005C02B32310524F0B4
:101AB0008170846580939703089588E090E00C948A
:101AC000A234CF92DF92EF92FF926B017C010E94D1
:101AD0004A0DB701A60188E090E0FF90EF90DF90FB
:101AE000CF900C94C034E7E9F3E083E08083118267
:101AF0008FEF828383831482A8E7B2E012968C91E1
:101B00001297836012968C93608171818281938198
:101B10000C94610D8091450380FF08C082EB96E034
:101B20009F938F930E94B2060F900F908091450370
:101B300080FF0FC08091970381701F928F9385E97A
:101B400096E09F938F930E94B2060F900F900F9094
:101B50000F908091450380FF0FC080919703869579
:101B60001F928F938AE796E09F938F930E94B2060D
:101B70000F900F900F900F908091450380FF0EC043
:101B8000809198031F928F9380E696E09F938F93A6
:101B90000E94B2060F900F900F900F908091450316
:101BA00080FF0EC0809199031F928F9386E496E088
:101BB0009F938F930E94B2060F900F900F900F90FB
:101BC0008091450380FF0EC080919A031F928F93EE
:101BD0008CE296E09F938F930E94B2060F900F9035
:101BE0000F900F908091450380FF0EC080919B0362
:101BF0001F928F9380E196E09F938F930E94B2068D
:101C00000F900F900F900F9008958091970380FF91
:101C100002C08695089580E0089580919B038330EB
:101C200018F48F5F80939B036091970370919803E2
:101C30008091990390919A030C94610D80919B037C
:101C4000882319F0815080939B03609197037091D2
:101C500098038091990390919A030C94610D70E020
:101C60000C947518CF92DF92EF920F931F93CF933E
:101C7000DF93CDB7DEB7E0970FB6F894DEBF0FBEA7
:101C8000CDBF60912B018091970380FF0AC0E5EEE4
:101C9000F7E0AE014F5F5F4F8E010F5C1F4FCA012F
:101CA00014C080912C0190912D01891780F7E82FA5
:101CB000F0E09F01220F331FE20FF31FE456FC4FA9
:101CC0001182108212828F5FF0CF249130E0D9010F
:101CD000AA0FBB1F2A0F3B1FD901A456BC4FCD90A2
:101CE000DD90EC90DA01CD92DD92ED92AD0131966E
:101CF000A017B10751F720912A01B3E02B9F800D67
:101D0000911D11240E942F0EE0960FB6F894DEBFAD
:101D10000FBECDBFDF91CF911F910F91EF90DF905C
:101D2000CF9008959091970390FF16C090912C0149
:101D300020912D01921770F4E92FF0E0DF01AA0F36
:101D4000BB1FEA0FFB1FE456FC4F81836083428375
:101D50009F5FF0CF0C94320E0895CF93DF9300D0A5
:101D60001F92CDB7DEB79091970390FF0AC09E01F6
:101D70002F5F3F4F0E943C0D4B8169818A810E94F9
:101D8000920E0F900F900F90DF91CF910895CF9307
:101D9000DF93EC01EC81F0E0E052F94F4491E7E988
:101DA000F3E0628181810E94AD0E8C818F5F8C8314
:101DB000DF91CF910895CF93DF93EC01E7E9F3E052
:101DC000438162818C810E94AD0E8C818F5F8C83F8
:101DD000DF91CF9108950F931F93CF93DF9300D09E
:101DE0001F92CDB7DEB78C0180911B0281110AC012
:101DF0009E012F5F3F4F4FEF6FEF0E943C0D8A8196
:101E000080931B02F8018481813051F028F08230E8
:101E100061F440911B020AC080911B0240E007C0A0
:101E200060911B0240E080E003C040E080E060E0A1
:101E30000E94920EF801848190E0019663E070E0C8
:101E40000E94DB3384830F900F900F90DF91CF912E
:101E50001F910F9108954F925F926F927F928F9290
:101E60009F92AF92BF92CF92DF92EF92FF920F9329
:101E70001F93CF93DF9300D01F92CDB7DEB7F82E1C
:101E8000D62EE42E622E9091970390FFC5C0E92FC5
:101E9000E695AE2FB0E0AD57BE4F8C91809378029F
:101EA0009E7F923061F49E012F5F3F4F8F2D0E94E5
:101EB0003C0D4B8169818A810E94920E62C0823002
:101EC00019F4E0909A035DC0863019F4F0909803FD
:101ED00058C08930D9F3893109F053C0E9518E2FA8
:101EE0008170782E81E0C72CC826E695F0E0E0529C
:101EF000F84FA590B490412CBB2491E3892E94E037
:101F0000992E60912E014616D0F5042D10E00A9D01
:101F1000C0010B9D900D1A9D900D112470E00E9440
:101F2000C7335F2C711002C0560E01C0561A809143
:101F3000450380FF11C0BF92AF921F92CF921F92B4
:101F40005F921F924F929F928F920E94B2060FB69D
:101F5000F894DEBF0FBECDBF80912C01080F111D7C
:101F60009801220F331F020F131F980124563C4F74
:101F70004E2D6D2D852D0E943C0D4394C2CF0E94A5
:101F8000320E80919803F81208C080919903D812FC
:101F900004C080919A03E81629F080917A02826049
:101FA00080937A02F0929803D0929903E0929A0378
:101FB0006620E9F0609197037091980380919903EE
:101FC00090919A030E94610D8091450380FF24C087
:101FD00080919A031F928F93809199031F928F9300
:101FE000809198031F928F938CE094E00CC08091B5
:101FF000450380FF11C01F92EF921F92DF921F9244
:10200000FF9285EE93E09F938F930E94B2060FB6E6
:10201000F894DEBF0FBECDBF0F900F900F90DF91F1
:10202000CF911F910F91FF90EF90DF90CF90BF90D5
:10203000AF909F908F907F906F905F904F9008959A
:10204000E7E9F3E09181282F4381628188E0890FDD
:102050000C942B0F81E00C942010E7E9F3E09181C0
:10206000282F4381628188EF890F0C942B0F81E028
:102070000C942D10E7E9F3E0628121E1620F08F48E
:102080006FEF282F438181810C942B0F81E00C94FA
:102090003A10E7E9F3E0628121E1621B08F460E0B5
:1020A000282F438181810C942B0F81E00C944910DF
:1020B000E7E9F3E0438121E1420F08F44FEF282FD5
:1020C000628181810C942B0F81E00C945810E7E918
:1020D000F3E0438121E1421B08F440E0282F6281B4
:1020E00081810C942B0F81E00C94671021E00C94FB
:1020F0002B0F20E00C942B0FFF920F931F93CF9385
:10210000DF93EC01F12C0FEF10E060912E01F61639
:10211000F0F480912C012F2D30E0280F311DC901E2
:10212000880F991F280F391F24563C4F70E0C801B3
:102130000E94DB33962F8C8140919A036091990322
:10214000F99E800D11240E943C0DF394DECF0E9475
:10215000320E9A818C8190FF02C08F5F01C0815046
:102160008C83DF91CF911F910F91FF9008959F92E3
:10217000AF92BF92CF92DF92EF92FF920F931F9395
:10218000CF93DF93EC018A8180FF03C0BB24BA9414
:1021900002C0BB24B3948C8181110DC081E0B812C0
:1021A00006C080912E01815080931D0202C01092C2
:1021B0001D0281E08C83A12C80912E01A81608F0CD
:1021C00041C080912C01CA2CD12C8601080F111D11
:1021D000C801880F991F080F191F04561C4FF801DA
:1021E00011821082128234E0E32EF12C912C809126
:1021F0001D02890D813114F08F7005C087FF03C067
:1022000090912E01890F082E000C990BC816D90643
:1022100091F480919A038E9DA0018F9D500D112401
:1022200055954795559547959801609199038091EB
:1022300098030E943C0D9B0CF1E0EF1AF108B9F6EF
:10224000A394BACF0E94320E80911D0291E0B91280
:102250000EC0811107C080912E01815080931D0214
:102260001C820FC0815080931D02BC820AC090E086
:10227000019660912E0170E00E94DB3380931D0275
:102280008C83DF91CF911F910F91FF90EF90DF90A2
:10229000CF90BF90AF909F9008951F93CF93DF93FF
:1022A000EC018C81811109C081E08C8310921C02A9
:1022B00092E0909329018093280180912C019091C4
:1022C0002D01891770F4E82FF0E09F01220F331FD2
:1022D000E20FF31FE456FC4F1182108212828F5FCF
:1022E000F0CF10E060912E011617C0F5E12FF0E05D
:1022F00070E0CF010E94DB3320912C01820F2091EE
:102300001C02022E000C330B90E0E217F307CCF016
:1023100020912901022E000C330B2E173F078CF061
:102320009C01220F331F820F931F9C0124563C4FA8
:1023300040919A0360919903809198030E943C0D0B
:102340000BC0FC01EE0FFF1F8E0F9F1FFC01E45618
:10235000FC4F1182108212821F5FC4CF0E94320E86
:102360008091280120911C02280F20931C0290913B
:102370002901980F9093290119165CF4022E000C84
:10238000330B40912E0150E041505109241735077D
:1023900034F0819580932801813009F41C82DF910B
:1023A000CF911F9108950F931F93CF93DF938C01CB
:1023B000FC0184819581019681709927958384839E
:1023C000C0E0D5E580912E01C81700F580912C0161
:1023D0002C2F30E0280F311DC901880F991F280FBD
:1023E000391F24563C4F4C2F4695F8018481958126
:1023F000840F911D817040919A03609199038D9F84
:10240000802D11240E943C0DCF5FDCCFDF91CF9156
:102410001F910F910C94320E0F931F93CF93DF9364
:10242000EC0100E010E080912E01282F30E002172F
:10243000130724F590912C019801290F311DA90152
:10244000440F551F240F351F24563C4F869590E0AE
:102450004C81081719071CF4442331F002C04111C4
:1024600003C040919A0301C040E0609199038091BC
:1024700098030E943C0D0F5F1F4FD5CF0E94320E74
:102480008C8190E00196817099278C83DF91CF91A8
:102490001F910F9108958F929F92AF92BF92CF920A
:1024A000DF92EF92FF920F931F93CF93DF93FC0184
:1024B000B280948081E0848300E015E05BE4A52E87
:1024C00088248394EE24EA94F12C7BE4C72ED12C4B
:1024D00080912E01081708F08FC0C02FD0E01C9FFC
:1024E000F0011D9FF00D1124EF5DFD4F911003C011
:1024F0001382128267C02381222389F12150238312
:102500003481332319F09A2D921B01C0922F8091B0
:102510009A031C9FF0011D9FF00D1124EF5DFD4FEC
:10252000899FC0011124B6010E94C7336283211123
:1025300004C0332311F01482A38222E02B1508F487
:1025400041C01C9FF0011D9FF00D1124EF5DFD4F58
:1025500080919803808380919903818333C00E9486
:102560007D348230914074F582E08B1530F40E9406
:102570007D34B7010E94DB3302C0809198031C9F19
:10258000F0011D9FF00D1124EF5DFD4F808322E0CF
:102590002B1558F40E947D34209199032695622FC3
:1025A00070E00E94DB33820F02C0809199031C9F70
:1025B000F0011D9FF00D1124EF5DFD4F818312820C
:1025C000A382848280912C019E01280F311DC901B4
:1025D000880F991F280F391F24563C4F1C9FF0016C
:1025E0001D9FF00D1124EF5DFD4F428161818081BF
:1025F0000E943C0D0F5F6CCFDF91CF911F910F9127
:10260000FF90EF90DF90CF90BF90AF909F908F9012
:102610000C94320E80917A02089510927A020895F5
:1026200025E0E7E9F3E0DC0101900D922A95E1F75E
:10263000209178023091790240917A02FC01258341
:10264000368347830895E8E7F2E01182828184604F
:102650008283089560919703669570E04BE050E0A7
:102660008FE291E00E948D34892B19F481E08093F0
:1026700079020E94982B909372028093710280914C
:102680007A02846080937A028091450380FF08C0BB
:102690008CEC93E09F938F930E94B2060F900F9063
:1026A00008951092790280917A02846080937A0270
:1026B0008091450380FF08C083EB93E09F938F9345
:1026C0000E94B2060F900F9008959091970390FF8B
:1026D00059C09170811102C0926006C08B3210F017
:1026E000946502C0880F982B9093970380917A028B
:1026F000816080937A026623B1F0609197037091B4
:1027000098038091990390919A030E94610D8091A2
:10271000450380FF1BC08091970386951F928F937E
:1027200086E595E00BC08091450380FF0FC0809146
:10273000970386951F928F9388E395E09F938F93DD
:102740000E94B2060F900F900F900F906091970328
:10275000669570E04BE050E08FE291E00E948D348E
:10276000892B19F00E94511302C00E942A1381E0A4
:102770008093740240919A03609199038091980329
:102780000C9479100895682F90919703969581E0A5
:10279000890F8B3208F081E00C94651381E00C9472
:1027A000C313682F9091970396958FEF890F09F4C3
:1027B0008AE20C94651381E00C94D11361E00C94CF
:1027C00065138091970381608093970380914503FF
:1027D00080FF0DC01F9281E08F938AEC94E09F935D
:1027E0008F930E94B2060F900F900F900F908091E0
:1027F000970386950C94DE1360E00C94651380912A
:102800007702811165C08091450380FF08C089EF80
:1028100095E09F938F930E94B2060F900F90809146
:10282000450380FF08C083EE95E09F938F930E943D
:10283000B2060F900F900E948029811110C08091E4
:10284000450380FF08C08BEB95E09F938F930E9418
:10285000B2060F900F900E94222A0E94730D0E94D0
:102860005D0D609397037093980380939903909301
:102870009A0380917A02836080937A026E7FC1F41A
:102880008091450380FF08C082E795E09F938F9376
:102890000E94B2060F900F900E94730D0E945D0D72
:1028A00060939703709398038093990390939A038E
:1028B0000E944A0D0E948A0D0E9423138091970363
:1028C00080FF03C086950E94FC1381E0809377020D
:1028D0000895809197038E7F80939703609197036B
:1028E000709198038091990390919A030E94610DD1
:1028F0008091450380FF0FC08091970381701F92E4
:102900008F9382E994E09F938F930E94B2060F9079
:102910000F900F900F900E94511380917A02816066
:1029200080937A022FEF80E792E021508040904020
:10293000E1F700C000000C94320E8091450380FF47
:1029400010C080919703809581701F928F9381E0D2
:1029500095E09F938F930E94B2060F900F900F9077
:102960000F908091970380FD0C9469140C94E113EF
:10297000809197038E7F809397038091450380FF1A
:102980000CC01F921F9288E594E09F938F930E9442
:10299000B2060F900F900F900F900E9451138091EC
:1029A0007A02816080937A022FEF80E792E02150D3
:1029B00080409040E1F700C000000C94320E1F935D
:1029C000CF93DF93EC01162F8F8180FF0FC088819A
:1029D00080FF0AC08091970381608093970388816C
:1029E00086950E94651302C00E94B8148F8181FFF2
:1029F00006C0212F4B816A8189810E942B0F8F8114
:102A000082FF08C08E81882319F00E942A1302C019
:102A10000E9451138F8183FF03C081E08093740271
:102A2000DF91CF911F910895EF92FF920F931F9323
:102A3000CF93DF9380917902882309F4CEC08091EF
:102A40007802E0919703E695E81BE09373028230E9
:102A500049F4F0E0E452F94FE491CE2FD0E007ECD6
:102A60001EE059C0863049F4F0E0E752F94FE49196
:102A7000CE2FD0E00BED1EE04EC0893051F4E6952C
:102A8000F0E0EA52F94FE491CE2FD0E00CE710E1EC
:102A900042C08F3051F4E695F0E0ED52F94FE491E9
:102AA000CE2FD0E007EB10E136C0853149F4F0E0DD
:102AB000E053F94FE491CE2FD0E00DE411E12BC0AB
:102AC0008831D9F0833239F4EEECF6E0C591D49137
:102AD0000BEE1EE020C08432A9F08532C1F48E2FA7
:102AE00063E00E94BB33E92FF0E0E553F94FE49136
:102AF000CE2FD0E00BE412E10EC0C8EED3E003ED20
:102B000011E109C0C4EFD1E00CE012E104C0C0ED56
:102B1000D7E006E31DE080917402882389F01092CB
:102B200074020E94982B9E0120953095820F931F6E
:102B30009093720280937102109276021092750245
:102B400080917102909172020E94A42B8C179D07B4
:102B500008F443C080912002882311F110922002D2
:102B600080911E0290911F020E94A42B80339547F2
:102B7000B8F00E94982B90931F0280931E028091C0
:102B8000450380FF08C08AE893E09F938F930E94DB
:102B9000B2060F900F9080917A02886080937A023B
:102BA000E0907502F0907602E0917102F09172026D
:102BB000CE0FDF1FD0937202C093710281E792E0C3
:102BC000F80109958091750290917602892B29F47C
:102BD000EF2819F081E080932002DF91CF911F91BF
:102BE0000F91FF90EF900895882311F0FA0101C032
:102BF000FB010994CF93DF93C82FD62F0E94050EB7
:102C00008C1740F00E94050E8D1720F4DF91CF91B4
:102C10000C94CE138C2FDF91CF910C94DE131F9365
:102C2000CF93DF93FB011281111163C0EC010E946D
:102C3000A5288272FE01E25CFC45E431F10508F052
:102C400057C0EA5AFF4F0C9411340E949D1451C092
:102C50004BED53E16EEC73E104C04EEC53E16BEDD0
:102C600073E10E94F41545C047E350E16AE270E168
:102C7000F8CF4AE250E167E370E1F3CF45E550E178
:102C800066E470E1EECF46E450E165E570E1E9CF3E
:102C900043E750E164E670E1E4CF44E650E163E7E6
:102CA00070E1DFCF4EE15EE06DE07EE0DACF4DE037
:102CB0005EE06EE17EE0D5CF81E017C065E082E0A6
:102CC00010C068E086E00DC06EE089E00AC064E1F3
:102CD0008FE007C067E185E104C088E106C062E2D9
:102CE00089E10E94FA1505C083E20E94DE1301C04B
:102CF00011E0812FDF91CF911F9108958091CC0336
:102D0000817008958091CC03869586958695089567
:102D10000E948029811102C00E94222A0E94B129AA
:102D20008093CC03282F26952695269530E02430D5
:102D3000310524F0877088618093CC038091CC03A7
:102D400080FF04C086958695869501C080E00C942E
:102D500003182091CC03822F869586958695482F5F
:102D600050E04330510554F48F5F982F990F990F1D
:102D7000990F822F8770892B8093CC038091CC038D
:102D800081608093CC030E94B5298091450380FF28
:102D900011C08091CC038695869586951F928F935E
:102DA0008CE598E09F938F930E94B2060F900F904E
:102DB0000F900F908091CC038695869586950C9404
:102DC00003188091CC03982F969596959695A1F02F
:102DD000915E990F990F990F8770892B8093CC037F
:102DE000887F91E009F490E08091CC0390FB80F91A
:102DF0008093CC030E94B5298091450380FF11C0C8
:102E00008091CC038695869586951F928F9384E456
:102E100098E09F938F930E94B2060F900F900F90AF
:102E20000F908091CC038695869586950C94031817
:102E30008091CC0380FD1FC081608093CC038130E2
:102E400019F489E08093CC038091CC030E94B529CA
:102E50008091450380FF08C08CE198E09F938F9399
:102E60000E94B2060F900F908091CC0386958695B4
:102E700086950C94031808958091CC0380FF14C0AC
:102E80008E7F8093CC030E94B5298091450380FFFB
:102E900008C089E098E09F938F930E94B2060F903C
:102EA0000F9080E00C9403180895CF93C091CC0349
:102EB000C1708091450380FF0CC01F92CF938EE2BA
:102EC00098E09F938F930E94B2060F900F900F90FF
:102ED0000F90CC2319F0CF910C943C17CF910C9408
:102EE00018179091CC03892F8695869586958F5FCC
:102EF0008F719770843038F4880F880F880F892B72
:102F00008093CC0302C09093CC038091CC03887F44
:102F100091E009F490E08091CC0390FB80F98093DC
:102F2000CC030E94B5298091450380FF11C0809198
:102F3000CC038695869586951F928F9385EF97E0B3
:102F40009F938F930E94B2060F900F900F900F9057
:102F50008091CC038695869586950C9403188430D1
:102F600008F083E09091CC039770282F220F220F56
:102F7000220F922B9093CC03987F21E009F420E05C
:102F80009091CC0320FB90F99093CC030C94031800
:102F90000E94AF178091CC030C94B5299C01FB01D2
:102FA0008281882349F12D3BFCE53F07C9F040F4BD
:102FB0002B3BECE53E0769F02C3B3C4561F0089566
:102FC0002F3B9CE5390791F070F0203C3C4589F09F
:102FD000089583E001C080E00E94C81780E0089552
:102FE0000E94E116FBCF0E94A916F8CF0E94551748
:102FF000F5CF0E947117F2CF81E00895259A2D98A0
:1030000008952D980895CF92DF92EF92FF92CF937B
:10301000C82F843050F4811109C0809180008F77CF
:10302000809380000E94011806C0C3E08091800058
:103030008068809380002C2F30E0AFEFBFEF0E94BC
:10304000173423E030E040E050E00E94EF33C90144
:103050002C3764E1360728F469E070E00E94C7333A
:1030600029C0DA01C9018A50974DAF4FBF4F66277B
:10307000782F892F9A2F25EF38E241E050E00E9407
:10308000EF3369017A01CA01B9010E94AB339B0198
:10309000AC01C701B6010E94AB33BB27A92F982F03
:1030A000872F009721E0A207B10511F0BC0102C0F3
:1030B0006FEF7FEF7093890060938800CF91FF904E
:1030C000EF90DF90CF90089508950E94FE1782E858
:1030D0008093800089E1809381008FEF9FEF909330
:1030E0008700809386000C9488166E9A2EB12F7BF1
:1030F0003EB130644FB7F894FC01CB01880F991FA3
:10310000680F791F6E0F7F1FE617F70789F081910F
:1031100098E03EB9000000C087FF2EB9880F00007C
:1031200000C000C000C02EB900C09A9591F7ECCF46
:103130004FBF8FE594E00197F1F700C000000895BC
:1031400008950C94A01880911701882309F447C0B2
:1031500020913B01A22FA295AF70B0E091963C91D7
:1031600091972F7081E090E0AC01022E01C0440FD6
:103170000A94EAF7542F5095352391963C939197F2
:1031800092963C919297432B92964C9392974091B2
:103190003A01E42FE295EF70F0E031A14F70042E78
:1031A00001C0880F0A94EAF7982F9095932391A372
:1031B00092A1892B82A390968C9190E002C0959564
:1031C00087952A95E2F7817020A130E002C03595FD
:1031D00027954A95E2F720FD09C090E008C086E9EE
:1031E00080933B0184E980933A01B2CF92E0892B2E
:1031F000809380029091170181E0982790937C0240
:10320000891B80937B020895CF93E09180025E2F0B
:10321000550F550F20913B01E22FE295EF70F0E042
:1032200080A190E02F7002C0959587952A95E2F7CE
:103230008170992740913A01E42FE295EF70F0E018
:1032400020A130E04F7002C0359527954A95E2F7EE
:10325000F901E170FF2720FF02C0E2E0F0E0E82B77
:10326000F92BE52BE0938002C0917C02EF70F0E037
:10327000E255FE4F908180917F02890F80937F02FB
:1032800084306CF0EC2F0C2E000CFF0BE358FD4F3C
:1032900080818F5F808360E08C2F0E94A1188091D5
:1032A0007F028D3F6CF4EC2F0C2E000CFF0BE358CB
:1032B000FD4F80818150808361E08C2F0E94A11896
:1032C00080917F02837887FF03C081508C6F8F5F6E
:1032D00080937F02CF910895E0917C02F0E0E35863
:1032E000FD4F2081FC0120830895FF920F931F93CF
:1032F000CF93DF93D0917B020D2F10E003581D4F29
:10330000FC01C081F8018081C81BFC2E1F1454F4FD
:10331000FA94F80180818F5F808360E08D2F0E9496
:10332000A118F4CF8C2FC7FD80E0C81BCC2351F02F
:10333000CF5FF80180818150808361E08D2F0E94F2
:10334000A118F4CFDF91CF911F910F91FF900895B5
:103350000F931F93CF93DF93C62FD42F122FFC010F
:1033600082818823C9F0609383020E94982B9093F6
:1033700082028093810280E28C0F883008F057C06F
:10338000C77081E001C0880FCA95EAF7DF91CF913D
:103390001F910F910C94582080918302681330C0C4
:1033A00080918102909182020E94A42B883C910519
:1033B00038F500E20D0FCD17B9F080E28C0F8830A0
:1033C00040F4C77081E001C0880FCA95EAF70E94F7
:1033D0005F20083028F581E09D2F977001C0880F8D
:1033E0009A95EAF70E945820812F0E9445200830C4
:1033F000F0F4D77081E001C0880FDA95EAF70AC0CF
:1034000080E28C0F883098F4C77081E001C0880F8B
:10341000CA95EAF7DF91CF911F910F910C945F202D
:10342000812FDF91CF911F910F910C944520DF9157
:10343000CF911F910F9108959C01CB01233F4CE543
:103440003407F9F078F4283DFCE53F07B9F0293D51
:103450004CE5340711F1273D3C4531F526E241EEBC
:1034600061EE1EC0253FFCE53F0799F070F0263F56
:103470003C45D1F427E245EE66EE12C027E245EE68
:103480000EC026E241EE60EE0BC027E245EE64EE90
:1034900007C026E241EE62EE03C028E241E065EE9D
:1034A0000E94A81980E00895FC018281882319F008
:1034B00010928302089581E00895CF93DF93EC0189
:1034C000FB018281882309F41FC1C230FCE5DF07BC
:1034D00008F41BC1C6319CE5D90738F09E012A5F6C
:1034E0003C452930310508F010C10E949329909382
:1034F000D2038093D103C031ECE5DE0709F4C3C0E9
:1035000008F041C0C8308CE5D80709F49AC0F0F43F
:10351000C430ECE5DE0709F487C068F4C2308CE5FE
:10352000D80709F477C0C330DC4509F0E3C08091C7
:10353000D103826076C0C630ECE5DE0709F46EC0C8
:1035400008F07BC08091D10388606BC0CC308CE5E3
:10355000D80709F485C068F4CA30ECE5DE0709F441
:1035600074C008F079C00E94D9228091D10380688C
:1035700058C0CE308CE5D80709F476C008F07FC07B
:103580008091D1038BC0CB3FECE5DE0709F44FC03F
:1035900018F5C3318CE5D80709F47DC078F4C13142
:1035A000ECE5DE0709F473C0C231DC4509F0A2C0C6
:1035B0000E94D9228091D1038F7733C0C5318CE529
:1035C000D80709F472C008F486C0CA3FDC4509F088
:1035D00091C08091D2033EC0CF3FFCE5DF0709F4E4
:1035E0005FC058F4CD3F9CE5D90709F444C008F406
:1035F0003FC08091D20382602DC0C130FDE5DF075E
:1036000009F475C008F45DC0C230DD4509F072C030
:1036100080E06EC08091D103816003C08091D103AE
:1036200080618093D10366C08091D10311C08091E5
:10363000D20382608093D2035DC08091D103806207
:10364000F0CF8091D1038064ECCF8091D10388606A
:103650008460E7CF8160EECF8091D1038E7FE1CF90
:103660008091D1038D7FDDCF8091D103877FD9CF2A
:103670008091D20318C08091D2038D7FDBCF8091DF
:10368000D1038F7ECECF8091D1038F7DCACF809121
:10369000D1038F7BC6CF8091D103877F8B7FC1CF32
:1036A0008091D2038D7F8E7FC5CF8091D10382FB25
:1036B000222720F991E0922790FB82F990FB83F971
:1036C000B0CF8091D203982F909591708E7F892BE7
:1036D00090FB81F9AFCF0E94D9228091D10387FB63
:1036E000222720F991E0922790FB87F99ACF81E079
:1036F0000E94242A8091D1039091D2030E94A42990
:103700000E94D92280E001C081E0DF91CF9108952D
:10371000CF93DF9386319C4541F5EB010E94A528AC
:10372000982F8A8120913C0130913D01882379F0C6
:103730009A7A81E009F480E080938402911102C0BA
:1037400069E201C065E3C9010E94E12A0AC08091D3
:103750008402811102C069E201C065E3C9010E94CF
:10376000EC2A0E94F32880E001C081E0DF91CF9134
:1037700008958EE1489B02C08150E1F7489BFECF3F
:103780000895589880E28A95F1F7589A0895FC01B7
:103790002AE02A95F1F790E020E080E031E026175A
:1037A00079F040E14A95F1F7880F489B02C08160AB
:1037B000932700C0000040E14A95F1F72F5FEFCF5B
:1037C00020E12A95F1F729B100C0000030E13A95D7
:1037D000F1F7217092272081920F90830895EF9244
:1037E000FF920F931F93CF93DF931F92CDB7DEB756
:1037F00019828C017C01E60EF11C0E151F0559F093
:103800000E94B91B68E0CE0101960E94C71BF80117
:1038100081938F01F2CF81E09981911180E00F9027
:10382000DF91CF911F910F91FF90EF9008959093AA
:1038300087028093860260938502509A589A089571
:103840009093870280938602609385025098589ADD
:10385000E89AE9E6F0E080818C7F808308956150EA
:1038600091E001C0990F6A95EAF720E031E09923D1
:1038700061F0492F482319F0589A232701C058981E
:1038800040E24A95F1F79695F2CF222311F0589A2B
:1038900001C0589880E28A95F1F758980895FF92F0
:1038A0000F931F93CF93DF93EC018C01060F111D33
:1038B000C017D10741F0F9900E94C11B68E08F2D1D
:1038C0000E942F1CF5CFDF91CF911F910F91FF9098
:1038D00008951F920F920FB60F9211240F931F930A
:1038E0002F933F934F935F936F937F938F939F9308
:1038F000AF93BF93EF93FF93CF93DF931F92CDB717
:10390000DEB719820E94B91B67E0CE0101960E94C2
:10391000C71B382F369536953695932F969595700B
:10392000232F2570920F292F2370969596958770D7
:10393000920F891348C08981811145C08091850209
:10394000831708F440C080E18A95F1F7589A509A9D
:10395000A2E0AA95F1F700C00091860210918702BB
:10396000B8E03B9F000D111D11245898F8016581A6
:10397000662321F0868197810E944F1C0E94C11B03
:10398000F0E1FA95F1F758985098589A80E18A95A5
:10399000F1F7D80112966C911297662369F013968D
:1039A0008D919C9114970E94EF1BD801ED91FC9191
:1039B000811105C082E004C0D801ED91FC9188E03E
:1039C00080830E94B91B0F90DF91CF91FF91EF91FF
:1039D000BF91AF919F918F917F916F915F914F9127
:1039E0003F912F911F910F910F900FBE0F901F903D
:1039F00018950F931F93CF93DF932091850230E0AA
:103A0000281739070CF471C09C0193E0220F331F73
:103A10009A95E1F7C0918602D0918702C20FD31F19
:103A2000F894509A589845E04A95F1F70000982F7D
:103A3000969595708570890F982F937086958695C9
:103A4000890F8901082B0E94C11B84E08A95F1F738
:103A500000C067E0802F0E942F1C40E14A95F1F7DB
:103A60005098589A489902C000C0FCCF87E090E077
:103A7000489B0EC0019751F4509A589AE881F981F9
:103A800081E08083789481E090E031C000C0F0CF85
:103A90006D81662381F08E819F810E94EF1B8111D1
:103AA0000AC0509A589AE881F98182E0808378941C
:103AB00082E090E01CC00E94B91B80E28A95F1F779
:103AC0005898509A40E14A95F1F76A81662321F0AF
:103AD0008B819C810E944F1C0E94C11BE881F9814F
:103AE0001082789480E090E002C084E090E0DF9162
:103AF000CF911F910F91089590938D0280938C0226
:103B00000895E0918C02F0918D02309721F00190A0
:103B1000F081E02D099480E00895EF92FF921F93C9
:103B2000CF93DF93FC01A0918C02B0918D0210978E
:103B300009F442C080914801882341F08091D1036B
:103B400087FF04C08081818385E08083EF01129626
:103B5000ED91FC911397CE0109958091450382FF69
:103B60002BC080FF04C08CE799E00E94190618E082
:103B700086E7E82E89E0F82E8091450380FF0BC090
:103B800088811F928F93FF92EF920E94B2060F904E
:103B90000F900F900F90115021961111EDCF809141
:103BA000450380FF09C084E799E0DF91CF911F9121
:103BB000FF90EF900C941906DF91CF911F91FF9029
:103BC000EF90089520918A0230918B0228173907CF
:103BD00071F090938B0280938A02E0918C02F091B5
:103BE0008D02309721F00680F781E02D0994089529
:103BF00020918802309189022817390771F090933B
:103C0000890280938802E0918C02F0918D023097B6
:103C100021F00084F185E02D0994089585B780682E
:103C200085BF85B7806885BF089508950C94151EDB
:103C30000C94161E0C94151E0C94151E0E940E1E3C
:103C40000E941A1E0C94181E0C94F70B0E948F2BC6
:103C50000E942A0A0E94FD2B0E9488160E94FF13D0
:103C60000E94A3180C941C1ECF93C82F809145036B
:103C700082FF1EC080FF04C085E999E00E941906FA
:103C80008091450380FF0CC01F92CF9380E999E09B
:103C90009F938F930E94B2060F900F900F900F90FA
:103CA0008091450380FF04C08EE899E00E941906C8
:103CB0008C2FCF910C9447077F928F929F92AF9257
:103CC000BF92CF92DF92EF92FF920F931F93CF9309
:103CD000DF93CDB7DEB72A970FB6F894DEBF0FBEDD
:103CE000CDBF0E94090B0E94241E811111C08FEFCD
:103CF00089838A831B820E94982B8160782F9D8301
:103D00008C8349815A816B818D810E94101F4FC025
:103D10004FE8A42E42E0B42E00E010E0702E802F79
:103D20000E94CE096C01F501819091905F01882677
:103D300099268114910431F40F5F1F4F0A30110549
:103D400069F7D5CF8091450381FD0E94D70980E0B6
:103D5000EE24E394F12C94012E213F21232B09F131
:103D60008E837F82CE20DF2081E0CD2809F480E0A1
:103D700088870E94982B8160782F9A8789874E8147
:103D80005F8168858A850E94101F000F111FF8014E
:103D9000E157FD4F80819181E826F926F182E0828A
:103DA00006C08F5FEE0CFF1C8930A9F6C5CF0E94BC
:103DB00014150E9464180E9404190E94811D90919C
:103DC0008E028917C9F00E94811D80938E022A9667
:103DD0000FB6F894DEBF0FBECDBFDF91CF911F911C
:103DE0000F91FF90EF90DF90CF90BF90AF909F909A
:103DF0008F907F900C94341E2A960FB6F894DEBFF5
:103E00000FBECDBFDF91CF911F910F91FF90EF902B
:103E1000DF90CF90BF90AF909F908F907F9008954C
:103E2000CF93DF93CDB7DEB72B970FB6F894DEBFF5
:103E30000FBECDBF4F83588769877A878B87DE0196
:103E4000119686E0FD0111928A95E9F785E0FE0161
:103E5000379601900D928A95E1F749815A816B81DD
:103E60007C818D819E810E9492252B960FB6F894BD
:103E7000DEBF0FBECDBFDF91CF910895FC018081E1
:103E800091810E9466280895CF93882309F49CC0ED
:103E9000C82F8238C1F40E94811D81FD95C069E35D
:103EA00080913C0190913D010E94E12A0E94F328FB
:103EB0002FEF81EE94E0215080409040E1F700C068
:103EC000000069E319C0833801F50E94811D80FD5F
:103ED0007BC063E580913C0190913D010E94E12A05
:103EE0000E94F3282FEF81EE94E021508040904013
:103EF000E1F700C0000063E580913C0190913D0135
:103F00000E94EC2ACF910C94F3288438C1F40E94CB
:103F1000811D82FD59C067E480913C0190913D0173
:103F20000E94E12A0E94F3282FEF81EE94E02150B5
:103F300080409040E1F700C0000067E4DDCF8CEFE7
:103F40008C0F813AD0F46C2F80913C0190913D010F
:103F50000E943F2A882349F06C2F80913C01909168
:103F60003D010E94EC2A0E94F3286C2F80913C01B5
:103F700090913D010E94E12AC5CF80E28C0F8830EC
:103F800048F4C77081E001C0880FCA95EAF70E9423
:103F9000A828B8CFEBE5EC0FE33040F4F0E0E451B3
:103FA000FE4F808190E0CF910C94E21DC85AC7313A
:103FB00058F4EC2FF0E0EE0FFF1FE254FE4F80812B
:103FC0009181CF910C94F81DCF910895882309F425
:103FD0005BC0682F823879F40E94811D81FF54C034
:103FE00069E380913C0190913D010E94E12A0E9489
:103FF000F32869E310C08338B1F40E94811D80FF6B
:1040000043C063E580913C0190913D010E94E12A0B
:104010000E94F32863E580913C0190913D010E944C
:10402000EC2A0C94F328843879F40E94811D82FFD5
:104030002BC067E480913C0190913D010E94E12AF0
:104040000E94F32867E4E7CF8CEF860F813A18F3DC
:1040500080E2860F883048F4677081E001C0880FE5
:104060006A95EAF70E94AE28DCCF8BE5860F833095
:1040700020F480E090E00C94E21D685A673120F44F
:1040800080E090E00C94F81D0895CF93C82F0E9413
:10409000441FC93349F42FEF87EE93E0215080404D
:1040A0009040E1F700C000008C2FCF910C94E61FE8
:1040B000882321F00E94A8280C94F32808958823CF
:1040C00021F00E94AE280C94F3280895CF92DF923D
:1040D000EF92FF920F931F93CF93DF937C01062FF4
:1040E000C72FFC01158112951F70D281D1110E943A
:1040F000C5280E949E28882399F0DD2389F08C2F03
:10410000807F803421F080E2800F883048F082E0A8
:104110000E943D290E949E2891E0D82ED92601C0F8
:10412000D12CCC2EC2948FE0C8228C2D90E0FC01C3
:10413000E659FF4F0C9411348C2F807FCF70882369
:1041400011F0C295C07FDD2399F0CC2309F482C120
:1041500080E2800F883010F0011104C08C2F0E9483
:10416000A82803C08C2F0E94B8280E94F32872C18F
:10417000802F0E94E61FCC2309F491C180E2800FBA
:10418000883010F0011104C08C2F0E94AE2803C0AB
:104190008C2F0E94BE280E94F32881C18C2F807F23
:1041A000CF70803211F0C295C07F002319F001302A
:1041B000C9F022C0DD2371F0112341F0113031F438
:1041C0000E94D8288C2B0E94E02869C10E94D82820
:1041D0008C2B1DC0112319F0113009F460C10E940D
:1041E000E92825C0DD2321F0163008F058C10EC0A3
:1041F000153008F054C11BC0DD2361F0112331F0EC
:10420000F701858180FF26C18F7085838C2F0E94E6
:10421000582045C1112359F0093309F02CC1FFEF93
:1042200027EE83E0F15020408040E1F722C18C2F3F
:104230000E945F2034C18C2F86958695837019F07B
:10424000813061F02CC1DD2321F0802F9C2F9370F1
:1042500002C080E090E00E94E21D29C1DD2321F030
:10426000802F9C2F937002C080E090E00E94F81D88
:104270001EC18C2F837009F045C0D11114C1402F8D
:10428000429546954770440F440F602F6F70862FFC
:1042900090E0A0E0B0E0042E04C0880F991FAA1F90
:1042A000BB1F0A94D2F704FF10C00FE010E020E01B
:1042B00030E004C0000F111F221F331F4A95D2F7B0
:1042C000009510952095309503C000E010E098010E
:1042D000C695C695C370BC01CD01602B712B822B96
:1042E000932BC23049F058F4C13019F00E94E326F4
:1042F000DAC00E94D126D7C00E94F526D4C00E9401
:10430000CF26D1C0DD2319F08C2F817001C0869596
:10431000882309F4C8C0402F429546954770440F42
:10432000440F602F6F70862F90E0A0E0B0E0042E65
:1043300004C0880F991FAA1FBB1F0A94D2F704FF5D
:1043400010C00FE010E020E030E004C0000F111FAB
:10435000221F331F4A95D2F700951095209530956E
:1043600003C000E010E09801C695C695C370BC017B
:10437000CD01602B712B822B932BC23049F058F466
:10438000C13019F00E94A8278EC00E9496278BC0CA
:104390000E94BA2788C00E94092785C0CF70DD23FC
:1043A00039F08C2F0E942F27802F0E9458207BC02D
:1043B000802F0E945F208C2F0E94502774C0023FE4
:1043C00001F128F4003F41F0013FA1F03FC0033F5D
:1043D000F9F0043F39F13AC0DD2341F0153008F01F
:1043E0005EC08C2F8F710E94752759C0163008F05F
:1043F00056C0F7CFDD2339F08C2F8F710E942F2705
:104400004EC0DD23C9F38C2F8F710E94502747C007
:10441000DD2329F08C2F8F710E941A2740C00E9443
:1044200015273DC0DD2349F0CF718C2F0E942F2727
:1044300063E08C2F0E94282932C081E00E943D2930
:10444000123068F182E00E943D2929C0DD2331F05D
:10445000112391F2802F0E94441F21C0112399F251
:10446000093349F49FEFE7EEF3E09150E040F0406C
:10447000E1F700C00000802F0E94E61F10C04C2F03
:104480004F70602FC7010E94C6070E9440260FC0D0
:104490004C2F4F70602FC7010E94C90708C088EFDA
:1044A0008C0D843020F40E94811D0E944707DD207E
:1044B000C9F00E949A2880FD15C0F70112820E945F
:1044C00094280E942F27C7010E9493220E949428BB
:1044D000DF91CF911F910F91FF90EF90DF90CF90E0
:1044E0000C945027DF91CF911F910F91FF90EF9087
:1044F000DF90CF9008950F931F93CF93DF93EC013C
:10450000688179818A810E9471288C010E94CC2760
:104510000E94BD26B801CE010E946620DF91CF9196
:104520001F910F910895CF93DF93EC0198818981BA
:104530002B813C81232B31F08F3F31F481E09F3F71
:1045400019F403C081E001C080E080FD19C0CE01F4
:104550000E94600781110CC00E949E28882381F070
:104560008A81882369F082E0DF91CF910C943D2904
:10457000CE010E947B22CE01DF91CF910C942B07BC
:10458000DF91CF9108950E94C5280E94D5280E94EE
:10459000F32880E090E00E94E21D80E090E00C941F
:1045A000F81D80913C0190913D010E94F72A0C94E6
:1045B000C3220E94B5280C94D122E92FE295EF7016
:1045C0004E2F50E0FA013297EE30F105B0F4E65884
:1045D000FF4F0C941134803F91F018F4883E68F43A
:1045E0000EC0843F51F40BC0883E48F0813F29F44F
:1045F00006C093FB882780F9089580E0089581E044
:1046000008950E9466280E94DD220895CF93DF93CB
:1046100000D000D01F92CDB7DEB70F900F900F9053
:104620000F900F90DF91CF910895CF93DF9300D03B
:1046300000D000D0CDB7DEB726960FB6F894DEBF17
:104640000FBECDBFDF91CF9108951F93CF93DF931E
:10465000C091A40216E08091A502C81799F0D0E09D
:104660001C9FF0011D9FF00D1124EA55FD4F408164
:10467000518162817381848195810E9415232196E5
:10468000C770E9CFDF91CF911F9108954091D60275
:104690005091D7026091D8027091D9028091DA02CC
:1046A0009091DB020C9415230F931F93CF93DF930C
:1046B0008091DB0282958F7009F05DC08091D802F5
:1046C000882309F458C08091A4021091A50260913A
:1046D000D6027091D702C091D902D091DA0291E04E
:1046E0006F3F09F090E0292F06E0811709F443C0DD
:1046F000209721F07F3F21F030E003C031E001C07E
:10470000322F90E030FD34C0089FF001099FF00D7A
:104710001124DF01AA55BD4F11963C911197371313
:1047200027C03C91361324C012963C911297311148
:104730001FC013964D915C9114974C1B5D0B483C28
:104740005105B0F48091DB028F7080618093DB02B1
:10475000E555FD4F80818F708061808386ED92E00A
:104760000E949322DF91CF911F910F910C942523EA
:1047700001968770BACFDF91CF911F910F91089565
:104780009F92AF92BF92CF92DF92EF92FF920F93E0
:104790001F93CF93DF93CDB7DEB761970FB6F89431
:1047A000DEBF0FBECDBF8C0185E0F801DE011D9696
:1047B00001900D928A95E1F7F80140815181E280E4
:1047C0009091D6026091D7022091D9023091DA02FD
:1047D0002115310531F06F3F31F481E09F3F19F42D
:1047E00003C081E001C080E0F82FF1709F2E80FDB2
:1047F00046C1F801A380B48086EDC82E82E0D82E91
:10480000F090D802F501E21BF30BFF2009F4DFC0A2
:104810008091DB02E83CF10508F09BC0282F207F47
:1048200009F052C0561313C0491311C0FE2CE110F9
:104830000EC08F7080618093DB020E944623C60108
:104840000E9493228091DB02F801858358C1AB2836
:1048500031F05F3F31F481E04F3F19F403C081E054
:1048600001C080E080FD03C081E08E2502C080E0B1
:1048700090E0F82FF170FF2E80FF1CC08091A40201
:104880002091A50236E0821709F417C190E0389F05
:10489000F001399FF00D1124EA55FD4F6181561347
:1048A00006C06081461303C06281E61203C0019610
:1048B0008770E9CFFE2CEE2009F421C18091DB0244
:1048C00081608093DB025AC0561306C0491304C0AE
:1048D000E11002C0F8019FC04D875E878D859E85DF
:1048E0000E940123882379F1EE2069F12091DB02F7
:1048F000822F82958F7090E0029774F08091D6029B
:104900009091D70298878F831986BB86AA862C87B9
:10491000CE0107960E94932286E0F801A6EDB2E050
:1049200001900D928A95E1F70E9454230E9446233C
:104930000DC0561729F14D875E878D859E850E9493
:10494000012381112CC0C8010E949322FF24F394FB
:10495000D6C0282F207F69F77A2DB98AA88A6E2DB4
:1049600089890E94062386ED92E00E94932286E0C8
:10497000F60111928A95E9F70E944623F12CBFC0F7
:104980004913D9CFE110D7CFF8018583C8010E9420
:10499000932286E0F60111928A95E9F7B0C0EE20E5
:1049A00091F22091DB02822F82958F7090E0029726
:1049B0000CF4B2CF8091D6029091D7029A8389836A
:1049C0001B82BD82AC822E83CE010196A3CFE83C30
:1049D000F10508F047C0FE2CEE2009F4B4CF5613C1
:1049E00030C049132EC02091DB0220FD21C0822F50
:1049F00082958F70482F50E041155105C9F0F8019C
:104A000025834F30510541F08F5F982F9295907F0D
:104A1000822F8F70892B8583C8010E94932286E0A4
:104A2000F801A6EDB2E001900D928A95E1F742C03F
:104A300086E0F801A6EDB2E001900D928A95E1F7CB
:104A40005EC04D875E878D859E850E940123811102
:104A500063CF8091DB0281608093DB02C8010E94FA
:104A600093224DC07A2DB98AA88A6E2D89890E9419
:104A7000062386E0F60111928A95E9F71BC0EE2025
:104A800009F461CF4D875E878D859E850E94012345
:104A9000F82E882309F457CF86E0F801A6EDB2E09E
:104AA00001900D928A95E1F786ED92E00E943E1FFB
:104AB0000E9454230E94462322C04D875E878D8525
:104AC0009E850E946628292F22952F70223028F477
:104AD0009F7039F0811105C00BC0243028F49F70FD
:104AE00049F4805E883020F0C8010E9493229F2CF8
:104AF000F92C05C0F8019581907F99F7F9CF8F2D9A
:104B000061960FB6F894DEBF0FBECDBFDF91CF9197
:104B10001F910F91FF90EF90DF90CF90BF90AF90DB
:104B20009F9008951F93CF93DF93CDB7DEB72C9757
:104B30000FB6F894DEBF0FBECDBF4F83588769878D
:104B40007A878B879C87CE0107960E94C023882393
:104B5000D1F09F8188852A853B85232B31F08F3FBB
:104B600031F481E09F3F19F403C081E001C080E08F
:104B700080FD47C04F81588569857A858B859C85E6
:104B80000E9415233EC086E0FE013796DE01119695
:104B900001900D928A95E1F7FF81E8856A857B8512
:104BA0006115710531F0EF3F31F481E0FF3F19F4F9
:104BB00003C081E001C080E080FD23C02091A502F8
:104BC00030E0C9010196877099274091A40250E016
:104BD00084179507F1F1F983EA837D836C8396E06E
:104BE000929FD001939FB00D1124AA55BD4FFE0195
:104BF000319601900D929A95E1F78093A5020E945B
:104C0000252316E08091A4029091A502891771F1E5
:104C1000189FC00111248A559D4F0E94C0238823EC
:104C200029F1E091A4021E9FF0011124EA55FD4FE5
:104C30004081518162817381848195810E94152315
:104C40008091A40290E00196877099278093A40236
:104C5000D9CF0E94D9221092A5021092A402E6EDAB
:104C6000F2E086E0DF011D928A95E9F72C960FB6F7
:104C7000F894DEBF0FBECDBFDF91CF911F91089595
:104C8000EF92FF920F931F93CF93DF938C01892BA9
:104C900009F46CC0F12CEE24E394E8012196F801AC
:104CA0008491843740F4843008F051C0813081F021
:104CB000823019F15BC0853709F444C0A8F19CE744
:104CC000980F903708F052C08F770E94E61F41C0BE
:104CD0000E5F1F4FFE01849190E2980F983050F4C0
:104CE0008770FE2D01C0FF0F8A95EAF78F2F0E9473
:104CF000C82814C00E94441F2DC00E5F1F4FFE0124
:104D0000849190E2980F983060F48770FE2D01C076
:104D1000FF0F8A95EAF78F2F0E94CE280E94F32872
:104D200019C00E94E61F16C00E5F1F4FFE01C491FE
:104D3000CC2381F08FE99FE00197F1F700C00000DC
:104D4000C150F6CF0E5F1F4FFE01F49003C00E94CA
:104D5000441F8E018F2D882309F49FCFEFE9FFE0D8
:104D60003197F1F700C000008150F5CFDF91CF916E
:104D70001F910F91FF90EF900895089508950C945E
:104D8000BE260C94BF260E94C12660931C0370931C
:104D90001D0380931E0390931F030C94C3220C9455
:104DA000C3260F931F9300911C0310911D032091A4
:104DB0001E0330911F03602B712B822B932B1F91AD
:104DC0000F910C94C3260F931F9300911C03109115
:104DD0001D0320911E0330911F0360237123822342
:104DE00093231F910F910C94C3260F931F9300914F
:104DF0001C0310911D0320911E0330911F03602797
:104E00007127822793271F910F910C94C3260C942E
:104E1000BE260E940727609318037093190380939E
:104E20001A0390931B030C94C32260E070E0CB0143
:104E30000C9409270F931F9341E050E060E070E06D
:104E40008A019B0104C0000F111F221F331F8A9586
:104E5000D2F7C901B8011F910F910C9409270F9344
:104E60001F9341E050E060E070E004C0440F551F24
:104E7000661F771F8A95D2F78091180390911903C6
:104E8000A0911A03B0911B038A019B01082B192BD7
:104E90002A2B3B2BC901B8011F910F910C940927B4
:104EA0000F931F9341E050E060E070E004C0440FB6
:104EB000551F661F771F8A95D2F7409550956095CC
:104EC00070958091180390911903A0911A03B091E5
:104ED0001B038A019B01082319232A233B23C901B1
:104EE000B8011F910F910C9409270F931F9341E074
:104EF00050E060E070E004C0440F551F661F771F4C
:104F00008A95D2F78091180390911903A0911A0302
:104F1000B0911B038A019B01082719272A273B27E9
:104F2000C901B8011F910F910C9409270F931F938A
:104F3000009118031091190320911A0330911B035B
:104F4000602B712B822B932B1F910F910C940927AF
:104F50000F931F93009118031091190320911A03C6
:104F600030911B0360237123822393231F910F91A0
:104F70000C9409270F931F930091180310911903A4
:104F800020911A0330911B036027712782279327F2
:104F90001F910F910C940927089529E0929F800D8D
:104FA0001124E82FE695E695E695877051E001C05B
:104FB000550F8A95EAF785E0E89FF0011124E45245
:104FC000FD4F20E030E070E04081CB01022E02C0B6
:104FD000969587950A94E2F78170819584278523B9
:104FE000842781932F5F3F4F2530310569F708955E
:104FF00029E0929F800D1124682F6695669566952D
:10500000982F977085E0689FB001112440E050E030
:1050100080E0FB01E40FF51FE452FD4F208130E0FA
:10502000092E02C0369527950A94E2F7217033279E
:10503000042E01C0220F0A94EAF7822B4F5F5F4FC4
:105040004530510531F70895BF92CF92DF92EF922C
:10505000FF920F931F93CF93DF938C01C09018039F
:10506000D0901903E0901A03F0901B0380911C0369
:1050700090911D03A0911E03B0911F03C82AD92A45
:10508000EA2AFB2ACFE1D0E0D701C6010C2E04C0EA
:10509000B695A795979587950A94D2F780FD04C099
:1050A000219790F7B12C07C0BC2EB8018C2F0E941D
:1050B000E5070197A9F38B2DDF91CF911F910F91F8
:1050C000FF90EF90DF90CF90BF900895CF93DF9344
:1050D000EC010E942428BE010E94E507DF91CF91D8
:1050E00008951F93CF93DF93EB019091A30299232F
:1050F00021F0CB010E94662813C0882349F0CB0120
:105100000E942428182F682FCE010E94CD2704C0AA
:10511000CB010E94F827182FBE01812F0E94E507BE
:10512000DF91CF911F9108958091200385958595FA
:1051300085950895809120038770089590912003AC
:10514000977081E009F480E0089580914403089508
:1051500090914403892B8093440308958095909106
:1051600044038923809344030895109244030895CF
:1051700090914303892B80934303089580959091E8
:1051800043038923809343030895109243030895B2
:1051900090914203892B80934203089580959091CA
:1051A0004203892380934203089510924203089595
:1051B00080912103089508950C94DB280C94DC2839
:1051C00090912103981721F0809321030C94DE28FD
:1051D000089580912103882329F01092210380E013
:1051E0000C94DE280895E0913C01F0913D018091FE
:1051F00044038083E0913C01F0913D0190818091D6
:105200004303892B8083E0913C01F0913D01908123
:1052100080914203892B808380912103882381F030
:10522000E0913C01F0913D019081892B8083809138
:105230003C0190913D010E94292A81110E94E92898
:1052400080913C0190913D010C948D1D0C94DB28C4
:1052500098E0899F90011124262B209320030E941F
:105260002F27809120038595859585950C94262977
:105270001092200380E00C94262920912003809531
:10528000822380932003982F977079F430E0482F81
:10529000082E000C550B2417350739F08595859598
:1052A00085950E9450270C94382908959093FF010A
:1052B0008093FE0108958295982F937344E0949F04
:1052C000900111248C7C86958695282B822F8575DC
:1052D000880F2A7A2695822B0895CF93DF93D92FB2
:1052E0000E945B29C82F8D2F0E945B292C2F30E054
:1052F000322F2227A901482BCA01DF91CF910895AF
:1053000080E090E00E94A83421E08C3E9E4F09F09E
:1053100020E0822F089582E090E00C949A3483E09C
:1053200090E00C949A34CF9384E090E00E949A34F9
:10533000C82F81E290E00E949A342C2F30E0A9011E
:10534000582BCA01CF910895CF93C92F682F84E0BD
:1053500090E00E94AE346C2F81E290E0CF910C94EB
:10536000AE3486E090E00C949A34682F86E090E0AA
:105370000C94AE34AB01BC018FE090E00C94C034CF
:10538000AB01BC0183E190E00C94C03460E070E0BC
:10539000CB010C94C0296CEE7EEF80E090E00E947F
:1053A000CC3460E082E090E00E94AE3460E083E0C4
:1053B00090E00E94AE3410921C0310921D031092D4
:1053C0001E0310921F0360E084E090E00E94AE3460
:1053D00060E081E290E00E94AE3460E085E090E021
:1053E0000E94AE3460E086E090E00E94AE346FEF41
:1053F00087E090E00E94AE3440E050E0BA0188E0DF
:1054000090E00E94C03460E08DE090E00E94AE34F5
:1054100040E050E0BA0188E190E00E94C03460E0D2
:1054200087E190E00E94AE3440E050E0BA018CE1A8
:1054300090E00E94C03460E080E290E00E94AE34D0
:105440000C94D0060C94CB29682F8EE090E00C943D
:10545000AE34FC01329680914801882331F080916E
:10546000D10387FF02C09EE101C096E080E0915029
:1054700028F021912223D9F38F5FF9CF0895662375
:1054800051F1209148012223E9F02091D10327FF17
:1054900019C0462F4695469546954E31E0F4677003
:1054A00021E030E002C0220F331F6A95E2F7FC01D1
:1054B000E40FF11D828190E02823392381E0232B22
:1054C00069F409C0FC01329608962191621729F00F
:1054D000E817F907D1F780E0089581E008959C016D
:1054E000FC0132969FEF80E04191461789F09F3F83
:1054F00019F4411101C0982F8F5F8630A9F79F3FA3
:1055000039F0F901E90FF11D97FDFA9562830895CD
:1055100008959C012A5F3F4FFC014281461301C060
:105520001282019682179307B9F70895262F2695C0
:10553000269526952E3170F4FC01E20FF11D67705F
:1055400021E030E001C0220F6A95EAF78281282B22
:10555000228308958091450380FF0CC01F926F93B2
:1055600086EC99E09F938F930E94B2060F900F9064
:105570000F900F900895262F2695269526952E316B
:1055800078F4FC01E20FF11D677021E030E001C00A
:10559000220F6A95EAF720958281282322830895B5
:1055A0008091450380FF0CC01F926F9388EA99E0B9
:1055B0009F938F930E94B2060F900F900F900F90C1
:1055C000089520914801222329F02091D10327FD3D
:1055D0000C94962A0C946F2A20914801222329F0DA
:1055E0002091D10327FD0C94BB2A0C94892A209189
:1055F0004801FC013296222331F08091D10387FFCC
:1056000002C08EE101C086E0DF011D928A95E9F7B4
:10561000089508950C94092B0C94092BCF930E94A4
:105620000C2B0E94090B0E940A2BC0E08C2F0E94B9
:10563000CE09892B29F4CF5FCA30C1F780E001C0C1
:1056400081E0CF9108950C94092B0C94232B0E9498
:10565000252B8091D703843061F11092460320E41A
:1056600088E190E00FB6F894A895809360000FBE93
:105670002093600080E00E94031880E00E944707AA
:105680000E94252B83B7817F846083BF83B78160AD
:1056900083BF7894889583B78E7F83BF0FB6F894C5
:1056A000A8958091600088618093600010926000EE
:1056B0000FBE08950C94092B0E94D9220E948816CF
:1056C0000E94811D0E9447070C945A2B1F920F9233
:1056D0000FB60F9211248F939F93AF93BF93809136
:1056E0004603811113C08091CD039091CE03A09108
:1056F000CF03B091D0034196A11DB11D8093CD037E
:105700009093CE03A093CF03B093D003BF91AF91FA
:105710009F918F910F900FBE0F901F90189582E070
:1057200084BD93E095BD9AEF97BD80936E00089578
:105730002FB7F8948091CD039091CE03A091CF0321
:10574000B091D0032FBF08959C014FB7F89480917A
:10575000CD039091CE03A091CF03B091D0034FBF62
:10576000821B930B089578941F920F920FB60F929D
:1057700011248F939F93AF93BF938091CD0390910A
:10578000CE03A091CF03B091D0030196A11DB11D0E
:105790008093CD039093CE03A093CF03B093D00317
:1057A000BF91AF919F918F910F900FBE0F901F905F
:1057B000189581E08093E00080E28093D8001092F9
:1057C000C9008FE19EE40197F1F700C0000087E077
:1057D00090EBDC018093E0039093E103A093E2035C
:1057E000B093E3039CE088E10FB6F894A89580930A
:1057F00060000FBE90936000FFCF0E94802981114E
:1058000002C00E94222A0E948B29809345030E9495
:1058100093299093D2038093D1030E948F29682FFC
:1058200070E080E090E00C94CF2680916A030895A8
:1058300008959FB7F894109249039FBF9091D703A2
:10584000943009F057C09091E9009F703091EC00BE
:10585000232F217030FD20E8922B23E02093E900D4
:105860002091EB0020FF43C02091EE0027FF3FC0B6
:1058700020914703222321F02091E80025FF37C023
:105880001092470326E03091E80035FD15C03091B5
:10589000D703343061F53091EB0035FD28C021503D
:1058A00021F481E08093470322C0EFE9FFE03197C4
:1058B000F1F700C00000E7CF8093F1008091E8008D
:1058C00085FD0AC08091E80080FFFCCF8091E80050
:1058D0008E778093E80006C08FB7F89421E020937C
:1058E00049038FBF9F709093E90080E008959F70F7
:1058F0009093E9008FEF0895CF93DF9300D01F922C
:10590000CDB7DEB79091D703943019F589837B83A7
:105910006A8382E08093E9008FEF9091E8008150E4
:1059200095FD06C095ED9A95F1F700008111F5CF30
:105930008091E80085FF0DC040E050E063E070E03A
:10594000CE0101960E940E2F8091E8008E77809301
:10595000E8000F900F900F90DF91CF910895CF93B3
:10596000DF93EC010E94F12E823011F0843031F48B
:10597000BE0184E0DF91CF910C947C2CDF91CF911C
:105980000895BC0183E00C947C2CCF93DF93EC0151
:105990000E94F12E823011F08430D9F580914801B7
:1059A000882339F08091D10387FF03C060E282E051
:1059B00002C068E081E08093E9008FEF9091E800F9
:1059C000815095FD06C095ED9A95F1F70000811183
:1059D000F5CF8091E80085FF1CC0809148018111BE
:1059E00005C040E050E068E070E003C070E040E0D7
:1059F00050E0CE010E940E2F8091E8008E778093B8
:105A0000E80080E2FE01AAE4B3E001900D928A95DD
:105A1000E1F7DF91CF91089589E09AE00E9419069D
:105A20008091D603811109C00E949F300E94FC30F2
:105A30008091E20084608093E200089585E09AE01E
:105A40000E9419061092D603089581E09AE00C9402
:105A500019068DEF99E00C94190689EF99E00E94E0
:105A600019060C945C2B209148032F5F822F62E370
:105A70000E94BB33992319F0209348030895109294
:105A8000480380914903882371F18091D7038430C2
:105A900041F58091E9008F702091EC00922F917078
:105AA00020FD90E8892B93E09093E9009091EB0022
:105AB00090FF14C09091EE0097FF10C09091E80005
:105AC00095FF03C01092F100F9CF9091E80090FF8C
:105AD00005C09091E8009E779093E8008F708093C6
