:100000000C9420060C94C91D0C9467060C9467068A
:100010000C9467060C9467060C9467060C946706AC
:100020000C9467060C9467060C94CA320C949C33AB
:100030000C94162D0C9467060C9467060C946706B6
:100040000C9467060C9467060C9467060C9467067C
:100050000C9467060C94632D0C9467060C94670649
:100060000C9467060C9467060C9467060C9467065C
:100070000C9467060C9467060C9467060C9467064C
:100080000C9467060C9467060C9467060C9467063C
:100090000C9467060C9467060C9467060C9467062C
:1000A0000C9467060C9467060C94670686178917EC
:1000B0008E1795179A179F17A417A917AE17B3177E
:1000C000B817BD17BF17C217C517C817CB17CE175C
:1000D000D017D517FC21FC212E222E227B22AF2304
:1000E000AF23AF2399222E233F233F239F23AF2308
:1000F000AF23A8234B244B245D245D2454245D248A
:100100005D245D244B244B2459245D245D24592413
:10011000093430342835303428357C349F34283540
:10012000F6340535C2AF5C5F282D2E2D295F2FC216
:10013000AF000102E101012B0103E1000A5DB20001
:10014000165C1E001F0020002100220023003A0040
:100150003B002B0014001A000800150017000000D7
:100160003D003E00025104001600070009000A008D
:10017000000040004100E10000001D001B000600DF
:100180001900050044004500E000E300E2000151D1
:1001900000002C00000024002500260027002D0070
:1001A0002E002A002A00A8001C0018000C001200D3
:1001B00013002F003000310048000B000D000E002E
:1001C0000F0033003400000028004600110010002A
:1001D0003600370038000000E10052004900650099
:1001E0002C00E6000151E4000000500051004F00D7
:1001F000C05CBF5C35003A003B003C003D003E0067
:100200003F00BB5CBE5C0100010001000100010079
:1002100001000000BC5CBD5C390001000100010070
:10022000010001000000BD00BE000100000001004F
:1002300001000100010001004C00055501000F5CA8
:1002400001000100000001000000400041004200E8
:100250004300440045004C004C0001000100010037
:100260000100010001000100010001000100010086
:100270000100010001000100010000000100010077
:1002800001000100010001000100000001004B001D
:1002900001000100010001000100010000004A000E
:1002A0004E004D00C35CC25C010003000100010070
:1002B000010001000100CB5CC95C010001000500E8
:1002C0000000010001000000CC5CCA5C025101008A
:1002D00001000100010001000000C75CC55C0100D5
:1002E000000001000100010001000100C85CC65CC3
:1002F0000100065C01000100000001000000010097
:1003000001000100010001000100010001000100E5
:1003100001000100010001000100010001000100D5
:1003200001000100010001000100010001000000C6
:1003300001000100010001000200010004000000B2
:1003400001000100010001000100010001000100A5
:10035000000001000100010044454255473A206475
:10036000697361626C65642E0A0044454255473AE0
:1003700020656E61626C65642E0A0000000000005A
:100380000000002A2B2800000000000000000000F0
:1003900000000000000029000000002C1E34202175
:1003A0002224342627252E362D3738271E1F2021BC
:1003B00022232425263333362E37381F040506071B
:1003C00008090A0B0C0D0E0F101112131415161735
:1003D00018191A1B1C1D2F3130232D350405060753
:1003E00008090A0B0C0D0E0F101112131415161715
:1003F00018191A1B1C1D2F3130354C00000000004D
:100400000000000000000000000000000000007E6E
:100410000F00D4FFFFFFC7000000780A002530312D
:100420003662003A200025303258000A722F6320CD
:10043000303132333435363738394142434445461A
:100440000A007267626C6967687420616E696D6129
:1004500074696F6E207469636B207265706F72745B
:1004600020746F20736C6176650A007267626C6934
:100470006768742074696D65722064697361626C69
:10048000652E0A007267626C696768742074696D12
:10049000657220656E61626C65642E0A0072676227
:1004A0006C696768742073657420687376205B4E8E
:1004B0004F454550524F4D5D3A2025752C25752CE2
:1004C00025750A007267626C6967687420736574C9
:1004D00020687376205B454550524F4D5D3A20258C
:1004E000752C25752C25750A007267626C69676822
:1004F00074207261696E626F77207365742068730F
:10050000763A2025642C25642C25642C25750A0058
:100510007267626C696768742064697361626C6594
:10052000205B4E4F454550524F4D5D3A20726762F9
:100530006C696768745F636F6E6669672E656E616C
:10054000626C65203D2025750A007267626C6967E0
:1005500068742064697361626C65205B4545505224
:100560004F4D5D3A207267626C696768745F636FB4
:100570006E6669672E656E61626C65203D2025752B
:100580000A007267626C6967687420656E61626CEC
:1005900065205B454550524F4D5D3A207267626C55
:1005A000696768745F636F6E6669672E656E616206
:1005B0006C65203D2025750A007267626C6967686A
:1005C0007420746F67676C65205B454550524F4DD2
:1005D0005D3A207267626C696768745F636F6E660C
:1005E00069672E656E61626C65203D2025750A0085
:1005F0007267626C69676874206D6F6465205B4E1A
:100600004F454550524F4D5D3A2025750A0072679F
:10061000626C69676874206D6F6465205B45455046
:10062000524F4D5D3A2025750A007267626C69670A
:1006300068745F696E6974207267626C6967687458
:100640005F636F6E6669672E6D6F6465203D203055
:100650002E2057726974652064656661756C74201C
:1006600076616C75657320746F20454550524F4D0F
:100670002E0A007267626C696768745F696E6974DC
:10068000206565636F6E666967206973206E6F749D
:1006900020656E61626C65642E0A007267626C6927
:1006A0006768745F696E6974207374617274210A7B
:1006B000007267626C696768745F696E6974206351
:1006C000616C6C65642E0A007267626C696768749D
:1006D0005F636F6E6669672E7370656564203D2089
:1006E00025640A007267626C696768745F636F6E85
:1006F0006669672E76616C203D2025640A0072676A
:10070000626C696768745F636F6E6669672E736198
:1007100074203D2025640A007267626C6967687402
:100720005F636F6E6669672E687565203D2025647E
:100730000A007267686C696768745F636F6E6669E8
:10074000672E6D6F6465203D2025640A0072676224
:100750006C696768745F636F6E6669672E656E614A
:10076000626C65203D2025640A007267626C6967CF
:1007700068745F636F6E66696720454550524F4DE0
:100780003A0A0032190A00047F3F1F6432146432AF
:1007900014783C1E1E140A052223252628292A2CFB
:1007A0002D2F3032333536383A3B3D3E40424345BB
:1007B00047494A4C4E5051535557595A5C5E6062F6
:1007C000646668696B6D6F71737577797B7D7F8106
:1007D000838587898A8C8E90929496989A9C9E9F06
:1007E000A1A3A5A7A8AAACAEAFB1B3B4B6B8B9BB24
:1007F000BCBEBFC1C2C3C5C6C7C9CACBCCCDCED093
:10080000D1D2D2D3D4D5D6D7D7D8D9D9DADADBDB7F
:10081000DBDCDCDCDCDCDDDDDDDDDCDCDCDCDCDB16
:10082000DBDBDADAD9D9D8D7D7D6D5D4D3D2D2D15F
:10083000D0CECDCCCBCAC9C7C6C5C3C2C1BFBEBC52
:10084000BBB9B8B6B4B3B1AFAEACAAA8A7A5A3A1C3
:100850009F9E9C9A98969492908E8C8A8987858385
:10086000817F7D7B79777573716F6D6B6968666465
:1008700062605E5C5A5957555351504E4C4A494735
:10088000454342403E3D3B3A3836353332302F2DDA
:100890002C2A292826252322FFAA7F55400102035E
:1008A0000C0D0E0F00070605040B0A0908626163B0
:1008B0006B6C6967687420737465703A2025750ADB
:1008C000006261636B6C696768742064697361625C
:1008D0006C650A006261636B6C6967687420656EA1
:1008E00061626C650A006261636B6C6967687420A1
:1008F000746F67676C653A2025750A006261636BE7
:100900006C696768742064656372656173653A2019
:1009100025750A006261636B6C6967687420696E93
:100920006372656173653A2025750A000001010153
:10093000010101010101020202020202020202039C
:10094000030303030303030404040404040405056C
:10095000050505060606060607070707070808082F
:1009600008090909090A0A0A0B0B0B0C0C0C0D0DDE
:100970000D0E0E0E0F0F0F10101111111212131376
:100980001414151516161717181819191A1A1B1BEF
:100990001C1D1D1E1E1F202021222223242425264B
:1009A00026272829292A2B2C2D2D2E2F3031323283
:1009B000333435363738393A3B3C3D3E3F4041428F
:1009C000434445464748494A4C4D4E4F5051535475
:1009D000555658595A5B5D5E5F6162646566686929
:1009E0006B6C6D6F7072737577787A7B7D7E8082A9
:1009F000838587888A8C8E8F91939596989A9C9EF2
:100A0000A0A2A3A5A7A9ABADAFB1B3B5B7BABCBE01
:100A1000C0C2C4C6C9CBCDCFD1D4D6D8DBDDDFE2CE
:100A2000E4E7E9EBEEF0F3F5F8FAFDFF0A00253014
:100A3000325820006B6579626F6172645F72657015
:100A40006F72743A20000A0025303258006B6579C5
:100A5000626F6172645F7365745F6C65643A2000F5
:100A600064656C5F6B65795F6269743A2063616E7F
:100A700027742064656C3A20253032580A0061647E
:100A8000645F6B65795F6269743A2063616E277495
:100A9000206164643A20253032580A005B735D009F
:100AA0004B6579626F6172642073746172742E0A8F
:100AB000005B575D005B535D005B525D005B445D16
:100AC000005B435D00040330000000220351007509
:100AD0000065006600720065006E0063007900200A
:100AE000005200650076002E002000320000000E4B
:100AF000034B0065006500620069006F00000004A0
:100B000003090409025B00030100A0FA09040000C4
:100B10000103010100092111010001224000070524
:100B2000810308000A0904010001030000000921F3
:100B300011010001226D000705820320000A09044B
:100B4000020002030000000921110100012222001D
:100B5000070583032000010705030320000112019C
:100B600010010000000810CB57220002010203010F
:100B70000631FF0974A1010975150026FF009520B3
:100B8000750881020976150026FF009520750891E9
:100B900002C005010980A101850319012AB70015CA
:100BA0000126B700950175108100C0050C0901A14F
:100BB00001850419012AA002150126A002950175DC
:100BC000108100C005010906A1018505050719E08E
:100BD00029E715002501950875018102050719000F
:100BE00029EF1500250195F075018102050819010D
:100BF0002905950575019102950175039101C005BF
:100C0000010906A101050719E029E715002501954D
:100C100008750181029501750881010507190029F0
:100C2000FF150026FF0095067508810005081901CB
:100C30002905950575019102950175039101C00083
:100C400011241FBECFEFDAE0DEBFCDBF04B603FE36
:100C500027C08091E0039091E103A091E203B0915D
:100C6000E3038730904BA740B04BD1F41092E003E0
:100C70001092E1031092E2031092E30314BE84B7D2
:100C8000877F84BF0FB6F894A89580916000886133
:100C900080936000109260000FBEE0E0F8E30995D9
:100CA00011E0A0E0B1E0E6E7FDE602C005900D929C
:100CB000AE3FB107D9F723E0AEEFB1E001C01D921E
:100CC000A03EB207E1F70E94F02F0C94B9360C94C5
:100CD0000000FF93EF93E091FE01F091FF01309748
:100CE00009F00995EF91FF910895FC0185918030FD
:100CF00011F0EFDFFBCF0895FF27E0E230E247FF7E
:100D00000CC0419597FF09C0EDE260957095809504
:100D10009095611D711D811D911D27FF02C02195B8
:100D200030E350E2AA27660F771F881F991FAA1F7A
:100D3000A41710F0A41B63955A95A9F7AA3008F0E0
:100D4000A95FA05DAF93F3956115710581059105CC
:100D500041F7ED3211F4EF93F395F21718F43F9346
:100D6000F395FBCF8F91B5DFFA95E1F70895E991FF
:100D7000F9918591803021F0853219F0AADFF9CF01
:100D8000089520E0E89455915532C1F3503311F4A1
:100D9000689455915A3348F4505390F3220F022E21
:100DA000220F220F200D250FF4CF0EF421958991EB
:100DB0009991533619F3533729F1533559F1BC0141
:100DC00088279927E8945C3621F489919991689451
:100DD0005591543639F446EF7EF077FF0DC08FEF12
:100DE0009FEF0AC055374AE039F0583540E121F00D
:100DF000523642E009F00895FF93EF937DDFEF91C3
:100E0000FF91B7CFFF93EF93FC0181918030B9F34D
:100E100060DFFBCFFF93EF9368DFF1CFDF93CF93DA
:100E2000CDB7DEB72596A3DFCF91DF910895269A3F
:100E30000C94880BCF9390911701992351F0C82FF0
:100E40000E94A608882329F0C1FD02C02E9A01C085
:100E50002E9881E0CF9108950E94791883E00E9436
:100E600029190E9442154FEF6FEF80E00E94D711C1
:100E70008BE00E943F1560E070E0CB010E946A2B7E
:100E80000C94762B89302DE5920721F08A309D4510
:100E900041F00FC0FB018281882359F082E391E089
:100EA00006C0FB018281882321F084E291E00E9448
:100EB000940881E00895CF93C62F811118C06091E6
:100EC00018037091190380911A0390911B030E94DB
:100ED000BB2A813031F4CC2311F08CEF19C08BEF99
:100EE00017C0CC2311F08AEF13C089EF11C08130F5
:100EF00091F4609118037091190380911A039091F5
:100F00001B030E94BB2ACC2311F089EA01C08AEAA4
:100F1000CF910C94A521CF91089581E008950C9470
:100F2000420708950C9491071F93CF93DF9300D04D
:100F300000D01F92CDB7DEB749835A836B833091BF
:100F4000A30289819A81311114C0662359F02223AA
:100F500049F00E948429182F682F89819A810E9464
:100F60002D2903C00E945829182F69817A81812F69
:100F700004C00E94842969817A810F900F900F909C
:100F80000F900F90DF91CF911F910C942B09FC01D2
:100F9000262F408151816281738184810C94940752
:100FA000CF93DF93EC0160E00E94C707BE01DF91A1
:100FB000CF910C949207FF920F931F93CF93DF93DF
:100FC000E82FF0E0E558FC4FF490C82FC695C69581
:100FD000C695D0E0FE01E55FFB4F0491877010E0FD
:100FE000082E02C0159507950A94E2F701701127A3
:100FF000FE01E550FC4FC491D0E002C0D595C795E5
:101000008A95E2F7C170DD270115110519F081EE0F
:101010000E94A420209719F086EE0E94A4208F2D14
:101020000E94A521CD2B19F086EE0E944621012BAE
:1010300041F081EEDF91CF911F910F91FF900C94C1
:101040004621DF91CF911F910F91FF900895EF926C
:10105000FF920F931F93CF93DF938C01F62E8AE0BC
:10106000E82EF8018491882309F457C0813009F0F3
:1010700042C0E8012196FE018491813031F421962D
:10108000FE0184910E94A52139C0823039F4E80123
:101090002296FE0184910E94A42030C0833039F44E
:1010A000E8012296FE0184910E94462127C08430E7
:1010B00029F5E8012296FE01249180E090E030E0DD
:1010C000205331092A30310560F4E89EA001E99EE1
:1010D000500D1124C901840F951F2196FE01249102
:1010E000EECF009759F0EFE9FFE03197F1F700C03C
:1010F00000000197F6CF0E94DB07E8018E010F5F29
:101100001F4F8F2D882309F4ACCFEFE9FFE0319713
:10111000F1F700C000008150F5CFDF91CF911F9112
:101120000F91FF90EF90089560E00C9427080E94C3
:10113000302B811102C00E94D22B0E94C6190C9440
:1011400017070C94860B08950C94A30881E008956A
:10115000CF93C82F0E94A4088C2F0E941A07CF910A
:10116000089508950E9439240E94B1082FEF84E366
:101170009CE0215080409040E1F700C000000C94BA
:10118000892D0F931F93CF93DF93EC0161E00E94B1
:10119000C7078C01BE010E948F07882309F450C045
:1011A000BE01C8010E942F19882309F449C0BE015D
:1011B000C8010E947C1B882309F442C0BE01C801FB
:1011C0000E94BD1B8823E1F1BE01C8010E94E81CFA
:1011D0008823B1F1BE01C8010E947017882381F1F4
:1011E0008A81882331F101308CE5180751F00E3DDA
:1011F0008CE51807D9F001151C45D9F40E94B208F6
:101200001FC080914503C82FC095C170C0FB80F9F5
:1012100080934503CC2329F08AE693E00E9475066B
:101220000FC088E593E00E9475060BC00E94D22B88
:1012300007C0CE01DF91CF911F910F910C948D07C4
:10124000C0E08C2FDF91CF911F910F91089580E026
:1012500090E0089508952AE5829FC0011124FC01C1
:1012600029E0729FE00DF11D1124E60FF11DEE0F34
:10127000FF1FE45CFE4F859194910895880F991F9C
:10128000FC01E55EFB4F859194910895CF93DF9328
:101290000E942B090E94580AEC018115904508F024
:1012A00043C0C11580E4D80708F0CBC0C03ED105CB
:1012B00028F5C03CD10508F0B3C0C83AD10578F490
:1012C000C53AD10508F0A4C0C130D10509F4ECC07D
:1012D00008F4E8C0C430D10508F0E6C0E3C0CF3B55
:1012E000D10508F0DFC0C85AD0E0CC0FDD1FCE5AC0
:1012F000DE4F0990D881C02DD464D6C0C11590E2CC
:10130000D90750F4C11521E0D20708F0CDC0C83E7E
:10131000D10508F4C9C0C6C0C11580E3D80708F0DC
:1013200086C0CE019F707FC0C11595E5D90708F032
:1013300043C0C11524E5D20708F09AC0C11582E563
:10134000D80708F5C11591E5D90708F07DC0CE0191
:1013500074E0969587957A95E1F783709C2F93704A
:1013600021E030E002C0220F331F9A95E2F73C687B
:10137000382BCF70C695C69580E2C89FE001112436
:10138000C22BD32B91C09E01237033278C2F8695BF
:101390008695C115D34508F05CC0C1E0D0E002C01D
:1013A000CC0FDD1F2A95E2F720E2829FC0011124B5
:1013B000C82BD92BDC6878C0C11529E5D207A0F469
:1013C000C11588E5D80708F058C0C11596E5D907BA
:1013D00008F068C08C2F0E94EC0A8F71C82FD0E0F3
:1013E000DC2FCC27D06260C0C1152AE5D20708F4F3
:1013F00049C0CE0190568115904208F053C08D2F00
:101400008F710E94EC0ADD27D0628F71D82B4CC0FF
:10141000C55AD0E0C058DE4FC881D0E0D06444C087
:10142000CE01805C91090E943E09EC013DC0CE01D5
:101430009927D3FF03C0EC01D86C36C0EC01D06C07
:1014400033C0DF70D06A30C0DC2FCC27C16FD06AC8
:101450002BC0C1E0D0E002C0CC0FDD1F2A95E2F71F
:1014600020E2829FC0011124C82BD92BDA681CC04E
:10147000DC2FCC27C46FD06A17C0DC2FCC27C06FFD
:10148000D06A12C08C2F8F700E94EC0A94E0D6951F
:10149000C7959A95E1F7CF70D0E0DC2FCC27D069C3
:1014A000C82B02C0C0E0D0E0CE01DF91CF910895FB
:1014B0008238910569F1B0F48133910509F46DC06A
:1014C00048F48932910509F463C08A32910509F420
:1014D00069C008958533910509F455C08933910594
:1014E000B9F00895833E910569F138F4803E910585
:1014F000B1F0823E910509F10895863E9105A9F16A
:10150000873E9105B9F1843E910509F064C023C07E
:101510002091D10320FD4FC021FD4DC00895809141
:10152000D10380FD44C08091D20380FF44C08091EC
:10153000D10384FD42C083EE4DC08091D10382FF70
:1015400038C0F5CF8091D10382FD33C08091D203A2
:1015500080FD31C0ECCF8091D20381FF32C08091F9
:10156000D10384FD2AC087EE35C08091D10383FF6B
:1015700026C0F5CF8091D10383FD21C08091D20395
:1015800081FD1FC0ECCF8091D10385FD1CC01DC023
:101590008091D10385FD19C016C08091D10386FDCD
:1015A00016C017C08091D10386FD13C010C089E317
:1015B00011C082EE0FC080EE0DC080E00BC086EE41
:1015C00009C084EE07C089E205C085E303C08AE252
:1015D00001C081E390E008959091D10392FF0DC086
:1015E000282F2871283019F4877F846006C0282F9F
:1015F0002471243011F48B7F886093FF0DC0282F55
:101600002871283119F4877E846106C0282F24713F
:10161000243111F48B7E88612091D20320FF0DC00C
:10162000382F3871383019F4877F816006C0382F21
:101630003171313011F48E7F886021FF0DC0282F69
:101640002871283119F4877E816106C0282F217105
:10165000213111F48E7E886194FD877E0895E82FF4
:10166000F0E0EE0FFF1FEF57FC4F8081918108954E
:10167000CF92DF92EF92FF920F931F93CF93DF935E
:101680008BE294E00E94750681E8E82E83E0F82E54
:10169000C0E0D0E096E2C92E94E0D92E0DE114E02E
:1016A000DF93CF93DF92CF920E940E0783E294E004
:1016B0000E947506F701819191917F010E941D2B77
:1016C0009F938F931F930F930E940E078BE194E0DB
:1016D0000E94750621968DB79EB708960FB6F894AE
:1016E0009EBF0FBE8DBFCA30D105D1F6DF91CF911D
:1016F0001F910F91FF90EF90DF90CF90089580EAB7
:101700008A95F1F7089508950C94830B0C94840B3B
:101710000C94830B08950F931F93CF93DF93CDB752
:10172000DEB763970FB6F894DEBF0FBECDBF0E9441
:10173000750D8091170181112DC0FE0131968AE04F
:10174000DF011D928A95E9F783E3898382E38A8327
:1017500086E38B8384E38C8387E98D83ADE0B1E0FE
:10176000CE010B9621912D938E179F07D9F729E073
:10177000E9E4F1E0DE011B9601900D922A95E1F774
:10178000FC01A4E0B1E0CE01449621912D938E1787
:101790009F07D9F780911701811102C095E001C020
:1017A00090E09093960385E0891B80939503ADE0CC
:1017B000B1E042E151E061E070E08D91E82FE29507
:1017C000EF70F0E021A18F708B0102C0000F111F9C
:1017D0008A95E2F7C801902F9095922391A392A148
:1017E000892B82A34A175B0741F7A4E0B1E04DE0E3
:1017F00051E061E070E08D91E82FE295EF70F0E04C
:1018000021A18F708B0102C0000F111F8A95E2F792
:10181000C801902F9095922391A392A1892B82A326
:101820004A175B0741F7EDE6F3E0A1E8B3E081E892
:1018300093E0119211921D921D928E179F07C9F786
:1018400085E00E94160D0E94970863960FB6F894E3
:10185000DEBF0FBECDBFDF91CF911F910F910C94D2
:10186000890D0E94580D882351F18091950390E0D5
:10187000880F991F8F579C4F0E94B90D81111BC073
:10188000809100028F5F809300028630B0F08091DB
:10189000950390E0880F991F20E030E0F901E80FF0
:1018A000F91FEF57FC4F118210822E5F3F4F2A30F5
:1018B0003105A1F702C0109200020C94A10880919A
:1018C000960390E0880F991F8F579C4F0E94EA0D56
:1018D0000C948A0BAF92BF92CF92DF92FF920F933C
:1018E0001F93CF93DF93CDE0D1E09DE6C92E93E027
:1018F000D92E22E1A22E21E0B22EF12C01E010E03F
:101900008881E82FE295EF70F0E021A18F70A801A7
:1019100002C0440F551F8A95E2F7CA01822B81A3AA
:101920008881E82FE295EF70F0E092A18F70980126
:1019300001C0220F8A95EAF7822F8095892382A31E
:101940000E947F0BE4E0F1E040E050E020E030E076
:101950006191A62FA295AF70B0E090968C9190E027
:101960006F7002C0959587956A95E2F780FD08C073
:10197000C801042E02C0880F991F0A94E2F702C022
:1019800080E090E0282B392B4F5F5F4F49305105A5
:10199000F9F68881E82FE295EF70F0E091A18F7061
:1019A000A80101C0440F8A95EAF7842F8095892306
:1019B00081A38991E82FE295EF70F0E042A18F704A
:1019C000B80102C0660F771F8A95E2F7CB01842B1E
:1019D00082A3F601808191812817390721F0318394
:1019E000208381E001C080E0F82AF2E0CF0ED11C14
:1019F000AC16BD0609F084CF6091960370E0660FC7
:101A0000771F6F577C4F2F2D45E08DE693E00E94A6
:101A1000170D0E94310C8F2DDF91CF911F910F91E7
:101A2000FF90DF90CF90BF90AF9008950895FF9200
:101A30000F931F93CF93DF93F82E092F162FD72FD5
:101A4000C42F222349F081E0809303020E94482D95
:101A50009093020280930102809103028823D9F0BF
:101A600080910102909102020E94542D069798F0F5
:101A7000EF2DF02FA12FBD2F80E090E04C2F50E0F4
:101A80008417950734F4219131912D933D9301965C
:101A9000F7CF10920302DF91CF911F910F91FF902A
:101AA000089587988F988FB1881F8827881F089579
:101AB00080910402811112C08091D80080618093CE
:101AC000D8008AE18A95F1F700C08091D90080FDA5
:101AD00002C082E001C081E08093040281E0909125
:101AE0000402913009F080E008950E94510D809326
:101AF00017018091170168E0882311F080E001C090
:101B000088E00E94980E0E94580D81110C94900D4F
:101B100008950E94580D811102C00C94960D0895ED
:101B200062E070E088E191E00C94771D62E070E083
:101B300088E191E00C94801D0E946B14882361F071
:101B400083E192E00E94711481E090E00E94591EAE
:101B5000892B11F40C946E14089580911202883030
:101B600039F460E083E192E00E9440161092120284
:101B70000895CF93DF93D82FC92F0E949C0D80E04A
:101B800090E00E94591E892B09F5ED2FFC2F80E073
:101B900090E0DC01AA0FBB1FA95FBD4F2D913C91C6
:101BA0002193319301968530910599F70E94DF17B3
:101BB000882319F00E94E31701C080E08093060299
:101BC00081E192E00E94D51A81E001C080E0DF91BE
:101BD000CF910895CF93DF93D82FC92F0E94AD0DD9
:101BE000ED2FFC2F80E090E021913191DC01AA0FD4
:101BF000BB1FA95FBD4F11963C932E930196853074
:101C0000910591F7809106020E94641981E192E0AA
:101C1000DF91CF910C94CC1AEF92FF920F931F9308
:101C2000CF93DF93F62E472FE82FF0E0711106C017
:101C3000E45DF64F6491762F862F72C0272F30E037
:101C4000E45DF64FE4910E2F10E056E0659FC00171
:101C50001124CFEFD0E0BE010E9477355BEA560336
:101C6000C001579F900D11248F0D911D8F0D911D57
:101C7000982F990F890F7E01E21AF30AE09ED00196
:101C8000E19EB00DF09EB00D1124489FA0011124DB
:101C9000452F55277E01E41AF50AE09EA001E19E3A
:101CA000500DF09E500D11247E01E81AF108E29EBD
:101CB000C001E39E900DF29E900D1124892F99276B
:101CC000C81BD90BC09FC001C19F900DD09F900D24
:101CD00011246230710591F048F461157105E1F04D
:101CE00061307105A9F48B2F752F19C0643071050F
:101CF00061F038F06630710579F00AC0892F7B2FCA
:101D00000EC08E2F7B2FE52F0AC08E2F792F02C099
:101D1000852F7E2FEB2F03C08B2F7E2FE92F6E2F69
:101D2000DF91CF911F910F91FF90EF90089508954B
:101D3000EAE2F1E0808361830895CF93DF93762F09
:101D4000E901682F842F0E940C0E798368838A83AF
:101D5000DF91CF91089580919703282F269530E049
:101D60002115310519F48170826005C02B323105CF
:101D700024F08170846580939703089588E090E053
:101D80000C945236CF92DF92EF92FF926B017C015E
:101D90000E94AB0EB701A60188E090E0FF90EF90A3
:101DA000DF90CF900C947036E7E9F3E083E0808316
:101DB00011828FEF828383831482A8E7B2E01296A8
:101DC0008C911297836012968C93608171818281CD
:101DD00093810C94C20E8091450380FF08C08AE66F
:101DE00097E09F938F930E940E070F900F90809122
:101DF000450380FF0FC08091970381701F928F93DE
:101E00008DE497E09F938F930E940E070F900F90A1
:101E10000F900F908091450380FF0FC08091970332
:101E200086951F928F9382E397E09F938F930E94F2
:101E30000E070F900F900F900F908091450380FF39
:101E40000EC0809198031F928F9388E197E09F9333
:101E50008F930E940E070F900F900F900F9080911C
:101E6000450380FF0EC0809199031F928F938EEFE0
:101E700096E09F938F930E940E070F900F900F9004
:101E80000F908091450380FF0EC080919A031F92AE
:101E90008F9384EE96E09F938F930E940E070F908E
:101EA0000F900F900F908091450380FF0EC080919E
:101EB0009B031F928F9388EC96E09F938F930E94D1
:101EC0000E070F900F900F900F9008958091970339
:101ED00080FF02C08695089580E0089580919B035D
:101EE000833018F48F5F80939B0360919703709108
:101EF00098038091990390919A030C94C20E80915B
:101F00009B03882319F0815080939B036091970372
:101F1000709198038091990390919A030C94C20E4A
:101F200070E00C94D619CF92DF92EF920F931F932B
:101F3000CF93DF93CDB7DEB7E0970FB6F894DEBF4F
:101F40000FBECDBF60912B018091970380FF0AC027
:101F5000EDE9F8E0AE014F5F5F4F8E010F5C1F4F60
:101F6000CA0114C080912C0190912D01891780F72E
:101F7000E82FF0E09F01220F331FE20FF31FE4561A
:101F8000FC4F1182108212828F5FF0CF249130E0DB
:101F9000D901AA0FBB1F2A0F3B1FD901A456BC4F62
:101FA000CD90DD90EC90DA01CD92DD92ED92AD0115
:101FB0003196A017B10751F720912A01B3E02B9F6A
:101FC000800D911D11240E94900FE0960FB6F89499
:101FD000DEBF0FBECDBFDF91CF911F910F91EF906C
:101FE000DF90CF9008959091970390FF16C0909145
:101FF0002C0120912D01921770F4E92FF0E0DF0100
:10200000AA0FBB1FEA0FFB1FE456FC4F81836083BE
:1020100042839F5FF0CF0C94930F0895CF93DF938B
:1020200000D01F92CDB7DEB79091970390FF0AC002
:102030009E012F5F3F4F0E949D0E4B8169818A81D7
:102040000E94F30F0F900F900F90DF91CF910895A2
:10205000CF93DF93EC01EC81F0E0E856F84F449128
:10206000E7E9F3E0628181810E940E108C818F5F2D
:102070008C83DF91CF910895CF93DF93EC01E7E953
:10208000F3E0438162818C810E940E108C818F5F0E
:102090008C83DF91CF9108950F931F93CF93DF939C
:1020A00000D01F92CDB7DEB78C0180911B02811149
:1020B0000AC09E012F5F3F4F4FEF6FEF0E949D0EB2
:1020C0008A8180931B02F8018481813051F028F0CD
:1020D000823061F440911B020AC080911B0240E0F3
:1020E00007C060911B0240E080E003C040E080E058
:1020F00060E00E94F30FF801848190E0019663E0B4
:1021000070E00E948B3584830F900F900F90DF91C9
:10211000CF911F910F9108954F925F926F927F928E
:102120008F929F92AF92BF92CF92DF92EF92FF92E7
:102130000F931F93CF93DF9300D01F92CDB7DEB7DD
:10214000F82ED62EE42E622E9091970390FFC5C0F4
:10215000E92FE695AE2FB0E0AD57BE4F8C9180933E
:1021600078029E7F923061F49E012F5F3F4F8F2D4A
:102170000E949D0E4B8169818A810E94F30F62C08B
:10218000823019F4E0909A035DC0863019F4F09023
:10219000980358C08930D9F3893109F053C0E95107
:1021A0008E2F8170782E81E0C72CC826E695F0E04E
:1021B000E856F74FA590B490412CBB2499EE892E98
:1021C00094E0992E60912E014616D0F5042D10E072
:1021D0000A9DC0010B9D900D1A9D900D112470E079
:1021E0000E9477355F2C711002C0560E01C0561A3E
:1021F0008091450380FF11C0BF92AF921F92CF9292
:102200001F925F921F924F929F928F920E940E0791
:102210000FB6F894DEBF0FBECDBF80912C01080F22
:10222000111D9801220F331F020F131F980124560E
:102230003C4F4E2D6D2D852D0E949D0E4394C2CF97
:102240000E94930F80919803F81208C0809199031F
:10225000D81204C080919A03E81629F080917A027E
:10226000826080937A02F0929803D0929903E09270
:102270009A036620E9F0609197037091980380912A
:10228000990390919A030E94C20E8091450380FFAA
:1022900024C080919A031F928F93809199031F927B
:1022A0008F93809198031F928F9384EC94E00CC0DD
:1022B0008091450380FF11C01F92EF921F92DF9221
:1022C0001F92FF928DE994E09F938F930E940E07D7
:1022D0000FB6F894DEBF0FBECDBF0F900F900F90DA
:1022E000DF91CF911F910F91FF90EF90DF90CF90F2
:1022F000BF90AF909F908F907F906F905F904F9026
:102300000895E7E9F3E09181282F4381628188E015
:10231000890F0C948C1081E00C948111E7E9F3E0B3
:102320009181282F4381628188EF890F0C948C1052
:1023300081E00C948E11E7E9F3E0628121E1620F04
:1023400008F46FEF282F438181810C948C1081E079
:102350000C949B11E7E9F3E0628121E1621B08F430
:1023600060E0282F438181810C948C1081E00C94D3
:10237000AA11E7E9F3E0438121E1420F08F44FEFAE
:10238000282F628181810C948C1081E00C94B9110A
:10239000E7E9F3E0438121E1421B08F440E0282F04
:1023A000628181810C948C1081E00C94C81121E031
:1023B0000C948C1020E00C948C10FF920F931F93C0
:1023C000CF93DF93EC01F12C0FEF10E060912E0121
:1023D000F616F0F480912C012F2D30E0280F311DDE
:1023E000C901880F991F280F391F24563C4F70E0F0
:1023F000C8010E948B35962F8C8140919A03609181
:102400009903F99E800D11240E949D0EF394DECF56
:102410000E94930F9A818C8190FF02C08F5F01C050
:1024200081508C83DF91CF911F910F91FF90089580
:102430009F92AF92BF92CF92DF92EF92FF920F9353
:102440001F93CF93DF93EC018A8180FF03C0BB24ED
:10245000BA9402C0BB24B3948C8181110DC081E079
:10246000B81206C080912E01815080931D0202C0D7
:1024700010921D0281E08C83A12C80912E01A81660
:1024800008F041C080912C01CA2CD12C8601080F84
:10249000111DC801880F991F080F191F04561C4FE2
:1024A000F80111821082128234E0E32EF12C912C7B
:1024B00080911D02890D813114F08F7005C087FF56
:1024C00003C090912E01890F082E000C990BC8169D
:1024D000D90691F480919A038E9DA0018F9D500D95
:1024E0001124559547955595479598016091990305
:1024F000809198030E949D0E9B0CF1E0EF1AF10869
:10250000B9F6A394BACF0E94930F80911D0291E077
:10251000B9120EC0811107C080912E0181508093A5
:102520001D021C820FC0815080931D02BC820AC014
:1025300090E0019660912E0170E00E948B358093AF
:102540001D028C83DF91CF911F910F91FF90EF902F
:10255000DF90CF90BF90AF909F9008951F93CF933F
:10256000DF93EC018C81811109C081E08C83109292
:102570001C0292E0909329018093280180912C0104
:1025800090912D01891770F4E82FF0E09F01220F40
:10259000331FE20FF31FE456FC4F118210821282A8
:1025A0008F5FF0CF10E060912E011617C0F5E12F7C
:1025B000F0E070E0CF010E948B3520912C01820F5A
:1025C00020911C02022E000C330B90E0E217F3075F
:1025D000CCF020912901022E000C330B2E173F075F
:1025E0008CF09C01220F331F820F931F9C012456F5
:1025F0003C4F40919A0360919903809198030E9407
:102600009D0E0BC0FC01EE0FFF1F8E0F9F1FFC01E4
:10261000E456FC4F1182108212821F5FC4CF0E94C9
:10262000930F8091280120911C02280F20931C02F7
:1026300090912901980F9093290119165CF4022EAC
:10264000000C330B40912E0150E0415051092417EA
:10265000350734F0819580932801813009F41C827C
:10266000DF91CF911F9108950F931F93CF93DF9325
:102670008C01FC0184819581019681709927958355
:102680008483C0E0D5E580912E01C81700F58091C4
:102690002C012C2F30E0280F311DC901880F991F04
:1026A000280F391F24563C4F4C2F4695F801848142
:1026B0009581840F911D817040919A0360919903D7
:1026C0008D9F802D11240E949D0ECF5FDCCFDF9166
:1026D000CF911F910F910C94930F0F931F93CF9352
:1026E000DF93EC0100E010E080912E01282F30E014
:1026F0000217130724F590912C019801290F311D21
:10270000A901440F551F240F351F24563C4F8695B1
:1027100090E04C81081719071CF4442331F002C0E3
:10272000411103C040919A0301C040E060919903B8
:10273000809198030E949D0E0F5F1F4FD5CF0E947E
:10274000930F8C8190E00196817099278C83DF91A3
:10275000CF911F910F9108958F929F92AF92BF9248
:10276000CF92DF92EF92FF920F931F93CF93DF935D
:10277000FC01B280948081E0848300E015E05BE49A
:10278000A52E88248394EE24EA94F12C7BE4C72EB2
:10279000D12C80912E01081708F08FC0C02FD0E0F7
:1027A0001C9FF0011D9FF00D1124EF5DFD4F911056
:1027B00003C01382128267C02381222389F1215032
:1027C00023833481332319F09A2D921B01C0922F59
:1027D00080919A031C9FF0011D9FF00D1124EF5D65
:1027E000FD4F899FC0011124B6010E947735628395
:1027F000211104C0332311F01482A38222E02B158F
:1028000008F441C01C9FF0011D9FF00D1124EF5DE5
:10281000FD4F80919803808380919903818333C019
:102820000E942D368230914074F582E08B1530F491
:102830000E942D36B7010E948B3502C0809198030B
:102840001C9FF0011D9FF00D1124EF5DFD4F808353
:1028500022E02B1558F40E942D36209199032695DD
:10286000622F70E00E948B35820F02C08091990325
:102870001C9FF0011D9FF00D1124EF5DFD4F818322
:102880001282A382848280912C019E01280F311D27
:10289000C901880F991F280F391F24563C4F1C9FD0
:1028A000F0011D9FF00D1124EF5DFD4F428161810C
:1028B00080810E949D0E0F5F6CCFDF91CF911F91A1
:1028C0000F91FF90EF90DF90CF90BF90AF909F90CF
:1028D0008F900C94930F80917A02089510927A024F
:1028E000089525E0E7E9F3E0DC0101900D922A95D7
:1028F000E1F7209178023091790240917A02FC014F
:102900002583368347830895E8E7F2E011828281C8
:1029100084608283089560919703669570E04BE030
:1029200050E08FE291E00E943D36892B19F481E05E
:10293000809379020E94482D9093720280937102D5
:1029400080917A02846080937A028091450380FFAF
:1029500008C084E894E09F938F930E940E070F9025
:102960000F9008951092790280917A02846080938A
:102970007A028091450380FF08C08BE694E09F9324
:102980008F930E940E070F900F90089590919703D8
:1029900090FF59C09170811102C0926006C08B32C5
:1029A00010F0946502C0880F982B90939703809144
:1029B0007A02816080937A026623B1F06091970376
:1029C000709198038091990390919A030E94C20E8E
:1029D0008091450380FF1BC08091970386951F92CD
:1029E0008F938EE096E00BC08091450380FF0FC06F
:1029F0008091970386951F928F9380EF95E09F9328
:102A00008F930E940E070F900F900F900F90609180
:102A10009703669570E04BE050E08FE291E00E94F2
:102A20003D36892B19F00E94B21402C00E948B140B
:102A300081E08093740240919A03609199038091A0
:102A400098030C94DA110895682F90919703969546
:102A500081E0890F8B3208F081E00C94C61481E08C
:102A60000C942415682F9091970396958FEF890FFA
:102A700009F48AE20C94C61481E00C94321561E0EA
:102A80000C94C61480919703816080939703809182
:102A9000450380FF0DC01F9281E08F9382E895E08F
:102AA0009F938F930E940E070F900F900F900F909F
:102AB0008091970386950C943F1560E00C94C614A2
:102AC00080917702811165C08091450380FF08C025
:102AD00081EB96E09F938F930E940E070F900F90CB
:102AE0008091450380FF08C08BE996E09F938F9308
:102AF0000E940E070F900F900E94302B811110C082
:102B00008091450380FF08C083E796E09F938F93F1
:102B10000E940E070F900F900E94D22B0E94D40E9D
:102B20000E94BE0E6093970370939803809399035D
:102B300090939A0380917A02836080937A026E7FE9
:102B4000C1F48091450380FF08C08AE296E09F931C
:102B50008F930E940E070F900F900E94D40E0E9438
:102B6000BE0E60939703709398038093990390939C
:102B70009A030E94AB0E0E94EB0E0E948414809177
:102B8000970380FF03C086950E945D1581E08093C6
:102B900077020895809197038E7F809397036091C9
:102BA0009703709198038091990390919A030E94E2
:102BB000C20E8091450380FF0FC080919703817002
:102BC0001F928F938AE495E09F938F930E940E0744
:102BD0000F900F900F900F900E94B21480917A0284
:102BE000816080937A022FEF80E792E0215080404D
:102BF0009040E1F700C000000C94930F80914503D2
:102C000080FF10C080919703809581701F928F93F1
:102C100089EB95E09F938F930E940E070F900F9082
:102C20000F900F908091970380FD0C94CA150C941F
:102C30004215809197038E7F80939703809145037F
:102C400080FF0CC01F921F9280E195E09F938F93AD
:102C50000E940E070F900F900F900F900E94B214D9
:102C600080917A02816080937A022FEF80E792E070
:102C7000215080409040E1F700C000000C94930F79
:102C80001F93CF93DF93EC01162F8F8180FF0FC02E
:102C9000888180FF0AC080919703816080939703A9
:102CA000888186950E94C61402C00E9419168F81E1
:102CB00081FF06C0212F4B816A8189810E948C107F
:102CC0008F8182FF08C08E81882319F00E948B14A7
:102CD00002C00E94B2148F8183FF03C081E0809301
:102CE0007402DF91CF911F910895EF92FF920F939D
:102CF0001F93CF93DF9380917902882309F4CEC08C
:102D000080917802E0919703E695E81BE0937302C7
:102D1000823049F4F0E0EC56F84FE491CE2FD0E049
:102D200008E210E159C0863049F4F0E0EF56F84F60
:102D3000E491CE2FD0E00CE310E14EC0893051F485
:102D4000E695F0E0E257F84FE491CE2FD0E00DED9C
:102D500011E142C08F3051F4E695F0E0E557F84FAD
:102D6000E491CE2FD0E008E112E136C0853149F47C
:102D7000F0E0E857F84FE491CE2FD0E00EEA12E1F0
:102D80002BC08831D9F0833239F4E6E8F7E0C591F9
:102D9000D4910CE410E120C08432A9F08532C1F452
:102DA0008E2F63E00E946B35E92FF0E0ED57F84F6E
:102DB000E491CE2FD0E00CEA13E10EC0C8EED3E0D0
:102DC00004E313E109C0C4EFD1E00DE613E104C050
:102DD000C0EDD7E007E91EE080917402882389F0F6
:102DE000109274020E94482D9E0120953095820F0A
:102DF000931F909372028093710210927602109248
:102E0000750280917102909172020E94542D8C176C
:102E10009D0708F443C080912002882311F110928D
:102E2000200280911E0290911F020E94542D803337
:102E30009547B8F00E94482D90931F0280931E0280
:102E40008091450380FF08C082E494E09F938F93B4
:102E50000E940E070F900F9080917A0288608093F5
:102E60007A02E0907502F0907602E0917102F091A2
:102E70007202CE0FDF1FD0937202C093710281E7FE
:102E800092E0F80109958091750290917602892B64
:102E900029F4EF2819F081E080932002DF91CF918F
:102EA0001F910F91FF90EF900895882311F0FA0180
:102EB00001C0FB010994CF93DF93C82FD62F0E9446
:102EC000660F8C1740F00E94660F8D1720F4DF917B
:102ED000CF910C942F158C2FDF91CF910C943F152F
:102EE0001F93CF93DF93FB011281111163C0EC019B
:102EF0000E94052A8272FE01E25CFC45E431F10584
:102F000008F057C0EA5AFF4F0C94C1350E94FE15D5
:102F100051C04CE355E16FE275E104C04FE255E169
:102F20006CE375E10E94551745C048E951E16BE833
:102F300071E1F8CF4BE851E168E971E1F3CF46EB7D
:102F400051E167EA71E1EECF47EA51E166EB71E1E9
:102F5000E9CF44ED51E165EC71E1E4CF45EC51E19D
:102F600064ED71E1DFCF4FE75FE06EE67FE0DACF3F
:102F70004EE65FE06FE77FE0D5CF81E017C065E008
:102F800082E010C068E086E00DC06EE089E00AC013
:102F900064E18FE007C067E185E104C088E106C015
:102FA00062E289E10E945B1705C083E20E943F153F
:102FB00001C011E0812FDF91CF911F910895809181
:102FC000CC03817008958091CC0386958695869573
:102FD00008950E94302B811102C00E94D22B0E94C2
:102FE000612B8093CC03282F26952695269530E0DB
:102FF0002430310524F0877088618093CC03809160
:10300000CC0380FF04C086958695869501C080E03C
:103010000C9464192091CC03822F86958695869511
:10302000482F50E04330510554F48F5F982F990F8B
:10303000990F990F822F8770892B8093CC038091F1
:10304000CC0381608093CC030E94652B8091450363
:1030500080FF11C08091CC038695869586951F923E
:103060008F9384E199E09F938F930E940E070F90B6
:103070000F900F900F908091CC0386958695869542
:103080000C9464198091CC03982F969596959695FB
:10309000A1F0915E990F990F990F8770892B8093FA
:1030A000CC03887F91E009F490E08091CC0390FB01
:1030B00080F98093CC030E94652B8091450380FFAB
:1030C00011C08091CC038695869586951F928F932B
:1030D0008CEF98E09F938F930E940E070F900F90B4
:1030E0000F900F908091CC038695869586950C94D1
:1030F00064198091CC0380FD1FC081608093CC0354
:10310000813019F489E08093CC038091CC030E9434
:10311000652B8091450380FF08C084ED98E09F9364
:103120008F930E940E070F900F908091CC0386958D
:10313000869586950C94641908958091CC0380FF40
:1031400014C08E7F8093CC030E94652B8091450331
:1031500080FF08C081EC98E09F938F930E940E0738
:103160000F900F9080E00C9464190895CF93C09154
:10317000CC03C1708091450380FF0CC01F92CF9398
:1031800086EE98E09F938F930E940E070F900F900A
:103190000F900F90CC2319F0CF910C949D18CF91E4
:1031A0000C9479189091CC03892F869586958695F5
:1031B0008F5F8F719770843038F4880F880F880F75
:1031C000892B8093CC0302C09093CC038091CC03D5
:1031D000887F91E009F490E08091CC0390FB80F926
:1031E0008093CC030E94652B8091450380FF11C022
:1031F0008091CC038695869586951F928F938DEA54
:1032000098E09F938F930E940E070F900F900F905E
:103210000F908091CC038695869586950C946419C1
:10322000843008F083E09091CC039770282F220F10
:10323000220F220F922B9093CC03987F21E009F468
:1032400020E09091CC0320FB90F99093CC030C9458
:1032500064190E9410198091CC030C94652B9C0179
:10326000FB018281882349F12D3BFCE53F07C9F032
:1032700040F42B3BECE53E0769F02C3B3C4561F00C
:1032800008952F3B9CE5390791F070F0203C3C45B8
:1032900089F0089583E001C080E00E94291980E050
:1032A00008950E944218FBCF0E940A18F8CF0E948E
:1032B000B618F5CF0E94D218F2CF81E00895259A72
:1032C0002D9808952D980895CF92DF92EF92FF9256
:1032D000CF93C82F843050F4811109C080918000B1
:1032E0008F77809380000E94621906C0C3E08091AE
:1032F00080008068809380002C2F30E0AFEFBFEF1C
:103300000E94C73523E030E040E050E00E949F3546
:10331000C9012C3764E1360728F469E070E00E94A7
:10332000773529C0DA01C9018A50974DAF4FBF4F99
:103330006627782F892F9A2F25EF38E241E050E059
:103340000E949F3569017A01CA01B9010E945B356B
:103350009B01AC01C701B6010E945B35BB27A92FB9
:10336000982F872F009721E0A207B10511F0BC012B
:1033700002C06FEF7FEF7093890060938800CF9158
:10338000FF90EF90DF90CF90089508950E945F190D
:1033900082E88093800089E1809381008FEF9FEF26
:1033A00090938700809386000C94E9176E9A2EB153
:1033B0002F7B3EB130644FB7F894FC01CB01880FEE
:1033C000991F680F791F6E0F7F1FE617F70789F0A7
:1033D000819198E03EB9000000C087FF2EB9880FA8
:1033E000000000C000C000C02EB900C09A9591F73F
:1033F000ECCF4FBF8FE594E00197F1F700C00000DC
:1034000008950C945B0780911701882309F447C045
:1034100020913B01A22FA295AF70B0E091963C9114
:1034200091972F7081E090E0AC01022E01C0440F13
:103430000A94EAF7542F5095352391963C9391972F
:1034400092963C919297432B92964C9392974091EF
:103450003A01E42FE295EF70F0E031A14F70042EB5
:1034600001C0880F0A94EAF7982F9095932391A3AF
:1034700092A1892B82A390968C9190E002C09595A1
:1034800087952A95E2F7817020A130E002C035953A
:1034900027954A95E2F720FD09C090E008C086E92B
:1034A00080933B0184E980933A01B2CF92E0892B6B
:1034B000809380029091170181E0982790937C027D
:1034C000891B80937B020895CF93E09180025E2F49
:1034D000550F550F20913B01E22FE295EF70F0E080
:1034E00080A190E02F7002C0959587952A95E2F70C
:1034F0008170992740913A01E42FE295EF70F0E056
:1035000020A130E04F7002C0359527954A95E2F72B
:10351000F901E170FF2720FF02C0E2E0F0E0E82BB4
:10352000F92BE52BE0938002C0917C02EF70F0E074
:10353000E255FE4F908180917F02890F80937F0238
:1035400084306CF0EC2F0C2E000CFF0BE358FD4F79
:1035500080818F5F808360E08C2F0E94011A8091B0
:103560007F028D3F6CF4EC2F0C2E000CFF0BE35808
:10357000FD4F80818150808361E08C2F0E94011A71
:1035800080917F02837887FF03C081508C6F8F5FAB
:1035900080937F02CF910895E0917C02F0E0E358A0
:1035A000FD4F2081FC0120830895FF920F931F930C
:1035B000CF93DF93D0917B020D2F10E003581D4F66
:1035C000FC01C081F8018081C81BFC2E1F1454F43B
:1035D000FA94F80180818F5F808360E08D2F0E94D4
:1035E000011AF4CF8C2FC7FD80E0C81BCC2351F00B
:1035F000CF5FF80180818150808361E08D2F0E9430
:10360000011AF4CFDF91CF911F910F91FF90089590
:103610000F931F93CF93DF93C62FD42F122FFC014C
:1036200082818823C9F0609383020E94482D909381
:1036300082028093810280E28C0F883008F057C0AC
:10364000C77081E001C0880FCA95EAF7DF91CF917A
:103650001F910F910C94B82180918302681330C0A0
:1036600080918102909182020E94542D883C9105A4
:1036700038F500E20D0FCD17B9F080E28C0F8830DD
:1036800040F4C77081E001C0880FCA95EAF70E9434
:10369000BF21083028F581E09D2F977001C0880F69
:1036A0009A95EAF70E94B821812F0E94A52108303F
:1036B000F0F4D77081E001C0880FDA95EAF70AC00C
:1036C00080E28C0F883098F4C77081E001C0880FC9
:1036D000CA95EAF7DF91CF911F910F910C94BF210A
:1036E000812FDF91CF911F910F910C94A521DF9134
:1036F000CF911F910F9108959C01CB01233F4CE581
:103700003407F9F078F4283DFCE53F07B9F0293D8E
:103710004CE5340711F1273D3C4531F526E241EEF9
:1037200061EE1EC0253FFCE53F0799F070F0263F93
:103730003C45D1F427E245EE66EE12C027E245EEA5
:103740000EC026E241EE60EE0BC027E245EE64EECD
:1037500007C026E241EE62EE03C028E241E065EEDA
:103760000E94081B80E00895FC018281882319F0E3
:1037700010928302089581E00895CF93DF93EC01C6
:10378000FB018281882309F41FC1C230FCE5DF07F9
:1037900008F41BC1C6319CE5D90738F09E012A5FA9
:1037A0003C452930310508F010C10E94432B90930D
:1037B000D2038093D103C031ECE5DE0709F4C3C026
:1037C00008F041C0C8308CE5D80709F49AC0F0F47D
:1037D000C430ECE5DE0709F487C068F4C2308CE53C
:1037E000D80709F477C0C330DC4509F0E3C0809105
:1037F000D103826076C0C630ECE5DE0709F46EC006
:1038000008F07BC08091D10388606BC0CC308CE520
:10381000D80709F485C068F4CA30ECE5DE0709F47E
:1038200074C008F079C00E9439248091D103806867
:1038300058C0CE308CE5D80709F476C008F07FC0B8
:103840008091D1038BC0CB3FECE5DE0709F44FC07C
:1038500018F5C3318CE5D80709F47DC078F4C1317F
:10386000ECE5DE0709F473C0C231DC4509F0A2C003
:103870000E9439248091D1038F7733C0C5318CE504
:10388000D80709F472C008F486C0CA3FDC4509F0C5
:1038900091C08091D2033EC0CF3FFCE5DF0709F421
:1038A0005FC058F4CD3F9CE5D90709F444C008F443
:1038B0003FC08091D20382602DC0C130FDE5DF079B
:1038C00009F475C008F45DC0C230DD4509F072C06E
:1038D00080E06EC08091D103816003C08091D103EC
:1038E00080618093D10366C08091D10311C0809123
:1038F000D20382608093D2035DC08091D103806245
:10390000F0CF8091D1038064ECCF8091D1038860A7
:103910008460E7CF8160EECF8091D1038E7FE1CFCD
:103920008091D1038D7FDDCF8091D103877FD9CF67
:103930008091D20318C08091D2038D7FDBCF80911C
:10394000D1038F7ECECF8091D1038F7DCACF80915E
:10395000D1038F7BC6CF8091D103877F8B7FC1CF6F
:103960008091D2038D7F8E7FC5CF8091D10382FB62
:10397000222720F991E0922790FB82F990FB83F9AE
:10398000B0CF8091D203982F909591708E7F892B24
:1039900090FB81F9AFCF0E9439248091D10387FB3E
:1039A000222720F991E0922790FB87F99ACF81E0B6
:1039B0000E94D42B8091D1039091D2030E94542B6A
:1039C0000E94392480E001C081E0DF91CF91089509
:1039D000CF93DF9386319C4541F5EB010E94052A88
:1039E000982F8A8120913C0130913D01882379F004
:1039F0009A7A81E009F480E080938402911102C0F8
:103A000069E201C065E3C9010E94912C0AC080915E
:103A10008402811102C069E201C065E3C9010E940C
:103A20009C2C0E94532A80E001C081E0DF91CF915D
:103A300008958EE1489B02C08150E1F7489BFECF7C
:103A40000895589880E28A95F1F7589A0895FC01F4
:103A50002AE02A95F1F790E020E080E031E0261797
:103A600079F040E14A95F1F7880F489B02C08160E8
:103A7000932700C0000040E14A95F1F72F5FEFCF98
:103A800020E12A95F1F729B100C0000030E13A9514
:103A9000F1F7217092272081920F90830895EF9281
:103AA000FF920F931F93CF93DF931F92CDB7DEB793
:103AB00019828C017C01E60EF11C0E151F0559F0D0
:103AC0000E94191D68E0CE0101960E94271DF80191
:103AD00081938F01F2CF81E09981911180E00F9065
:103AE000DF91CF911F910F91FF90EF9008959093E8
:103AF00087028093860260938502509A589A0895AF
:103B00009093870280938602609385025098589A1A
:103B1000E89AE9E6F0E080818C7F80830895615027
:103B200091E001C0990F6A95EAF720E031E099230E
:103B300061F0492F482319F0589A232701C058985B
:103B400040E24A95F1F79695F2CF222311F0589A68
:103B500001C0589880E28A95F1F758980895FF922D
:103B60000F931F93CF93DF93EC018C01060F111D70
:103B7000C017D10741F0F9900E94211D68E08F2DF8
:103B80000E948F1DF5CFDF91CF911F910F91FF9074
:103B900008951F920F920FB60F9211240F931F9347
:103BA0002F933F934F935F936F937F938F939F9345
:103BB000AF93BF93EF93FF93CF93DF931F92CDB754
:103BC000DEB719820E94191D67E0CE0101960E949E
:103BD000271D382F369536953695932F96959570E7
:103BE000232F2570920F292F237096959695877015
:103BF000920F891348C08981811145C08091850247
:103C0000831708F440C080E18A95F1F7589A509ADA
:103C1000A2E0AA95F1F700C00091860210918702F8
:103C2000B8E03B9F000D111D11245898F8016581E3
:103C3000662321F0868197810E94AF1D0E94211D7D
:103C4000F0E1FA95F1F758985098589A80E18A95E2
:103C5000F1F7D80112966C911297662369F01396CA
:103C60008D919C9114970E944F1DD801ED91FC916C
:103C7000811105C082E004C0D801ED91FC9188E07B
:103C800080830E94191D0F90DF91CF91FF91EF91DA
:103C9000BF91AF919F918F917F916F915F914F9164
:103CA0003F912F911F910F910F900FBE0F901F907A
:103CB00018950F931F93CF93DF932091850230E0E7
:103CC000281739070CF471C09C0193E0220F331FB1
:103CD0009A95E1F7C0918602D0918702C20FD31F57
:103CE000F894509A589845E04A95F1F70000982FBB
:103CF000969595708570890F982F93708695869507
:103D0000890F8901082B0E94211D84E08A95F1F713
:103D100000C067E0802F0E948F1D40E14A95F1F7B7
:103D20005098589A489902C000C0FCCF87E090E0B4
:103D3000489B0EC0019751F4509A589AE881F98136
:103D400081E08083789481E090E031C000C0F0CFC2
:103D50006D81662381F08E819F810E944F1D8111AC
:103D60000AC0509A589AE881F98182E08083789459
:103D700082E090E01CC00E94191D80E28A95F1F754
:103D80005898509A40E14A95F1F76A81662321F0EC
:103D90008B819C810E94AF1D0E94211DE881F981C9
:103DA0001082789480E090E002C084E090E0DF919F
:103DB000CF911F910F91089590938D0280938C0263
:103DC0000895E0918C02F0918D02309721F00190DE
:103DD000F081E02D099480E00895EF92FF921F9307
:103DE000CF93DF93FC01A0918C02B0918D021097CC
:103DF00009F442C080914801882341F08091D103A9
:103E000087FF04C08081818385E08083EF01129663
:103E1000ED91FC911397CE0109958091450382FFA6
:103E20002BC080FF04C084E39AE00E94750618E06E
:103E30008EE2E82E8AE0F82E8091450380FF0BC0C9
:103E400088811F928F93FF92EF920E940E070F902E
:103E50000F900F900F90115021961111EDCF80917E
:103E6000450380FF09C08CE29AE0DF91CF911F915A
:103E7000FF90EF900C947506DF91CF911F91FF900A
:103E8000EF90089520918A0230918B02281739070C
:103E900071F090938B0280938A02E0918C02F091F2
:103EA0008D02309721F00680F781E02D0994089566
:103EB00020918802309189022817390771F0909378
:103EC000890280938802E0918C02F0918D023097F4
:103ED00021F00084F185E02D0994089585B780686C
:103EE00085BF85B7806885BF089508950C94751FB8
:103EF0000C94761F0C94751F0C94751F0E946E1FF6
:103F00000E947A1F0C94781F0C94580D0E943F2D2C
:103F10000E948B0B0E94AD2D0E94E9170E94601534
:103F20000E94031A0C947C1FCF93C82F80914503E5
:103F300082FF1EC080FF04C08DE49AE00E947506D7
:103F40008091450380FF0CC01F92CF9388E49AE0D4
:103F50009F938F930E940E070F900F900F900F90DA
:103F60008091450380FF04C086E49AE00E947506B4
:103F70008C2FCF910C94A8087F928F929F92AF9232
:103F8000BF92CF92DF92EF92FF920F931F93CF9346
:103F9000DF93CDB7DEB72A970FB6F894DEBF0FBE1A
:103FA000CDBF0E946A0C0E94841F811111C08FEF47
:103FB00089838A831B820E94482D8160782F9D838C
:103FC0008C8349815A816B818D810E9470204FC002
:103FD0004FE8A42E42E0B42E00E010E0702E802FB7
:103FE0000E942F0B6C01F501819091905F01882652
:103FF00099268114910431F40F5F1F4F0A30110587
:1040000069F7D5CF8091450381FD0E94380B80E090
:10401000EE24E394F12C94012E213F21232B09F16E
:104020008E837F82CE20DF2081E0CD2809F480E0DE
:1040300088870E94482D8160782F9A8789874E81D2
:104040005F8168858A850E947020000F111FF8012A
:10405000E157FD4F80819181E826F926F182E082C7
:1040600006C08F5FEE0CFF1C8930A9F6C5CF0E94F9
:1040700075160E94C5190E94641A0E94E11E909153
:104080008E028917C9F00E94E11E80938E022A9643
:104090000FB6F894DEBF0FBECDBFDF91CF911F9159
:1040A0000F91FF90EF90DF90CF90BF90AF909F90D7
:1040B0008F907F900C94941F2A960FB6F894DEBFD1
:1040C0000FBECDBFDF91CF911F910F91FF90EF9069
:1040D000DF90CF90BF90AF909F908F907F9008958A
:1040E000CF93DF93CDB7DEB72B970FB6F894DEBF33
:1040F0000FBECDBF4F83588769877A878B87DE01D4
:10410000119686E0FD0111928A95E9F785E0FE019E
:10411000379601900D928A95E1F749815A816B811A
:104120007C818D819E810E94F2262B960FB6F89499
:10413000DEBF0FBECDBFDF91CF910895FC0180811E
:1041400091810E94C6290895CF93882309F49CC0C9
:10415000C82F8238C1F40E94E11E81FD95C069E339
:1041600080913C0190913D010E94912C0E94532A24
:104170002FEF81EE94E0215080409040E1F700C0A5
:10418000000069E319C0833801F50E94E11E80FD3B
:104190007BC063E580913C0190913D010E94912C90
:1041A0000E94532A2FEF81EE94E0215080409040EE
:1041B000E1F700C0000063E580913C0190913D0172
:1041C0000E949C2CCF910C94532A8438C1F40E94F5
:1041D000E11E82FD59C067E480913C0190913D0150
:1041E0000E94912C0E94532A2FEF81EE94E02150DF
:1041F00080409040E1F700C0000067E4DDCF8CEF25
:104200008C0F813AD0F46C2F80913C0190913D014C
:104210000E94EF2B882349F06C2F80913C019091F4
:104220003D010E949C2C0E94532A6C2F80913C01DE
:1042300090913D010E94912CC5CF80E28C0F883077
:1042400048F4C77081E001C0880FCA95EAF70E9460
:10425000082AB8CFEBE5EC0FE33040F4F0E0E4518E
:10426000FE4F808190E0CF910C94421FC85AC73115
:1042700058F4EC2FF0E0EE0FFF1FE254FE4F808168
:104280009181CF910C94581FCF910895882309F400
:104290005BC0682F823879F40E94E11E81FF54C010
:1042A00069E380913C0190913D010E94912C0E9414
:1042B000532A69E310C08338B1F40E94E11E80FFE5
:1042C00043C063E580913C0190913D010E94912C97
:1042D0000E94532A63E580913C0190913D010E9428
:1042E0009C2C0C94532A843879F40E94E11E82FF9E
:1042F0002BC067E480913C0190913D010E94912C7C
:104300000E94532A67E4E7CF8CEF860F813A18F3B7
:1043100080E2860F883048F4677081E001C0880F22
:104320006A95EAF70E940E2ADCCF8BE5860F833070
:1043300020F480E090E00C94421F685A673120F42A
:1043400080E090E00C94581F0895CF93C82F0E94EE
:10435000A420C93349F42FEF87EE93E02150804029
:104360009040E1F700C000008C2FCF910C944621C3
:10437000882321F00E94082A0C94532A0895882348
:1043800021F00E940E2A0C94532A0895CF92DF92B6
:10439000EF92FF920F931F93CF93DF937C01062F31
:1043A000C72FFC01158112951F70D281D1110E9477
:1043B000252A0E94FE29882399F0DD2389F08C2F7D
:1043C000807F803421F080E2800F883048F082E0E6
:1043D0000E949D2A0E94FE2991E0D82ED92601C074
:1043E000D12CCC2EC2948FE0C8228C2D90E0FC0101
:1043F000E659FF4F0C94C1358C2F807FCF708823F6
:1044000011F0C295C07FDD2399F0CC2309F482C15D
:1044100080E2800F883010F0011104C08C2F0E94C0
:10442000082A03C08C2F0E94182A0E94532A72C1A6
:10443000802F0E944621CC2309F491C180E2800F95
:10444000883010F0011104C08C2F0E940E2A03C086
:104450008C2F0E941E2A0E94532A81C18C2F807F9C
:10446000CF70803211F0C295C07F002319F0013067
:10447000C9F022C0DD2371F0112341F0113031F475
:104480000E94382A8C2B0E94402A69C10E94382A37
:104490008C2B1DC0112319F0113009F460C10E944A
:1044A000492A25C0DD2321F0163008F058C10EC07E
:1044B000153008F054C11BC0DD2361F0112331F029
:1044C000F701858180FF26C18F7085838C2F0E9424
:1044D000B82145C1112359F0093309F02CC1FFEF70
:1044E00027EE83E0F15020408040E1F722C18C2F7D
:1044F0000E94BF2134C18C2F86958695837019F058
:10450000813061F02CC1DD2321F0802F9C2F93702E
:1045100002C080E090E00E94421F29C1DD2321F00B
:10452000802F9C2F937002C080E090E00E94581F63
:104530001EC18C2F837009F045C0D11114C1402FCA
:10454000429546954770440F440F602F6F70862F39
:1045500090E0A0E0B0E0042E04C0880F991FAA1FCD
:10456000BB1F0A94D2F704FF10C00FE010E020E058
:1045700030E004C0000F111F221F331F4A95D2F7ED
:10458000009510952095309503C000E010E098014B
:10459000C695C695C370BC01CD01602B712B822BD3
:1045A000932BC23049F058F4C13019F00E944328CF
:1045B000DAC00E943128D7C00E945528D4C00E947A
:1045C0002F28D1C0DD2319F08C2F817001C0869572
:1045D000882309F4C8C0402F429546954770440F80
:1045E000440F602F6F70862F90E0A0E0B0E0042EA3
:1045F00004C0880F991FAA1FBB1F0A94D2F704FF9B
:1046000010C00FE010E020E030E004C0000F111FE8
:10461000221F331F4A95D2F70095109520953095AB
:1046200003C000E010E09801C695C695C370BC01B8
:10463000CD01602B712B822B932BC23049F058F4A3
:10464000C13019F00E9408298EC00E94F6288BC044
:104650000E941A2988C00E94692885C0CF70DD2376
:1046600039F08C2F0E948F28802F0E94B8217BC0A8
:10467000802F0E94BF218C2F0E94B02874C0023F5F
:1046800001F128F4003F41F0013FA1F03FC0033F9A
:10469000F9F0043F39F13AC0DD2341F0153008F05C
:1046A0005EC08C2F8F710E94D52859C0163008F03B
:1046B00056C0F7CFDD2339F08C2F8F710E948F28E1
:1046C0004EC0DD23C9F38C2F8F710E94B02847C0E4
:1046D000DD2329F08C2F8F710E947A2840C00E9420
:1046E00075283DC0DD2349F0CF718C2F0E948F28A3
:1046F00063E08C2F0E94882A32C081E00E949D2AAC
:10470000123068F182E00E949D2A29C0DD2331F039
:10471000112391F2802F0E94A42021C0112399F22D
:10472000093349F49FEFE7EEF3E09150E040F040A9
:10473000E1F700C00000802F0E94462110C04C2FDE
:104740004F70602FC7010E9427090E94A0270FC049
:104750004C2F4F70602FC7010E942A0908C088EFB4
:104760008C0D843020F40E94E11E0E94A808DD20F8
:10477000C9F00E94FA2980FD15C0F70112820E943B
:10478000F4290E948F28C7010E94F3230E94F42974
:10479000DF91CF911F910F91FF90EF90DF90CF901D
:1047A0000C94B028DF91CF911F910F91FF90EF9063
:1047B000DF90CF9008950F931F93CF93DF93EC0179
:1047C000688179818A810E94D1298C010E942C29DB
:1047D0000E941D28B801CE010E94C621DF91CF9111
:1047E0001F910F910895CF93DF93EC0198818981F8
:1047F0002B813C81232B31F08F3F31F481E09F3FAF
:1048000019F403C081E001C080E080FD19C0CE0131
:104810000E94C10881110CC00E94FE29882381F0EA
:104820008A81882369F082E0DF91CF910C949D2AE0
:10483000CE010E94DB23CE01DF91CF910C94D007F3
:10484000DF91CF9108950E94252A0E94352A0E9467
:10485000532A80E090E00E94421F80E090E00C9498
:10486000581F80913C0190913D010E94A72C0C940F
:1048700023240E94152A0C943124E92FE295EF702D
:104880004E2F50E0FA013297EE30F105B0F4E658C1
:10489000FF4F0C94C135803F91F018F4883E68F4C6
:1048A0000EC0843F51F40BC0883E48F0813F29F48C
:1048B00006C093FB882780F9089580E0089581E081
:1048C00008950E94C6290E943D240895CF93DF9346
:1048D00000D000D01F92CDB7DEB70F900F900F9091
:1048E0000F900F90DF91CF910895CF93DF9300D079
:1048F00000D000D0CDB7DEB726960FB6F894DEBF55
:104900000FBECDBFDF91CF9108951F93CF93DF935B
:10491000C091A40216E08091A502C81799F0D0E0DA
:104920001C9FF0011D9FF00D1124EA55FD4F4081A1
:10493000518162817381848195810E9475242196C1
:10494000C770E9CFDF91CF911F9108954091D602B2
:104950005091D7026091D8027091D9028091DA0209
:104960009091DB020C9475240F931F93CF93DF93E8
:104970008091DB0282958F7009F05DC08091D80232
:10498000882309F458C08091A4021091A502609177
:10499000D6027091D702C091D902D091DA0291E08B
:1049A0006F3F09F090E0292F06E0811709F443C01A
:1049B000209721F07F3F21F030E003C031E001C0BB
:1049C000322F90E030FD34C0089FF001099FF00DB8
:1049D0001124DF01AA55BD4F11963C911197371351
:1049E00027C03C91361324C012963C911297311186
:1049F0001FC013964D915C9114974C1B5D0B483C66
:104A00005105B0F48091DB028F7080618093DB02EE
:104A1000E555FD4F80818F708061808386ED92E047
:104A20000E94F323DF91CF911F910F910C94852465
:104A300001968770BACFDF91CF911F910F910895A2
:104A40009F92AF92BF92CF92DF92EF92FF920F931D
:104A50001F93CF93DF93CDB7DEB761970FB6F8946E
:104A6000DEBF0FBECDBF8C0185E0F801DE011D96D3
:104A700001900D928A95E1F7F80140815181E28021
:104A80009091D6026091D7022091D9023091DA023A
:104A90002115310531F06F3F31F481E09F3F19F46A
:104AA00003C081E001C080E0F82FF1709F2E80FDEF
:104AB00046C1F801A380B48086EDC82E82E0D82ECE
:104AC000F090D802F501E21BF30BFF2009F4DFC0E0
:104AD0008091DB02E83CF10508F09BC0282F207F85
:104AE00009F052C0561313C0491311C0FE2CE11037
:104AF0000EC08F7080618093DB020E94A624C601E5
:104B00000E94F3238091DB02F801858358C1AB2812
:104B100031F05F3F31F481E04F3F19F403C081E091
:104B200001C080E080FD03C081E08E2502C080E0EE
:104B300090E0F82FF170FF2E80FF1CC08091A4023E
:104B40002091A50236E0821709F417C190E0389F42
:104B5000F001399FF00D1124EA55FD4F6181561384
:104B600006C06081461303C06281E61203C001964D
:104B70008770E9CFFE2CEE2009F421C18091DB0281
:104B800081608093DB025AC0561306C0491304C0EB
:104B9000E11002C0F8019FC04D875E878D859E851C
:104BA0000E946124882379F1EE2069F12091DB02D3
:104BB000822F82958F7090E0029774F08091D602D8
:104BC0009091D70298878F831986BB86AA862C87F7
:104BD000CE0107960E94F32386E0F801A6EDB2E02D
:104BE00001900D928A95E1F70E94B4240E94A624B8
:104BF0000DC0561729F14D875E878D859E850E94D1
:104C0000612481112CC0C8010E94F323FF24F39476
:104C1000D6C0282F207F69F77A2DB98AA88A6E2DF1
:104C200089890E94662486ED92E00E94F32386E043
:104C3000F60111928A95E9F70E94A624F12CBFC0D3
:104C40004913D9CFE110D7CFF8018583C8010E945D
:104C5000F32386E0F60111928A95E9F7B0C0EE20C1
:104C600091F22091DB02822F82958F7090E0029763
:104C70000CF4B2CF8091D6029091D7029A838983A7
:104C80001B82BD82AC822E83CE010196A3CFE83C6D
:104C9000F10508F047C0FE2CEE2009F4B4CF5613FE
:104CA00030C049132EC02091DB0220FD21C0822F8D
:104CB00082958F70482F50E041155105C9F0F801D9
:104CC00025834F30510541F08F5F982F9295907F4B
:104CD000822F8F70892B8583C8010E94F32386E081
:104CE000F801A6EDB2E001900D928A95E1F742C07D
:104CF00086E0F801A6EDB2E001900D928A95E1F709
:104D00005EC04D875E878D859E850E9461248111DE
:104D100063CF8091DB0281608093DB02C8010E9437
:104D2000F3234DC07A2DB98AA88A6E2D89890E94F5
:104D3000662486E0F60111928A95E9F71BC0EE2001
:104D400009F461CF4D875E878D859E850E94612421
:104D5000F82E882309F457CF86E0F801A6EDB2E0DB
:104D600001900D928A95E1F786ED92E00E949E20D7
:104D70000E94B4240E94A62422C04D875E878D85A0
:104D80009E850E94C629292F22952F70223028F453
:104D90009F7039F0811105C00BC0243028F49F703A
:104DA00049F4805E883020F0C8010E94F3239F2CD4
:104DB000F92C05C0F8019581907F99F7F9CF8F2DD7
:104DC00061960FB6F894DEBF0FBECDBFDF91CF91D5
:104DD0001F910F91FF90EF90DF90CF90BF90AF9019
:104DE0009F9008951F93CF93DF93CDB7DEB72C9795
:104DF0000FB6F894DEBF0FBECDBF4F8358876987CB
:104E00007A878B879C87CE0107960E94202588236E
:104E1000D1F09F8188852A853B85232B31F08F3FF8
:104E200031F481E09F3F19F403C081E001C080E0CC
:104E300080FD47C04F81588569857A858B859C8523
:104E40000E9475243EC086E0FE013796DE01119671
:104E500001900D928A95E1F7FF81E8856A857B854F
:104E60006115710531F0EF3F31F481E0FF3F19F436
:104E700003C081E001C080E080FD23C02091A50235
:104E800030E0C9010196877099274091A40250E053
:104E900084179507F1F1F983EA837D836C8396E0AB
:104EA000929FD001939FB00D1124AA55BD4FFE01D2
:104EB000319601900D929A95E1F78093A5020E9498
:104EC000852416E08091A4029091A502891771F1C2
:104ED000189FC00111248A559D4F0E9420258823C8
:104EE00029F1E091A4021E9FF0011124EA55FD4F23
:104EF0004081518162817381848195810E947524F2
:104F00008091A40290E00196877099278093A40273
:104F1000D9CF0E9439241092A5021092A402E6ED86
:104F2000F2E086E0DF011D928A95E9F72C960FB634
:104F3000F894DEBF0FBECDBFDF91CF911F910895D2
:104F4000EF92FF920F931F93CF93DF938C01892BE6
:104F500009F46CC0F12CEE24E394E8012196F801E9
:104F60008491843740F4843008F051C0813081F05E
:104F7000823019F15BC0853709F444C0A8F19CE781
:104F8000980F903708F052C08F770E94462141C099
:104F90000E5F1F4FFE01849190E2980F983050F4FD
:104FA0008770FE2D01C0FF0F8A95EAF78F2F0E94B0
:104FB000282A14C00E94A4202DC00E5F1F4FFE019E
:104FC000849190E2980F983060F48770FE2D01C0B4
:104FD000FF0F8A95EAF78F2F0E942E2A0E94532AEC
:104FE00019C00E94462116C00E5F1F4FFE01C491DA
:104FF000CC2381F08FE99FE00197F1F700C000001A
:10500000C150F6CF0E5F1F4FFE01F49003C00E9407
:10501000A4208E018F2D882309F49FCFEFE9FFE0B4
:105020003197F1F700C000008150F5CFDF91CF91AB
:105030001F910F91FF90EF900895089508950C949B
:105040001E280C941F280E94212860931C03709333
:105050001D0380931E0390931F030C9423240C9430
:1050600023280F931F9300911C0310911D0320917F
:105070001E0330911F03602B712B822B932B1F91EA
:105080000F910C9423280F931F9300911C031091F0
:105090001D0320911E0330911F036023712382237F
:1050A00093231F910F910C9423280F931F9300912A
:1050B0001C0310911D0320911E0330911F036027D4
:1050C0007127822793271F910F910C9423280C940A
:1050D0001E280E9467286093180370931903809319
:1050E0001A0390931B030C94232460E070E0CB011F
:1050F0000C9469280F931F9341E050E060E070E04A
:105100008A019B0104C0000F111F221F331F8A95C3
:10511000D2F7C901B8011F910F910C9469280F9320
:105120001F9341E050E060E070E004C0440F551F61
:10513000661F771F8A95D2F7809118039091190303
:10514000A0911A03B0911B038A019B01082B192B14
:105150002A2B3B2BC901B8011F910F910C94692890
:105160000F931F9341E050E060E070E004C0440FF3
:10517000551F661F771F8A95D2F740955095609509
:1051800070958091180390911903A0911A03B09122
:105190001B038A019B01082319232A233B23C901EE
:1051A000B8011F910F910C9469280F931F9341E050
:1051B00050E060E070E004C0440F551F661F771F89
:1051C0008A95D2F78091180390911903A0911A0340
:1051D000B0911B038A019B01082719272A273B2727
:1051E000C901B8011F910F910C9469280F931F9367
:1051F000009118031091190320911A0330911B0399
:10520000602B712B822B932B1F910F910C9469288B
:105210000F931F93009118031091190320911A0303
:1052200030911B0360237123822393231F910F91DD
:105230000C9469280F931F93009118031091190380
:1052400020911A0330911B0360277127822793272F
:105250001F910F910C946928089529E0929F800D69
:105260001124E82FE695E695E695877051E001C098
:10527000550F8A95EAF785E0E89FF0011124E45282
:10528000FD4F20E030E070E04081CB01022E02C0F3
:10529000969587950A94E2F78170819584278523F6
:1052A000842781932F5F3F4F2530310569F708959B
:1052B00029E0929F800D1124682F6695669566956A
:1052C000982F977085E0689FB001112440E050E06E
:1052D00080E0FB01E40FF51FE452FD4F208130E038
:1052E000092E02C0369527950A94E2F721703327DC
:1052F000042E01C0220F0A94EAF7822B4F5F5F4F02
:105300004530510531F70895BF92CF92DF92EF9269
:10531000FF920F931F93CF93DF938C01C0901803DC
:10532000D0901903E0901A03F0901B0380911C03A6
:1053300090911D03A0911E03B0911F03C82AD92A82
:10534000EA2AFB2ACFE1D0E0D701C6010C2E04C027
:10535000B695A795979587950A94D2F780FD04C0D6
:10536000219790F7B12C07C0BC2EB8018C2F0E945A
:1053700046090197A9F38B2DDF91CF911F910F91D2
:10538000FF90EF90DF90CF90BF900895CF93DF9381
:10539000EC010E948429BE010E944609DF91CF9151
:1053A00008951F93CF93DF93EB019091A30299236C
:1053B00021F0CB010E94C62913C0882349F0CB01FC
:1053C0000E948429182F682FCE010E942D2904C025
:1053D000CB010E945829182FBE01812F0E94460937
:1053E000DF91CF911F910895809120038595859538
:1053F00085950895809120038770089590912003EA
:10540000977081E009F480E0089580914403089545
:1054100090914403892B8093440308958095909143
:10542000440389238093440308951092440308950C
:1054300090914303892B8093430308958095909125
:1054400043038923809343030895109243030895EF
:1054500090914203892B8093420308958095909107
:1054600042038923809342030895109242030895D2
:1054700080912103089508950C943B2A0C943C2AB2
:1054800090912103981721F0809321030C943E2AD8
:10549000089580912103882329F01092210380E050
:1054A0000C943E2A0895E0913C01F0913D018091D9
:1054B00044038083E0913C01F0913D019081809113
:1054C0004303892B8083E0913C01F0913D01908161
:1054D00080914203892B808380912103882381F06E
:1054E000E0913C01F0913D019081892B8083809176
:1054F0003C0190913D010E94D92B81110E94492AC3
:1055000080913C0190913D010C94ED1E0C943B2A3E
:1055100098E0899F90011124262B209320030E945C
:105520008F28809120038595859585950C94862AF2
:105530001092200380E00C94862A2091200380950D
:10554000822380932003982F977079F430E0482FBE
:10555000082E000C550B2417350739F085958595D5
:1055600085950E94B0280C94982A08959093FF0185
:105570008093FE010895CF92DF92EF92FF926C012B
:10558000EE24FF24C114D104E104F10421F0C70189
:10559000B60120E101C020E0C72ED82EE92EFF245D
:1055A000C114D104E104F10419F0285FC701B60168
:1055B0006B017C0154E0F694E794D794C7945A9514
:1055C000D1F7C114D104E104F10419F02C5FC70133
:1055D000B6016B017C0142E0F694E794D794C7943E
:1055E0004A95D1F7C114D104E104F10419F02E5FFA
:1055F000C701B601DC01CB01B695A79597958795B4
:10560000892B8A2B8B2B09F02F5F822FFF90EF9035
:10561000DF90CF9008958295982F937344E0949FE4
:10562000900111248C7C86958695282B822F857578
:10563000880F2A7A2695822B0895CF93DF93D92F4E
:105640000E940B2BC82F8D2F0E940B2B2C2F30E08C
:10565000322F2227A901482BCA01DF91CF9108954B
:1056600080E090E00E94583621E08C3E9E4F09F089
:1056700020E0822F089582E090E00C944A3683E087
:1056800090E00C944A36CF9384E090E00E944A3632
:10569000C82F81E290E00E944A362C2F30E0A90109
:1056A000582BCA01CF910895CF93C92F682F84E05A
:1056B00090E00E945E366C2F81E290E0CF910C94D6
:1056C0005E3686E090E00C944A36682F86E090E0E3
:1056D0000C945E36AB01BC018FE090E00C94703608
:1056E000AB01BC0183E190E00C94703660E070E0A7
:1056F000CB010C94702B6CEE7EEF80E090E00E946A
:105700007C3660E082E090E00E945E3660E083E0FC
:1057100090E00E945E3610921C0310921D031092BE
:105720001E0310921F0360E084E090E00E945E364A
:1057300060E081E290E00E945E3660E085E090E00B
:105740000E945E3660E086E090E00E945E366FEF79
:1057500087E090E00E945E3640E050E0BA0188E0C9
:1057600090E00E94703660E08DE090E00E945E362E
:1057700040E050E0BA0188E190E00E94703660E0BD
:1057800087E190E00E945E3640E050E0BA018CE193
:1057900090E00E94703660E080E290E00E945E3609
:1057A0000C942C070C947B2B682F8EE090E00C94CB
:1057B0005E36FC01329680914801882331F0809159
:1057C000D10387FF02C09EE101C096E080E09150C6
:1057D00028F021912223D9F38F5FF9CF0895662312
:1057E00051F1209148012223E9F02091D10327FFB4
:1057F00019C0462F4695469546954E31E0F46770A0
:1058000021E030E002C0220F331F6A95E2F7FC016D
:10581000E40FF11D828190E02823392381E0232BBE
:1058200069F409C0FC01329608962191621729F0AB
:10583000E817F907D1F780E0089581E008959C0109
:10584000FC0132969FEF80E04191461789F09F3F1F
:1058500019F4411101C0982F8F5F8630A9F79F3F3F
:1058600039F0F901E90FF11D97FDFA95628308956A
:1058700008959C012A5F3F4FFC014281461301C0FD
:105880001282019682179307B9F70895262F26955D
:10589000269526952E3170F4FC01E20FF11D6770FC
:1058A00021E030E001C0220F6A95EAF78281282BBF
:1058B000228308958091450380FF0CC01F926F934F
:1058C0008EE79AE09F938F930E940E070F900F90A0
:1058D0000F900F900895262F2695269526952E3108
:1058E00078F4FC01E20FF11D677021E030E001C0A7
:1058F000220F6A95EAF72095828128232283089552
:105900008091450380FF0CC01F926F9380E69AE060
:105910009F938F930E940E070F900F900F900F9000
:10592000089520914801222329F02091D10327FDD9
:105930000C94462C0C941F2C20914801222329F012
:105940002091D10327FD0C946B2C0C94392C2091C1
:105950004801FC013296222331F08091D10387FF68
:1059600002C08EE101C086E0DF011D928A95E9F751
:10597000089508950C94B92C0C94B92CCF930E94DF
:10598000BC2C0E946A0C0E94BA2CC0E08C2F0E9492
:105990002F0B892B29F4CF5FCA30C1F780E001C0FB
:1059A00081E0CF9108950C94B92C0C94D32C0E94D3
:1059B000D52C8091D703843061F11092460320E406
:1059C00088E190E00FB6F894A895809360000FBE30
:1059D0002093600080E00E94641980E00E94A80883
:1059E0000E94D52C83B7817F846083BF83B7816099
:1059F00083BF7894889583B78E7F83BF0FB6F89462
:105A0000A89580916000886180936000109260008A
:105A10000FBE08950C94B92C0E9439240E94E917F6
:105A20000E94E11E0E94A8080C940A2D1F920F925A
:105A30000FB60F9211248F939F93AF93BF938091D2
:105A40004603811113C08091CD039091CE03A091A4
:105A5000CF03B091D0034196A11DB11D8093CD031A
:105A60009093CE03A093CF03B093D003BF91AF9197
:105A70009F918F910F900FBE0F901F90189582E00D
:105A800084BD93E095BD9AEF97BD80936E00089515
:105A90002FB7F8948091CD039091CE03A091CF03BE
:105AA000B091D0032FBF08959C014FB7F894809117
:105AB000CD039091CE03A091CF03B091D0034FBFFF
:105AC000821B930B089578941F920F920FB60F923A
:105AD00011248F939F93AF93BF938091CD039091A7
